{
  "contractName": "AgenteFederado",
  "abi": [
    {
      "inputs": [],
      "stateMutability": "nonpayable",
      "type": "constructor"
    },
    {
      "inputs": [
        {
          "internalType": "address",
          "name": "owner",
          "type": "address"
        },
        {
          "internalType": "bool",
          "name": "isOwner",
          "type": "bool"
        }
      ],
      "name": "setOwner",
      "outputs": [],
      "stateMutability": "nonpayable",
      "type": "function"
    },
    {
      "inputs": [
        {
          "components": [
            {
              "internalType": "uint256",
              "name": "dataCadastro",
              "type": "uint256"
            },
            {
              "internalType": "string",
              "name": "uf",
              "type": "string"
            },
            {
              "internalType": "string",
              "name": "descricao",
              "type": "string"
            },
            {
              "internalType": "address",
              "name": "enderecoCarteira",
              "type": "address"
            },
            {
              "internalType": "bool",
              "name": "cadastrado",
              "type": "bool"
            }
          ],
          "internalType": "struct AgenteFederadoInfo",
          "name": "agenteFederado",
          "type": "tuple"
        }
      ],
      "name": "cadastrarAgenteFederado",
      "outputs": [],
      "stateMutability": "nonpayable",
      "type": "function"
    },
    {
      "inputs": [
        {
          "components": [
            {
              "internalType": "uint256",
              "name": "dataCadastro",
              "type": "uint256"
            },
            {
              "internalType": "address",
              "name": "enderecoAgenteFederado",
              "type": "address"
            },
            {
              "internalType": "string",
              "name": "descricao",
              "type": "string"
            },
            {
              "internalType": "address",
              "name": "enderecoCarteira",
              "type": "address"
            },
            {
              "internalType": "bool",
              "name": "cadastrado",
              "type": "bool"
            }
          ],
          "internalType": "struct SecretariaInfo",
          "name": "secretaria",
          "type": "tuple"
        }
      ],
      "name": "cadastrarSecretaria",
      "outputs": [],
      "stateMutability": "nonpayable",
      "type": "function"
    },
    {
      "inputs": [],
      "name": "listarAgentesFederados",
      "outputs": [
        {
          "components": [
            {
              "internalType": "uint256",
              "name": "dataCadastro",
              "type": "uint256"
            },
            {
              "internalType": "string",
              "name": "uf",
              "type": "string"
            },
            {
              "internalType": "string",
              "name": "descricao",
              "type": "string"
            },
            {
              "internalType": "address",
              "name": "enderecoCarteira",
              "type": "address"
            },
            {
              "internalType": "bool",
              "name": "cadastrado",
              "type": "bool"
            }
          ],
          "internalType": "struct AgenteFederadoInfo[]",
          "name": "",
          "type": "tuple[]"
        }
      ],
      "stateMutability": "view",
      "type": "function",
      "constant": true
    },
    {
      "inputs": [],
      "name": "listarSecretarias",
      "outputs": [
        {
          "components": [
            {
              "internalType": "uint256",
              "name": "dataCadastro",
              "type": "uint256"
            },
            {
              "internalType": "address",
              "name": "enderecoAgenteFederado",
              "type": "address"
            },
            {
              "internalType": "string",
              "name": "descricao",
              "type": "string"
            },
            {
              "internalType": "address",
              "name": "enderecoCarteira",
              "type": "address"
            },
            {
              "internalType": "bool",
              "name": "cadastrado",
              "type": "bool"
            }
          ],
          "internalType": "struct SecretariaInfo[]",
          "name": "",
          "type": "tuple[]"
        }
      ],
      "stateMutability": "view",
      "type": "function",
      "constant": true
    },
    {
      "inputs": [
        {
          "internalType": "address",
          "name": "endereco",
          "type": "address"
        }
      ],
      "name": "listarSecretariasAgenteFederado",
      "outputs": [
        {
          "components": [
            {
              "internalType": "uint256",
              "name": "dataCadastro",
              "type": "uint256"
            },
            {
              "internalType": "address",
              "name": "enderecoAgenteFederado",
              "type": "address"
            },
            {
              "internalType": "string",
              "name": "descricao",
              "type": "string"
            },
            {
              "internalType": "address",
              "name": "enderecoCarteira",
              "type": "address"
            },
            {
              "internalType": "bool",
              "name": "cadastrado",
              "type": "bool"
            }
          ],
          "internalType": "struct SecretariaInfo[]",
          "name": "",
          "type": "tuple[]"
        }
      ],
      "stateMutability": "view",
      "type": "function",
      "constant": true
    },
    {
      "inputs": [
        {
          "internalType": "address",
          "name": "endereco",
          "type": "address"
        }
      ],
      "name": "obterAgenteFederado",
      "outputs": [
        {
          "components": [
            {
              "internalType": "uint256",
              "name": "dataCadastro",
              "type": "uint256"
            },
            {
              "internalType": "string",
              "name": "uf",
              "type": "string"
            },
            {
              "internalType": "string",
              "name": "descricao",
              "type": "string"
            },
            {
              "internalType": "address",
              "name": "enderecoCarteira",
              "type": "address"
            },
            {
              "internalType": "bool",
              "name": "cadastrado",
              "type": "bool"
            }
          ],
          "internalType": "struct AgenteFederadoInfo",
          "name": "",
          "type": "tuple"
        }
      ],
      "stateMutability": "view",
      "type": "function",
      "constant": true
    },
    {
      "inputs": [
        {
          "internalType": "address",
          "name": "endereco",
          "type": "address"
        }
      ],
      "name": "obterSecretaria",
      "outputs": [
        {
          "components": [
            {
              "internalType": "uint256",
              "name": "dataCadastro",
              "type": "uint256"
            },
            {
              "internalType": "address",
              "name": "enderecoAgenteFederado",
              "type": "address"
            },
            {
              "internalType": "string",
              "name": "descricao",
              "type": "string"
            },
            {
              "internalType": "address",
              "name": "enderecoCarteira",
              "type": "address"
            },
            {
              "internalType": "bool",
              "name": "cadastrado",
              "type": "bool"
            }
          ],
          "internalType": "struct SecretariaInfo",
          "name": "",
          "type": "tuple"
        }
      ],
      "stateMutability": "view",
      "type": "function",
      "constant": true
    },
    {
      "inputs": [
        {
          "internalType": "address",
          "name": "endereco",
          "type": "address"
        },
        {
          "components": [
            {
              "internalType": "uint256",
              "name": "data",
              "type": "uint256"
            },
            {
              "internalType": "string",
              "name": "descricao",
              "type": "string"
            },
            {
              "internalType": "uint256",
              "name": "valor",
              "type": "uint256"
            },
            {
              "internalType": "string",
              "name": "creditoDebito",
              "type": "string"
            },
            {
              "internalType": "address",
              "name": "origem",
              "type": "address"
            },
            {
              "internalType": "address",
              "name": "destino",
              "type": "address"
            },
            {
              "internalType": "string",
              "name": "simboloToken",
              "type": "string"
            }
          ],
          "internalType": "struct ExtratoInfo",
          "name": "extrato",
          "type": "tuple"
        }
      ],
      "name": "incluirLinhaExtrato",
      "outputs": [],
      "stateMutability": "nonpayable",
      "type": "function"
    },
    {
      "inputs": [
        {
          "internalType": "address",
          "name": "endereco",
          "type": "address"
        }
      ],
      "name": "consultarExtrato",
      "outputs": [
        {
          "components": [
            {
              "internalType": "uint256",
              "name": "data",
              "type": "uint256"
            },
            {
              "internalType": "string",
              "name": "descricao",
              "type": "string"
            },
            {
              "internalType": "uint256",
              "name": "valor",
              "type": "uint256"
            },
            {
              "internalType": "string",
              "name": "creditoDebito",
              "type": "string"
            },
            {
              "internalType": "address",
              "name": "origem",
              "type": "address"
            },
            {
              "internalType": "address",
              "name": "destino",
              "type": "address"
            },
            {
              "internalType": "string",
              "name": "simboloToken",
              "type": "string"
            }
          ],
          "internalType": "struct ExtratoInfo[]",
          "name": "",
          "type": "tuple[]"
        }
      ],
      "stateMutability": "view",
      "type": "function",
      "constant": true
    }
  ],
  "bytecode": "0x6080604052348015600e575f80fd5b50600160075f3373ffffffffffffffffffffffffffffffffffffffff1673ffffffffffffffffffffffffffffffffffffffff1681526020019081526020015f205f6101000a81548160ff021916908315150217905550612a90806100715f395ff3fe608060405234801561000f575f80fd5b506004361061009c575f3560e01c8063780409b311610064578063780409b31461015457806378905bc21461018457806391a85dd6146101a0578063e2b0e611146101be578063f88ccf74146101ee5761009c565b806308944790146100a057806326d3e71a146100d057806350fde3cb146100ec578063516c731c1461011c57806374fbc0cf14610138575b5f80fd5b6100ba60048036038101906100b591906119cf565b61020c565b6040516100c79190611b1e565b60405180910390f35b6100ea60048036038101906100e59190611d87565b6103c1565b005b610106600480360381019061010191906119cf565b6105c2565b6040516101139190611efc565b60405180910390f35b61013660048036038101906101319190611f1c565b6107b9565b005b610152600480360381019061014d9190611fff565b61089a565b005b61016e600480360381019061016991906119cf565b610c38565b60405161017b91906121a8565b60405180910390f35b61019e600480360381019061019991906122cd565b610f3e565b005b6101a861119e565b6040516101b59190611efc565b60405180910390f35b6101d860048036038101906101d391906119cf565b61141e565b6040516101e591906123a1565b60405180910390f35b6101f661160e565b60405161020391906124f6565b60405180910390f35b6102146118c7565b60055f8373ffffffffffffffffffffffffffffffffffffffff1673ffffffffffffffffffffffffffffffffffffffff1681526020019081526020015f206040518060a00160405290815f8201548152602001600182015f9054906101000a900473ffffffffffffffffffffffffffffffffffffffff1673ffffffffffffffffffffffffffffffffffffffff1673ffffffffffffffffffffffffffffffffffffffff1681526020016002820180546102ca90612543565b80601f01602080910402602001604051908101604052809291908181526020018280546102f690612543565b80156103415780601f1061031857610100808354040283529160200191610341565b820191905f5260205f20905b81548152906001019060200180831161032457829003601f168201915b50505050508152602001600382015f9054906101000a900473ffffffffffffffffffffffffffffffffffffffff1673ffffffffffffffffffffffffffffffffffffffff1673ffffffffffffffffffffffffffffffffffffffff1681526020016003820160149054906101000a900460ff1615151515815250509050919050565b60075f3373ffffffffffffffffffffffffffffffffffffffff1673ffffffffffffffffffffffffffffffffffffffff1681526020019081526020015f205f9054906101000a900460ff1661044a576040517f08c379a000000000000000000000000000000000000000000000000000000000815260040161044190612619565b60405180910390fd5b6103e8426104589190612664565b815f01818152505060018160800190151590811515815250508060025f836060015173ffffffffffffffffffffffffffffffffffffffff1673ffffffffffffffffffffffffffffffffffffffff1681526020019081526020015f205f820151815f015560208201518160010190816104d09190612842565b5060408201518160020190816104e69190612842565b506060820151816003015f6101000a81548173ffffffffffffffffffffffffffffffffffffffff021916908373ffffffffffffffffffffffffffffffffffffffff16021790555060808201518160030160146101000a81548160ff02191690831515021790555090505060018160600151908060018154018082558091505060019003905f5260205f20015f9091909190916101000a81548173ffffffffffffffffffffffffffffffffffffffff021916908373ffffffffffffffffffffffffffffffffffffffff1602179055506001805490505f8190555050565b606060065f8373ffffffffffffffffffffffffffffffffffffffff1673ffffffffffffffffffffffffffffffffffffffff1681526020019081526020015f20805480602002602001604051908101604052809291908181526020015f905b828210156107ae578382905f5260205f2090600402016040518060a00160405290815f8201548152602001600182015f9054906101000a900473ffffffffffffffffffffffffffffffffffffffff1673ffffffffffffffffffffffffffffffffffffffff1673ffffffffffffffffffffffffffffffffffffffff1681526020016002820180546106af90612543565b80601f01602080910402602001604051908101604052809291908181526020018280546106db90612543565b80156107265780601f106106fd57610100808354040283529160200191610726565b820191905f5260205f20905b81548152906001019060200180831161070957829003601f168201915b50505050508152602001600382015f9054906101000a900473ffffffffffffffffffffffffffffffffffffffff1673ffffffffffffffffffffffffffffffffffffffff1673ffffffffffffffffffffffffffffffffffffffff1681526020016003820160149054906101000a900460ff16151515158152505081526020019060010190610620565b505050509050919050565b60075f3373ffffffffffffffffffffffffffffffffffffffff1673ffffffffffffffffffffffffffffffffffffffff1681526020019081526020015f205f9054906101000a900460ff16610842576040517f08c379a000000000000000000000000000000000000000000000000000000000815260040161083990612619565b60405180910390fd5b8060075f8473ffffffffffffffffffffffffffffffffffffffff1673ffffffffffffffffffffffffffffffffffffffff1681526020019081526020015f205f6101000a81548160ff0219169083151502179055505050565b60025f3373ffffffffffffffffffffffffffffffffffffffff1673ffffffffffffffffffffffffffffffffffffffff1681526020019081526020015f2060030160149054906101000a900460ff16610927576040517f08c379a000000000000000000000000000000000000000000000000000000000815260040161091e90612981565b60405180910390fd5b6103e8426109359190612664565b815f01818152505033816020019073ffffffffffffffffffffffffffffffffffffffff16908173ffffffffffffffffffffffffffffffffffffffff168152505060018160800190151590811515815250508060055f836060015173ffffffffffffffffffffffffffffffffffffffff1673ffffffffffffffffffffffffffffffffffffffff1681526020019081526020015f205f820151815f01556020820151816001015f6101000a81548173ffffffffffffffffffffffffffffffffffffffff021916908373ffffffffffffffffffffffffffffffffffffffff1602179055506040820151816002019081610a2b9190612842565b506060820151816003015f6101000a81548173ffffffffffffffffffffffffffffffffffffffff021916908373ffffffffffffffffffffffffffffffffffffffff16021790555060808201518160030160146101000a81548160ff02191690831515021790555090505060048160600151908060018154018082558091505060019003905f5260205f20015f9091909190916101000a81548173ffffffffffffffffffffffffffffffffffffffff021916908373ffffffffffffffffffffffffffffffffffffffff16021790555060048054905060038190555060065f3373ffffffffffffffffffffffffffffffffffffffff1673ffffffffffffffffffffffffffffffffffffffff1681526020019081526020015f2081908060018154018082558091505060019003905f5260205f2090600402015f909190919091505f820151815f01556020820151816001015f6101000a81548173ffffffffffffffffffffffffffffffffffffffff021916908373ffffffffffffffffffffffffffffffffffffffff1602179055506040820151816002019081610bcc9190612842565b506060820151816003015f6101000a81548173ffffffffffffffffffffffffffffffffffffffff021916908373ffffffffffffffffffffffffffffffffffffffff16021790555060808201518160030160146101000a81548160ff021916908315150217905550505050565b606060085f8373ffffffffffffffffffffffffffffffffffffffff1673ffffffffffffffffffffffffffffffffffffffff1681526020019081526020015f20805480602002602001604051908101604052809291908181526020015f905b82821015610f33578382905f5260205f2090600702016040518060e00160405290815f8201548152602001600182018054610cd090612543565b80601f0160208091040260200160405190810160405280929190818152602001828054610cfc90612543565b8015610d475780601f10610d1e57610100808354040283529160200191610d47565b820191905f5260205f20905b815481529060010190602001808311610d2a57829003601f168201915b5050505050815260200160028201548152602001600382018054610d6a90612543565b80601f0160208091040260200160405190810160405280929190818152602001828054610d9690612543565b8015610de15780601f10610db857610100808354040283529160200191610de1565b820191905f5260205f20905b815481529060010190602001808311610dc457829003601f168201915b50505050508152602001600482015f9054906101000a900473ffffffffffffffffffffffffffffffffffffffff1673ffffffffffffffffffffffffffffffffffffffff1673ffffffffffffffffffffffffffffffffffffffff168152602001600582015f9054906101000a900473ffffffffffffffffffffffffffffffffffffffff1673ffffffffffffffffffffffffffffffffffffffff1673ffffffffffffffffffffffffffffffffffffffff168152602001600682018054610ea490612543565b80601f0160208091040260200160405190810160405280929190818152602001828054610ed090612543565b8015610f1b5780601f10610ef257610100808354040283529160200191610f1b565b820191905f5260205f20905b815481529060010190602001808311610efe57829003601f168201915b50505050508152505081526020019060010190610c96565b505050509050919050565b60075f3373ffffffffffffffffffffffffffffffffffffffff1673ffffffffffffffffffffffffffffffffffffffff1681526020019081526020015f205f9054906101000a900460ff16610fc7576040517f08c379a0000000000000000000000000000000000000000000000000000000008152600401610fbe90612619565b60405180910390fd5b60055f8373ffffffffffffffffffffffffffffffffffffffff1673ffffffffffffffffffffffffffffffffffffffff1681526020019081526020015f2060030160149054906101000a900460ff16611054576040517f08c379a000000000000000000000000000000000000000000000000000000000815260040161104b90612a0f565b60405180910390fd5b60085f8373ffffffffffffffffffffffffffffffffffffffff1673ffffffffffffffffffffffffffffffffffffffff1681526020019081526020015f2081908060018154018082558091505060019003905f5260205f2090600702015f909190919091505f820151815f015560208201518160010190816110d59190612842565b506040820151816002015560608201518160030190816110f59190612842565b506080820151816004015f6101000a81548173ffffffffffffffffffffffffffffffffffffffff021916908373ffffffffffffffffffffffffffffffffffffffff16021790555060a0820151816005015f6101000a81548173ffffffffffffffffffffffffffffffffffffffff021916908373ffffffffffffffffffffffffffffffffffffffff16021790555060c08201518160060190816111979190612842565b5050505050565b60605f60035467ffffffffffffffff8111156111bd576111bc611b42565b5b6040519080825280602002602001820160405280156111f657816020015b6111e36118c7565b8152602001906001900390816111db5790505b5090505f5b600354811015611416575f6004828154811061121a57611219612a2d565b5b905f5260205f20015f9054906101000a900473ffffffffffffffffffffffffffffffffffffffff16905060055f8273ffffffffffffffffffffffffffffffffffffffff1673ffffffffffffffffffffffffffffffffffffffff1681526020019081526020015f206040518060a00160405290815f8201548152602001600182015f9054906101000a900473ffffffffffffffffffffffffffffffffffffffff1673ffffffffffffffffffffffffffffffffffffffff1673ffffffffffffffffffffffffffffffffffffffff1681526020016002820180546112fa90612543565b80601f016020809104026020016040519081016040528092919081815260200182805461132690612543565b80156113715780601f1061134857610100808354040283529160200191611371565b820191905f5260205f20905b81548152906001019060200180831161135457829003601f168201915b50505050508152602001600382015f9054906101000a900473ffffffffffffffffffffffffffffffffffffffff1673ffffffffffffffffffffffffffffffffffffffff1673ffffffffffffffffffffffffffffffffffffffff1681526020016003820160149054906101000a900460ff1615151515815250508383815181106113fd576113fc612a2d565b5b60200260200101819052505080806001019150506111fb565b508091505090565b611426611920565b60025f8373ffffffffffffffffffffffffffffffffffffffff1673ffffffffffffffffffffffffffffffffffffffff1681526020019081526020015f206040518060a00160405290815f820154815260200160018201805461148790612543565b80601f01602080910402602001604051908101604052809291908181526020018280546114b390612543565b80156114fe5780601f106114d5576101008083540402835291602001916114fe565b820191905f5260205f20905b8154815290600101906020018083116114e157829003601f168201915b5050505050815260200160028201805461151790612543565b80601f016020809104026020016040519081016040528092919081815260200182805461154390612543565b801561158e5780601f106115655761010080835404028352916020019161158e565b820191905f5260205f20905b81548152906001019060200180831161157157829003601f168201915b50505050508152602001600382015f9054906101000a900473ffffffffffffffffffffffffffffffffffffffff1673ffffffffffffffffffffffffffffffffffffffff1673ffffffffffffffffffffffffffffffffffffffff1681526020016003820160149054906101000a900460ff1615151515815250509050919050565b60605f805467ffffffffffffffff81111561162c5761162b611b42565b5b60405190808252806020026020018201604052801561166557816020015b611652611920565b81526020019060019003908161164a5790505b5090505f5b5f548110156118bf575f6001828154811061168857611687612a2d565b5b905f5260205f20015f9054906101000a900473ffffffffffffffffffffffffffffffffffffffff16905060025f8273ffffffffffffffffffffffffffffffffffffffff1673ffffffffffffffffffffffffffffffffffffffff1681526020019081526020015f206040518060a00160405290815f820154815260200160018201805461171390612543565b80601f016020809104026020016040519081016040528092919081815260200182805461173f90612543565b801561178a5780601f106117615761010080835404028352916020019161178a565b820191905f5260205f20905b81548152906001019060200180831161176d57829003601f168201915b505050505081526020016002820180546117a390612543565b80601f01602080910402602001604051908101604052809291908181526020018280546117cf90612543565b801561181a5780601f106117f15761010080835404028352916020019161181a565b820191905f5260205f20905b8154815290600101906020018083116117fd57829003601f168201915b50505050508152602001600382015f9054906101000a900473ffffffffffffffffffffffffffffffffffffffff1673ffffffffffffffffffffffffffffffffffffffff1673ffffffffffffffffffffffffffffffffffffffff1681526020016003820160149054906101000a900460ff1615151515815250508383815181106118a6576118a5612a2d565b5b602002602001018190525050808060010191505061166a565b508091505090565b6040518060a001604052805f81526020015f73ffffffffffffffffffffffffffffffffffffffff168152602001606081526020015f73ffffffffffffffffffffffffffffffffffffffff1681526020015f151581525090565b6040518060a001604052805f815260200160608152602001606081526020015f73ffffffffffffffffffffffffffffffffffffffff1681526020015f151581525090565b5f604051905090565b5f80fd5b5f80fd5b5f73ffffffffffffffffffffffffffffffffffffffff82169050919050565b5f61199e82611975565b9050919050565b6119ae81611994565b81146119b8575f80fd5b50565b5f813590506119c9816119a5565b92915050565b5f602082840312156119e4576119e361196d565b5b5f6119f1848285016119bb565b91505092915050565b5f819050919050565b611a0c816119fa565b82525050565b611a1b81611994565b82525050565b5f81519050919050565b5f82825260208201905092915050565b8281835e5f83830152505050565b5f601f19601f8301169050919050565b5f611a6382611a21565b611a6d8185611a2b565b9350611a7d818560208601611a3b565b611a8681611a49565b840191505092915050565b5f8115159050919050565b611aa581611a91565b82525050565b5f60a083015f830151611ac05f860182611a03565b506020830151611ad36020860182611a12565b5060408301518482036040860152611aeb8282611a59565b9150506060830151611b006060860182611a12565b506080830151611b136080860182611a9c565b508091505092915050565b5f6020820190508181035f830152611b368184611aab565b905092915050565b5f80fd5b7f4e487b71000000000000000000000000000000000000000000000000000000005f52604160045260245ffd5b611b7882611a49565b810181811067ffffffffffffffff82111715611b9757611b96611b42565b5b80604052505050565b5f611ba9611964565b9050611bb58282611b6f565b919050565b5f80fd5b611bc7816119fa565b8114611bd1575f80fd5b50565b5f81359050611be281611bbe565b92915050565b5f80fd5b5f80fd5b5f67ffffffffffffffff821115611c0a57611c09611b42565b5b611c1382611a49565b9050602081019050919050565b828183375f83830152505050565b5f611c40611c3b84611bf0565b611ba0565b905082815260208101848484011115611c5c57611c5b611bec565b5b611c67848285611c20565b509392505050565b5f82601f830112611c8357611c82611be8565b5b8135611c93848260208601611c2e565b91505092915050565b611ca581611a91565b8114611caf575f80fd5b50565b5f81359050611cc081611c9c565b92915050565b5f60a08284031215611cdb57611cda611b3e565b5b611ce560a0611ba0565b90505f611cf484828501611bd4565b5f83015250602082013567ffffffffffffffff811115611d1757611d16611bba565b5b611d2384828501611c6f565b602083015250604082013567ffffffffffffffff811115611d4757611d46611bba565b5b611d5384828501611c6f565b6040830152506060611d67848285016119bb565b6060830152506080611d7b84828501611cb2565b60808301525092915050565b5f60208284031215611d9c57611d9b61196d565b5b5f82013567ffffffffffffffff811115611db957611db8611971565b5b611dc584828501611cc6565b91505092915050565b5f81519050919050565b5f82825260208201905092915050565b5f819050602082019050919050565b5f60a083015f830151611e0c5f860182611a03565b506020830151611e1f6020860182611a12565b5060408301518482036040860152611e378282611a59565b9150506060830151611e4c6060860182611a12565b506080830151611e5f6080860182611a9c565b508091505092915050565b5f611e758383611df7565b905092915050565b5f602082019050919050565b5f611e9382611dce565b611e9d8185611dd8565b935083602082028501611eaf85611de8565b805f5b85811015611eea5784840389528151611ecb8582611e6a565b9450611ed683611e7d565b925060208a01995050600181019050611eb2565b50829750879550505050505092915050565b5f6020820190508181035f830152611f148184611e89565b905092915050565b5f8060408385031215611f3257611f3161196d565b5b5f611f3f858286016119bb565b9250506020611f5085828601611cb2565b9150509250929050565b5f60a08284031215611f6f57611f6e611b3e565b5b611f7960a0611ba0565b90505f611f8884828501611bd4565b5f830152506020611f9b848285016119bb565b602083015250604082013567ffffffffffffffff811115611fbf57611fbe611bba565b5b611fcb84828501611c6f565b6040830152506060611fdf848285016119bb565b6060830152506080611ff384828501611cb2565b60808301525092915050565b5f602082840312156120145761201361196d565b5b5f82013567ffffffffffffffff81111561203157612030611971565b5b61203d84828501611f5a565b91505092915050565b5f81519050919050565b5f82825260208201905092915050565b5f819050602082019050919050565b5f60e083015f8301516120845f860182611a03565b506020830151848203602086015261209c8282611a59565b91505060408301516120b16040860182611a03565b50606083015184820360608601526120c98282611a59565b91505060808301516120de6080860182611a12565b5060a08301516120f160a0860182611a12565b5060c083015184820360c08601526121098282611a59565b9150508091505092915050565b5f612121838361206f565b905092915050565b5f602082019050919050565b5f61213f82612046565b6121498185612050565b93508360208202850161215b85612060565b805f5b8581101561219657848403895281516121778582612116565b945061218283612129565b925060208a0199505060018101905061215e565b50829750879550505050505092915050565b5f6020820190508181035f8301526121c08184612135565b905092915050565b5f60e082840312156121dd576121dc611b3e565b5b6121e760e0611ba0565b90505f6121f684828501611bd4565b5f83015250602082013567ffffffffffffffff81111561221957612218611bba565b5b61222584828501611c6f565b602083015250604061223984828501611bd4565b604083015250606082013567ffffffffffffffff81111561225d5761225c611bba565b5b61226984828501611c6f565b606083015250608061227d848285016119bb565b60808301525060a0612291848285016119bb565b60a08301525060c082013567ffffffffffffffff8111156122b5576122b4611bba565b5b6122c184828501611c6f565b60c08301525092915050565b5f80604083850312156122e3576122e261196d565b5b5f6122f0858286016119bb565b925050602083013567ffffffffffffffff81111561231157612310611971565b5b61231d858286016121c8565b9150509250929050565b5f60a083015f83015161233c5f860182611a03565b50602083015184820360208601526123548282611a59565b9150506040830151848203604086015261236e8282611a59565b91505060608301516123836060860182611a12565b5060808301516123966080860182611a9c565b508091505092915050565b5f6020820190508181035f8301526123b98184612327565b905092915050565b5f81519050919050565b5f82825260208201905092915050565b5f819050602082019050919050565b5f60a083015f8301516123ff5f860182611a03565b50602083015184820360208601526124178282611a59565b915050604083015184820360408601526124318282611a59565b91505060608301516124466060860182611a12565b5060808301516124596080860182611a9c565b508091505092915050565b5f61246f83836123ea565b905092915050565b5f602082019050919050565b5f61248d826123c1565b61249781856123cb565b9350836020820285016124a9856123db565b805f5b858110156124e457848403895281516124c58582612464565b94506124d083612477565b925060208a019950506001810190506124ac565b50829750879550505050505092915050565b5f6020820190508181035f83015261250e8184612483565b905092915050565b7f4e487b71000000000000000000000000000000000000000000000000000000005f52602260045260245ffd5b5f600282049050600182168061255a57607f821691505b60208210810361256d5761256c612516565b5b50919050565b5f82825260208201905092915050565b7f536f6d656e7465206f7320726573706f73c3a1766569732070656c6f20636f6e5f8201527f747261746f206465204167656e746520466564657261646f20706f64656d207260208201527f65616c697a61722065737361206f70657261c3a7c3a36f2e0000000000000000604082015250565b5f612603605883612573565b915061260e82612583565b606082019050919050565b5f6020820190508181035f830152612630816125f7565b9050919050565b7f4e487b71000000000000000000000000000000000000000000000000000000005f52601160045260245ffd5b5f61266e826119fa565b9150612679836119fa565b9250828202612687816119fa565b9150828204841483151761269e5761269d612637565b5b5092915050565b5f819050815f5260205f209050919050565b5f6020601f8301049050919050565b5f82821b905092915050565b5f600883026127017fffffffffffffffffffffffffffffffffffffffffffffffffffffffffffffffff826126c6565b61270b86836126c6565b95508019841693508086168417925050509392505050565b5f819050919050565b5f61274661274161273c846119fa565b612723565b6119fa565b9050919050565b5f819050919050565b61275f8361272c565b61277361276b8261274d565b8484546126d2565b825550505050565b5f90565b61278761277b565b612792818484612756565b505050565b5b818110156127b5576127aa5f8261277f565b600181019050612798565b5050565b601f8211156127fa576127cb816126a5565b6127d4846126b7565b810160208510156127e3578190505b6127f76127ef856126b7565b830182612797565b50505b505050565b5f82821c905092915050565b5f61281a5f19846008026127ff565b1980831691505092915050565b5f612832838361280b565b9150826002028217905092915050565b61284b82611a21565b67ffffffffffffffff81111561286457612863611b42565b5b61286e8254612543565b6128798282856127b9565b5f60209050601f8311600181146128aa575f8415612898578287015190505b6128a28582612827565b865550612909565b601f1984166128b8866126a5565b5f5b828110156128df578489015182556001820191506020850194506020810190506128ba565b868310156128fc57848901516128f8601f89168261280b565b8355505b6001600288020188555050505b505050505050565b7f536f6d656e746520756d206167656e746520666564657261646f20706f6465205f8201527f7265616c697a61722065737361206f70657261c3a7c3a36f2e00000000000000602082015250565b5f61296b603983612573565b915061297682612911565b604082019050919050565b5f6020820190508181035f8301526129988161295f565b9050919050565b7f4120636172746569726120646f206578747261746f20646576652073657220645f8201527f6520756d6120736563726574617269612e000000000000000000000000000000602082015250565b5f6129f9603183612573565b9150612a048261299f565b604082019050919050565b5f6020820190508181035f830152612a26816129ed565b9050919050565b7f4e487b71000000000000000000000000000000000000000000000000000000005f52603260045260245ffdfea2646970667358221220e1ed63b26ae80898942c8ed4ac38253fc1f379c6addc20c25c331c2034d1e87364736f6c634300081a0033",
  "immutableReferences": {},
  "source": "// SPDX-License-Identifier: MIT\npragma solidity ^0.8.0;\n\nimport \"./TiposComuns.sol\";\n\ncontract AgenteFederado {\n    //Propriedades\n\n    uint256 private _qtdAgentesFederados;\n    address[] private _enderecosAgentesFederados;\n    mapping(address => AgenteFederadoInfo) private _agentesFederados;\n\n    uint256 private _qtdSecretarias;\n    address[] private _enderecosSecretarias;\n    mapping(address => SecretariaInfo) private _secretarias;\n    mapping(address => SecretariaInfo[]) private _secretariasAgenteFederado;\n\n    mapping(address => bool) private _owners;\n    mapping(address => ExtratoInfo[]) private _extrato;\n\n    //Construtores\n    constructor() {\n        _owners[msg.sender] = true;\n    }\n\n    //Modificadores\n    modifier onlyOwner() {\n        require(\n            _owners[msg.sender],\n            unicode\"Somente os resposveis pelo contrato de Agente Federado podem realizar essa operao.\"\n        );\n        _;\n    }\n\n    modifier onlyFederated() {\n        require(\n            _agentesFederados[msg.sender].cadastrado,\n            unicode\"Somente um agente federado pode realizar essa operao.\"\n        );\n        _;\n    }\n\n    //Funes\n    function setOwner(address owner, bool isOwner) public onlyOwner {\n        _owners[owner] = isOwner;\n    }\n\n    function cadastrarAgenteFederado(\n        AgenteFederadoInfo memory agenteFederado\n    ) public onlyOwner {\n        agenteFederado.dataCadastro = block.timestamp * 1000;\n        agenteFederado.cadastrado = true;\n        _agentesFederados[agenteFederado.enderecoCarteira] = agenteFederado;\n        _enderecosAgentesFederados.push(agenteFederado.enderecoCarteira);\n        _qtdAgentesFederados = _enderecosAgentesFederados.length;\n    }\n\n    function cadastrarSecretaria(\n        SecretariaInfo memory secretaria\n    ) public onlyFederated {\n        secretaria.dataCadastro = block.timestamp * 1000;\n        secretaria.enderecoAgenteFederado = msg.sender;\n        secretaria.cadastrado = true;\n        _secretarias[secretaria.enderecoCarteira] = secretaria;\n        _enderecosSecretarias.push(secretaria.enderecoCarteira);\n        _qtdSecretarias = _enderecosSecretarias.length;\n\n        _secretariasAgenteFederado[msg.sender].push(secretaria);\n    }\n\n    function listarAgentesFederados()\n        public\n        view\n        returns (AgenteFederadoInfo[] memory)\n    {\n        AgenteFederadoInfo[] memory agentesFederados = new AgenteFederadoInfo[](\n            _qtdAgentesFederados\n        );\n\n        for (uint256 i = 0; i < _qtdAgentesFederados; i++) {\n            address endereco = _enderecosAgentesFederados[i];\n            agentesFederados[i] = _agentesFederados[endereco];\n        }\n\n        return agentesFederados;\n    }\n\n    function listarSecretarias() public view returns (SecretariaInfo[] memory) {\n        SecretariaInfo[] memory secretarias = new SecretariaInfo[](\n            _qtdSecretarias\n        );\n\n        for (uint256 i = 0; i < _qtdSecretarias; i++) {\n            address endereco = _enderecosSecretarias[i];\n            secretarias[i] = _secretarias[endereco];\n        }\n\n        return secretarias;\n    }\n\n    function listarSecretariasAgenteFederado(\n        address endereco\n    ) public view returns (SecretariaInfo[] memory) {\n        return _secretariasAgenteFederado[endereco];\n    }\n\n    function obterAgenteFederado(\n        address endereco\n    ) public view returns (AgenteFederadoInfo memory) {\n        return _agentesFederados[endereco];\n    }\n\n    function obterSecretaria(\n        address endereco\n    ) public view returns (SecretariaInfo memory) {\n        return _secretarias[endereco];\n    }\n\n    function incluirLinhaExtrato(\n        address endereco,\n        ExtratoInfo memory extrato\n    ) public onlyOwner {\n        require(\n            _secretarias[endereco].cadastrado,\n            \"A carteira do extrato deve ser de uma secretaria.\"\n        );\n        _extrato[endereco].push(extrato);\n    }\n\n    function consultarExtrato(\n        address endereco\n    ) public view returns (ExtratoInfo[] memory) {\n        return _extrato[endereco];\n    }\n}\n",
  "sourcePath": "/home/marlacabral/GovToken/Web.UI/Contratos/AgenteFederado.sol",
  "compiler": {
    "name": "solc",
    "version": "0.8.26+commit.8a97fa7a.Emscripten.clang"
  },
  "schemaVersion": "3.4.8",
  "updatedAt": "2024-08-07T20:59:39.819Z",
  "networkType": "ethereum",
  "devdoc": {
    "kind": "dev",
    "methods": {},
    "version": 1
  },
  "userdoc": {
    "kind": "user",
    "methods": {},
    "version": 1
  }
}