{
  "contractName": "ContaLastro",
  "abi": [
    {
      "inputs": [
        {
          "internalType": "contract GovToken",
          "name": "govToken",
          "type": "address"
        },
        {
          "internalType": "contract AgenteFederado",
          "name": "agenteFederado",
          "type": "address"
        },
        {
          "internalType": "contract PainelServico",
          "name": "painelServico",
          "type": "address"
        },
        {
          "internalType": "contract Fornecedor",
          "name": "fornecedor",
          "type": "address"
        }
      ],
      "stateMutability": "nonpayable",
      "type": "constructor"
    },
    {
      "anonymous": false,
      "inputs": [
        {
          "indexed": false,
          "internalType": "address",
          "name": "sender",
          "type": "address"
        },
        {
          "indexed": false,
          "internalType": "uint256",
          "name": "data",
          "type": "uint256"
        },
        {
          "indexed": false,
          "internalType": "uint256",
          "name": "valor",
          "type": "uint256"
        }
      ],
      "name": "depositoRealizado",
      "type": "event"
    },
    {
      "anonymous": false,
      "inputs": [
        {
          "indexed": false,
          "internalType": "address",
          "name": "fornecedor",
          "type": "address"
        },
        {
          "indexed": false,
          "internalType": "uint256",
          "name": "data",
          "type": "uint256"
        },
        {
          "indexed": false,
          "internalType": "uint256",
          "name": "valor",
          "type": "uint256"
        },
        {
          "indexed": false,
          "internalType": "uint256",
          "name": "idServico",
          "type": "uint256"
        }
      ],
      "name": "solicitacaoRepasseRealizada",
      "type": "event"
    },
    {
      "anonymous": false,
      "inputs": [
        {
          "indexed": false,
          "internalType": "address",
          "name": "sender",
          "type": "address"
        },
        {
          "indexed": false,
          "internalType": "address",
          "name": "enderecoAgenteFederado",
          "type": "address"
        },
        {
          "indexed": false,
          "internalType": "uint256",
          "name": "data",
          "type": "uint256"
        },
        {
          "indexed": false,
          "internalType": "uint256",
          "name": "valor",
          "type": "uint256"
        }
      ],
      "name": "transferenciaRealizada",
      "type": "event"
    },
    {
      "inputs": [
        {
          "internalType": "address",
          "name": "owner",
          "type": "address"
        },
        {
          "internalType": "bool",
          "name": "isOwner",
          "type": "bool"
        }
      ],
      "name": "setOwner",
      "outputs": [],
      "stateMutability": "nonpayable",
      "type": "function"
    },
    {
      "inputs": [],
      "name": "consultarExtrato",
      "outputs": [
        {
          "components": [
            {
              "internalType": "uint256",
              "name": "data",
              "type": "uint256"
            },
            {
              "internalType": "string",
              "name": "descricao",
              "type": "string"
            },
            {
              "internalType": "uint256",
              "name": "valor",
              "type": "uint256"
            },
            {
              "internalType": "string",
              "name": "creditoDebito",
              "type": "string"
            },
            {
              "internalType": "address",
              "name": "origem",
              "type": "address"
            },
            {
              "internalType": "address",
              "name": "destino",
              "type": "address"
            },
            {
              "internalType": "string",
              "name": "simboloToken",
              "type": "string"
            }
          ],
          "internalType": "struct ExtratoInfo[]",
          "name": "",
          "type": "tuple[]"
        }
      ],
      "stateMutability": "view",
      "type": "function",
      "constant": true
    },
    {
      "inputs": [],
      "name": "consultarSaldo",
      "outputs": [
        {
          "internalType": "uint256",
          "name": "",
          "type": "uint256"
        }
      ],
      "stateMutability": "view",
      "type": "function",
      "constant": true
    },
    {
      "inputs": [
        {
          "internalType": "uint256",
          "name": "valor",
          "type": "uint256"
        }
      ],
      "name": "realizarDeposito",
      "outputs": [],
      "stateMutability": "nonpayable",
      "type": "function"
    },
    {
      "inputs": [
        {
          "internalType": "address",
          "name": "enderecoSecretaria",
          "type": "address"
        },
        {
          "internalType": "uint256",
          "name": "valor",
          "type": "uint256"
        }
      ],
      "name": "transferirToken",
      "outputs": [],
      "stateMutability": "nonpayable",
      "type": "function"
    },
    {
      "inputs": [
        {
          "internalType": "address",
          "name": "enderecoFornecedor",
          "type": "address"
        },
        {
          "internalType": "uint256",
          "name": "idServico",
          "type": "uint256"
        },
        {
          "internalType": "uint256",
          "name": "valor",
          "type": "uint256"
        }
      ],
      "name": "solicitarRepasse",
      "outputs": [],
      "stateMutability": "nonpayable",
      "type": "function"
    }
  ],
  "bytecode": "0x608060405234801561000f575f80fd5b50604051613764380380613764833981810160405281019061003191906102b5565b60015f803373ffffffffffffffffffffffffffffffffffffffff1673ffffffffffffffffffffffffffffffffffffffff1681526020019081526020015f205f6101000a81548160ff0219169083151502179055508360015f6101000a81548173ffffffffffffffffffffffffffffffffffffffff021916908373ffffffffffffffffffffffffffffffffffffffff1602179055508260025f6101000a81548173ffffffffffffffffffffffffffffffffffffffff021916908373ffffffffffffffffffffffffffffffffffffffff1602179055508160035f6101000a81548173ffffffffffffffffffffffffffffffffffffffff021916908373ffffffffffffffffffffffffffffffffffffffff1602179055508060045f6101000a81548173ffffffffffffffffffffffffffffffffffffffff021916908373ffffffffffffffffffffffffffffffffffffffff1602179055505f60068190555050505050610319565b5f80fd5b5f73ffffffffffffffffffffffffffffffffffffffff82169050919050565b5f6101c282610199565b9050919050565b5f6101d3826101b8565b9050919050565b6101e3816101c9565b81146101ed575f80fd5b50565b5f815190506101fe816101da565b92915050565b5f61020e826101b8565b9050919050565b61021e81610204565b8114610228575f80fd5b50565b5f8151905061023981610215565b92915050565b5f610249826101b8565b9050919050565b6102598161023f565b8114610263575f80fd5b50565b5f8151905061027481610250565b92915050565b5f610284826101b8565b9050919050565b6102948161027a565b811461029e575f80fd5b50565b5f815190506102af8161028b565b92915050565b5f805f80608085870312156102cd576102cc610195565b5b5f6102da878288016101f0565b94505060206102eb8782880161022b565b93505060406102fc87828801610266565b925050606061030d878288016102a1565b91505092959194509250565b61343e806103265f395ff3fe608060405234801561000f575f80fd5b5060043610610060575f3560e01c80630de586c1146100645780631439a4a514610080578063516c731c1461009c5780636da52311146100b85780638e128ed4146100d6578063d6f033fd146100f2575b5f80fd5b61007e60048036038101906100799190611fa0565b610110565b005b61009a60048036038101906100959190611ff0565b610d4f565b005b6100b660048036038101906100b19190612063565b61158a565b005b6100c0611669565b6040516100cd9190612291565b60405180910390f35b6100f060048036038101906100eb91906122b1565b611932565b005b6100fa611ef9565b60405161010791906122eb565b60405180910390f35b60035f9054906101000a900473ffffffffffffffffffffffffffffffffffffffff1673ffffffffffffffffffffffffffffffffffffffff163373ffffffffffffffffffffffffffffffffffffffff161461019f576040517f08c379a0000000000000000000000000000000000000000000000000000000008152600401610196906123aa565b60405180910390fd5b5f6103e8426101ae91906123f5565b905060015f9054906101000a900473ffffffffffffffffffffffffffffffffffffffff1673ffffffffffffffffffffffffffffffffffffffff166323b872dd60035f9054906101000a900473ffffffffffffffffffffffffffffffffffffffff1630856040518463ffffffff1660e01b815260040161022f93929190612445565b6020604051808303815f875af115801561024b573d5f803e3d5ffd5b505050506040513d601f19601f8201168201806040525081019061026f919061248e565b5060015f9054906101000a900473ffffffffffffffffffffffffffffffffffffffff1673ffffffffffffffffffffffffffffffffffffffff1663095ea7b330846040518363ffffffff1660e01b81526004016102cc9291906124b9565b6020604051808303815f875af11580156102e8573d5f803e3d5ffd5b505050506040513d601f19601f8201168201806040525081019061030c919061248e565b5060015f9054906101000a900473ffffffffffffffffffffffffffffffffffffffff1673ffffffffffffffffffffffffffffffffffffffff166379cc679030846040518363ffffffff1660e01b81526004016103699291906124b9565b5f604051808303815f87803b158015610380575f80fd5b505af1158015610392573d5f803e3d5ffd5b505050505f60035f9054906101000a900473ffffffffffffffffffffffffffffffffffffffff1673ffffffffffffffffffffffffffffffffffffffff1663d6f8aa3c856040518263ffffffff1660e01b81526004016103f191906122eb565b5f60405180830381865afa15801561040b573d5f803e3d5ffd5b505050506040513d5f823e3d601f19601f820116820180604052508101906104339190612a1a565b90505f60045f9054906101000a900473ffffffffffffffffffffffffffffffffffffffff1673ffffffffffffffffffffffffffffffffffffffff166334803e3a8360c001516040518263ffffffff1660e01b81526004016104949190612a61565b5f60405180830381865afa1580156104ae573d5f803e3d5ffd5b505050506040513d5f823e3d601f19601f820116820180604052508101906104d69190612a7a565b90505f60405180606001604052806031815260200161337960319139905080836040015160405160200161050b929190612afb565b60405160208183030381529060405290508060405160200161052d9190612b44565b6040516020818303038152906040529050808260400151604051602001610555929190612afb565b604051602081830303815290604052905060056040518060e001604052808681526020018381526020018781526020016040518060400160405280600181526020017f4300000000000000000000000000000000000000000000000000000000000000815250815260200160035f9054906101000a900473ffffffffffffffffffffffffffffffffffffffff1673ffffffffffffffffffffffffffffffffffffffff1681526020013073ffffffffffffffffffffffffffffffffffffffff16815260200160015f9054906101000a900473ffffffffffffffffffffffffffffffffffffffff1673ffffffffffffffffffffffffffffffffffffffff166395d89b416040518163ffffffff1660e01b81526004015f60405180830381865afa158015610682573d5f803e3d5ffd5b505050506040513d5f823e3d601f19601f820116820180604052508101906106aa9190612b69565b815250908060018154018082558091505060019003905f5260205f2090600702015f909190919091505f820151815f015560208201518160010190816106f09190612daa565b506040820151816002015560608201518160030190816107109190612daa565b506080820151816004015f6101000a81548173ffffffffffffffffffffffffffffffffffffffff021916908373ffffffffffffffffffffffffffffffffffffffff16021790555060a0820151816005015f6101000a81548173ffffffffffffffffffffffffffffffffffffffff021916908373ffffffffffffffffffffffffffffffffffffffff16021790555060c08201518160060190816107b29190612daa565b5050505f6040518060600160405280603981526020016133aa6039913990508084604001516040516020016107e8929190612afb565b60405160208183030381529060405290508060405160200161080a9190612b44565b6040516020818303038152906040529050808360400151604051602001610832929190612afb565b604051602081830303815290604052905060056040518060e001604052808781526020018381526020018881526020016040518060400160405280600181526020017f440000000000000000000000000000000000000000000000000000000000000081525081526020013073ffffffffffffffffffffffffffffffffffffffff1681526020015f73ffffffffffffffffffffffffffffffffffffffff16815260200160015f9054906101000a900473ffffffffffffffffffffffffffffffffffffffff1673ffffffffffffffffffffffffffffffffffffffff166395d89b416040518163ffffffff1660e01b81526004015f60405180830381865afa15801561093e573d5f803e3d5ffd5b505050506040513d5f823e3d601f19601f820116820180604052508101906109669190612b69565b815250908060018154018082558091505060019003905f5260205f2090600702015f909190919091505f820151815f015560208201518160010190816109ac9190612daa565b506040820151816002015560608201518160030190816109cc9190612daa565b506080820151816004015f6101000a81548173ffffffffffffffffffffffffffffffffffffffff021916908373ffffffffffffffffffffffffffffffffffffffff16021790555060a0820151816005015f6101000a81548173ffffffffffffffffffffffffffffffffffffffff021916908373ffffffffffffffffffffffffffffffffffffffff16021790555060c0820151816006019081610a6e9190612daa565b5050505f6040518060400160405280601481526020017f52657061737365207c205365727669c3a76f3a200000000000000000000000008152509050808560400151604051602001610ac1929190612afb565b604051602081830303815290604052905080604051602001610ae39190612b44565b6040516020818303038152906040529050808460400151604051602001610b0b929190612afb565b604051602081830303815290604052905060056040518060e001604052808881526020018381526020018981526020016040518060400160405280600181526020017f440000000000000000000000000000000000000000000000000000000000000081525081526020013073ffffffffffffffffffffffffffffffffffffffff1681526020018b73ffffffffffffffffffffffffffffffffffffffff1681526020016040518060400160405280600281526020017f5224000000000000000000000000000000000000000000000000000000000000815250815250908060018154018082558091505060019003905f5260205f2090600702015f909190919091505f820151815f01556020820151816001019081610c2a9190612daa565b50604082015181600201556060820151816003019081610c4a9190612daa565b506080820151816004015f6101000a81548173ffffffffffffffffffffffffffffffffffffffff021916908373ffffffffffffffffffffffffffffffffffffffff16021790555060a0820151816005015f6101000a81548173ffffffffffffffffffffffffffffffffffffffff021916908373ffffffffffffffffffffffffffffffffffffffff16021790555060c0820151816006019081610cec9190612daa565b5050508660065f828254610d009190612e79565b925050819055507fbc3043bd3fa820c57237316328b804d3108aafc9dd42f1a8bc719d031d1d28fc8987898b604051610d3c9493929190612eac565b60405180910390a1505050505050505050565b5f803373ffffffffffffffffffffffffffffffffffffffff1673ffffffffffffffffffffffffffffffffffffffff1681526020019081526020015f205f9054906101000a900460ff16610dd7576040517f08c379a0000000000000000000000000000000000000000000000000000000008152600401610dce90612f85565b60405180910390fd5b5f60025f9054906101000a900473ffffffffffffffffffffffffffffffffffffffff1673ffffffffffffffffffffffffffffffffffffffff166308944790846040518263ffffffff1660e01b8152600401610e329190612a61565b5f60405180830381865afa158015610e4c573d5f803e3d5ffd5b505050506040513d5f823e3d601f19601f82011682018060405250810190610e749190612fa3565b90508060800151610eba576040517f08c379a0000000000000000000000000000000000000000000000000000000008152600401610eb19061305a565b60405180910390fd5b5f60025f9054906101000a900473ffffffffffffffffffffffffffffffffffffffff1673ffffffffffffffffffffffffffffffffffffffff1663e2b0e61183602001516040518263ffffffff1660e01b8152600401610f199190612a61565b5f60405180830381865afa158015610f33573d5f803e3d5ffd5b505050506040513d5f823e3d601f19601f82011682018060405250810190610f5b9190613139565b90505f6103e842610f6c91906123f5565b905060015f9054906101000a900473ffffffffffffffffffffffffffffffffffffffff1673ffffffffffffffffffffffffffffffffffffffff1663095ea7b330866040518363ffffffff1660e01b8152600401610fca9291906124b9565b6020604051808303815f875af1158015610fe6573d5f803e3d5ffd5b505050506040513d601f19601f8201168201806040525081019061100a919061248e565b5060015f9054906101000a900473ffffffffffffffffffffffffffffffffffffffff1673ffffffffffffffffffffffffffffffffffffffff1663a9059cbb86866040518363ffffffff1660e01b81526004016110679291906124b9565b6020604051808303815f875af1158015611083573d5f803e3d5ffd5b505050506040513d601f19601f820116820180604052508101906110a7919061248e565b505f6040518060400160405280601181526020017f5472616e73666572c3aa6e636961202d2000000000000000000000000000000081525090508083604001516040516020016110f8929190612afb565b60405160208183030381529060405290508060405160200161111a91906131a6565b6040516020818303038152906040529050808460400151604051602001611142929190612afb565b604051602081830303815290604052905060056040518060e001604052808481526020018381526020018781526020016040518060400160405280600181526020017f440000000000000000000000000000000000000000000000000000000000000081525081526020013073ffffffffffffffffffffffffffffffffffffffff1681526020018873ffffffffffffffffffffffffffffffffffffffff16815260200160015f9054906101000a900473ffffffffffffffffffffffffffffffffffffffff1673ffffffffffffffffffffffffffffffffffffffff166395d89b416040518163ffffffff1660e01b81526004015f60405180830381865afa15801561124e573d5f803e3d5ffd5b505050506040513d5f823e3d601f19601f820116820180604052508101906112769190612b69565b815250908060018154018082558091505060019003905f5260205f2090600702015f909190919091505f820151815f015560208201518160010190816112bc9190612daa565b506040820151816002015560608201518160030190816112dc9190612daa565b506080820151816004015f6101000a81548173ffffffffffffffffffffffffffffffffffffffff021916908373ffffffffffffffffffffffffffffffffffffffff16021790555060a0820151816005015f6101000a81548173ffffffffffffffffffffffffffffffffffffffff021916908373ffffffffffffffffffffffffffffffffffffffff16021790555060c082015181600601908161137e9190612daa565b50505060025f9054906101000a900473ffffffffffffffffffffffffffffffffffffffff1673ffffffffffffffffffffffffffffffffffffffff166378905bc2876040518060e001604052808681526020016040518060600160405280602d815260200161334c602d913981526020018981526020016040518060400160405280600181526020017f430000000000000000000000000000000000000000000000000000000000000081525081526020013073ffffffffffffffffffffffffffffffffffffffff1681526020018a73ffffffffffffffffffffffffffffffffffffffff16815260200160015f9054906101000a900473ffffffffffffffffffffffffffffffffffffffff1673ffffffffffffffffffffffffffffffffffffffff166395d89b416040518163ffffffff1660e01b81526004015f60405180830381865afa1580156114d0573d5f803e3d5ffd5b505050506040513d5f823e3d601f19601f820116820180604052508101906114f89190612b69565b8152506040518363ffffffff1660e01b8152600401611518929190613272565b5f604051808303815f87803b15801561152f575f80fd5b505af1158015611541573d5f803e3d5ffd5b505050507f84ab5b9da0c9f713409211eddd9c42ca07b48d00daf1845440b271a29aff45183387848860405161157a94939291906132a0565b60405180910390a1505050505050565b5f803373ffffffffffffffffffffffffffffffffffffffff1673ffffffffffffffffffffffffffffffffffffffff1681526020019081526020015f205f9054906101000a900460ff16611612576040517f08c379a000000000000000000000000000000000000000000000000000000000815260040161160990612f85565b60405180910390fd5b805f808473ffffffffffffffffffffffffffffffffffffffff1673ffffffffffffffffffffffffffffffffffffffff1681526020019081526020015f205f6101000a81548160ff0219169083151502179055505050565b60606005805480602002602001604051908101604052809291908181526020015f905b82821015611929578382905f5260205f2090600702016040518060e00160405290815f82015481526020016001820180546116c690612bdd565b80601f01602080910402602001604051908101604052809291908181526020018280546116f290612bdd565b801561173d5780601f106117145761010080835404028352916020019161173d565b820191905f5260205f20905b81548152906001019060200180831161172057829003601f168201915b505050505081526020016002820154815260200160038201805461176090612bdd565b80601f016020809104026020016040519081016040528092919081815260200182805461178c90612bdd565b80156117d75780601f106117ae576101008083540402835291602001916117d7565b820191905f5260205f20905b8154815290600101906020018083116117ba57829003601f168201915b50505050508152602001600482015f9054906101000a900473ffffffffffffffffffffffffffffffffffffffff1673ffffffffffffffffffffffffffffffffffffffff1673ffffffffffffffffffffffffffffffffffffffff168152602001600582015f9054906101000a900473ffffffffffffffffffffffffffffffffffffffff1673ffffffffffffffffffffffffffffffffffffffff1673ffffffffffffffffffffffffffffffffffffffff16815260200160068201805461189a90612bdd565b80601f01602080910402602001604051908101604052809291908181526020018280546118c690612bdd565b80156119115780601f106118e857610100808354040283529160200191611911565b820191905f5260205f20905b8154815290600101906020018083116118f457829003601f168201915b5050505050815250508152602001906001019061168c565b50505050905090565b5f803373ffffffffffffffffffffffffffffffffffffffff1673ffffffffffffffffffffffffffffffffffffffff1681526020019081526020015f205f9054906101000a900460ff166119ba576040517f08c379a00000000000000000000000000000000000000000000000000000000081526004016119b190612f85565b60405180910390fd5b5f6103e8426119c991906123f5565b905060015f9054906101000a900473ffffffffffffffffffffffffffffffffffffffff1673ffffffffffffffffffffffffffffffffffffffff166340c10f1930846040518363ffffffff1660e01b8152600401611a279291906124b9565b5f604051808303815f87803b158015611a3e575f80fd5b505af1158015611a50573d5f803e3d5ffd5b5050505060056040518060e001604052808381526020016040518060400160405280601981526020017f446570c3b37369746f206e6120436f6e7461204c617374726f0000000000000081525081526020018481526020016040518060400160405280600181526020017f430000000000000000000000000000000000000000000000000000000000000081525081526020015f73ffffffffffffffffffffffffffffffffffffffff1681526020013073ffffffffffffffffffffffffffffffffffffffff1681526020016040518060400160405280600281526020017f5224000000000000000000000000000000000000000000000000000000000000815250815250908060018154018082558091505060019003905f5260205f2090600702015f909190919091505f820151815f01556020820151816001019081611b979190612daa565b50604082015181600201556060820151816003019081611bb79190612daa565b506080820151816004015f6101000a81548173ffffffffffffffffffffffffffffffffffffffff021916908373ffffffffffffffffffffffffffffffffffffffff16021790555060a0820151816005015f6101000a81548173ffffffffffffffffffffffffffffffffffffffff021916908373ffffffffffffffffffffffffffffffffffffffff16021790555060c0820151816006019081611c599190612daa565b50505060056040518060e001604052808381526020016040518060600160405280602681526020016133e36026913981526020018481526020016040518060400160405280600181526020017f430000000000000000000000000000000000000000000000000000000000000081525081526020015f73ffffffffffffffffffffffffffffffffffffffff1681526020013073ffffffffffffffffffffffffffffffffffffffff16815260200160015f9054906101000a900473ffffffffffffffffffffffffffffffffffffffff1673ffffffffffffffffffffffffffffffffffffffff166395d89b416040518163ffffffff1660e01b81526004015f60405180830381865afa158015611d6f573d5f803e3d5ffd5b505050506040513d5f823e3d601f19601f82011682018060405250810190611d979190612b69565b815250908060018154018082558091505060019003905f5260205f2090600702015f909190919091505f820151815f01556020820151816001019081611ddd9190612daa565b50604082015181600201556060820151816003019081611dfd9190612daa565b506080820151816004015f6101000a81548173ffffffffffffffffffffffffffffffffffffffff021916908373ffffffffffffffffffffffffffffffffffffffff16021790555060a0820151816005015f6101000a81548173ffffffffffffffffffffffffffffffffffffffff021916908373ffffffffffffffffffffffffffffffffffffffff16021790555060c0820151816006019081611e9f9190612daa565b5050508160065f828254611eb391906132e3565b925050819055507f41a2ab1ce036886b25a16e7e14b07ca8dba8ca5e38d137ce6764a0036201d832338284604051611eed93929190613316565b60405180910390a15050565b5f600654905090565b5f604051905090565b5f80fd5b5f80fd5b5f73ffffffffffffffffffffffffffffffffffffffff82169050919050565b5f611f3c82611f13565b9050919050565b611f4c81611f32565b8114611f56575f80fd5b50565b5f81359050611f6781611f43565b92915050565b5f819050919050565b611f7f81611f6d565b8114611f89575f80fd5b50565b5f81359050611f9a81611f76565b92915050565b5f805f60608486031215611fb757611fb6611f0b565b5b5f611fc486828701611f59565b9350506020611fd586828701611f8c565b9250506040611fe686828701611f8c565b9150509250925092565b5f806040838503121561200657612005611f0b565b5b5f61201385828601611f59565b925050602061202485828601611f8c565b9150509250929050565b5f8115159050919050565b6120428161202e565b811461204c575f80fd5b50565b5f8135905061205d81612039565b92915050565b5f806040838503121561207957612078611f0b565b5b5f61208685828601611f59565b92505060206120978582860161204f565b9150509250929050565b5f81519050919050565b5f82825260208201905092915050565b5f819050602082019050919050565b6120d381611f6d565b82525050565b5f81519050919050565b5f82825260208201905092915050565b8281835e5f83830152505050565b5f601f19601f8301169050919050565b5f61211b826120d9565b61212581856120e3565b93506121358185602086016120f3565b61213e81612101565b840191505092915050565b61215281611f32565b82525050565b5f60e083015f83015161216d5f8601826120ca565b50602083015184820360208601526121858282612111565b915050604083015161219a60408601826120ca565b50606083015184820360608601526121b28282612111565b91505060808301516121c76080860182612149565b5060a08301516121da60a0860182612149565b5060c083015184820360c08601526121f28282612111565b9150508091505092915050565b5f61220a8383612158565b905092915050565b5f602082019050919050565b5f612228826120a1565b61223281856120ab565b935083602082028501612244856120bb565b805f5b8581101561227f578484038952815161226085826121ff565b945061226b83612212565b925060208a01995050600181019050612247565b50829750879550505050505092915050565b5f6020820190508181035f8301526122a9818461221e565b905092915050565b5f602082840312156122c6576122c5611f0b565b5b5f6122d384828501611f8c565b91505092915050565b6122e581611f6d565b82525050565b5f6020820190506122fe5f8301846122dc565b92915050565b5f82825260208201905092915050565b7f536f6d656e7465206f20636f6e747261746f20646f207061696e656c206465205f8201527f7365727669c3a76f20706f6465207265616c697a61722065737361206f70657260208201527f61c3a7c3a36f2e00000000000000000000000000000000000000000000000000604082015250565b5f612394604783612304565b915061239f82612314565b606082019050919050565b5f6020820190508181035f8301526123c181612388565b9050919050565b7f4e487b71000000000000000000000000000000000000000000000000000000005f52601160045260245ffd5b5f6123ff82611f6d565b915061240a83611f6d565b925082820261241881611f6d565b9150828204841483151761242f5761242e6123c8565b5b5092915050565b61243f81611f32565b82525050565b5f6060820190506124585f830186612436565b6124656020830185612436565b61247260408301846122dc565b949350505050565b5f8151905061248881612039565b92915050565b5f602082840312156124a3576124a2611f0b565b5b5f6124b08482850161247a565b91505092915050565b5f6040820190506124cc5f830185612436565b6124d960208301846122dc565b9392505050565b5f80fd5b7f4e487b71000000000000000000000000000000000000000000000000000000005f52604160045260245ffd5b61251a82612101565b810181811067ffffffffffffffff82111715612539576125386124e4565b5b80604052505050565b5f61254b611f02565b90506125578282612511565b919050565b5f80fd5b5f8151905061256e81611f76565b92915050565b5f80fd5b5f80fd5b5f67ffffffffffffffff821115612596576125956124e4565b5b61259f82612101565b9050602081019050919050565b5f6125be6125b98461257c565b612542565b9050828152602081018484840111156125da576125d9612578565b5b6125e58482856120f3565b509392505050565b5f82601f83011261260157612600612574565b5b81516126118482602086016125ac565b91505092915050565b5f8151905061262881611f43565b92915050565b6004811061263a575f80fd5b50565b5f8151905061264b8161262e565b92915050565b5f60a08284031215612666576126656124e0565b5b61267060a0612542565b90505f61267f84828501612560565b5f8301525060206126928482850161261a565b602083015250604082015167ffffffffffffffff8111156126b6576126b561255c565b5b6126c2848285016125ed565b60408301525060606126d68482850161261a565b60608301525060806126ea8482850161247a565b60808301525092915050565b5f60e0828403121561270b5761270a6124e0565b5b61271560e0612542565b90505f61272484828501612560565b5f83015250602082015167ffffffffffffffff8111156127475761274661255c565b5b612753848285016125ed565b602083015250604082015167ffffffffffffffff8111156127775761277661255c565b5b612783848285016125ed565b60408301525060606127978482850161261a565b60608301525060806127ab8482850161247a565b60808301525060a06127bf8482850161247a565b60a08301525060c06127d384828501612560565b60c08301525092915050565b5f61020082840312156127f5576127f46124e0565b5b612800610200612542565b90505f61280f84828501612560565b5f83015250602061282284828501612560565b602083015250604082015167ffffffffffffffff8111156128465761284561255c565b5b612852848285016125ed565b604083015250606082015167ffffffffffffffff8111156128765761287561255c565b5b612882848285016125ed565b606083015250608061289684828501612560565b60808301525060a06128aa8482850161261a565b60a08301525060c06128be8482850161261a565b60c08301525060e082015167ffffffffffffffff8111156128e2576128e161255c565b5b6128ee848285016125ed565b60e08301525061010082015167ffffffffffffffff8111156129135761291261255c565b5b61291f848285016125ed565b6101008301525061012082015167ffffffffffffffff8111156129455761294461255c565b5b612951848285016125ed565b610120830152506101406129678482850161247a565b6101408301525061016061297d8482850161263d565b6101608301525061018082015167ffffffffffffffff8111156129a3576129a261255c565b5b6129af84828501612651565b610180830152506101a082015167ffffffffffffffff8111156129d5576129d461255c565b5b6129e1848285016126f6565b6101a0830152506101c06129f78482850161247a565b6101c0830152506101e0612a0d8482850161247a565b6101e08301525092915050565b5f60208284031215612a2f57612a2e611f0b565b5b5f82015167ffffffffffffffff811115612a4c57612a4b611f0f565b5b612a58848285016127df565b91505092915050565b5f602082019050612a745f830184612436565b92915050565b5f60208284031215612a8f57612a8e611f0b565b5b5f82015167ffffffffffffffff811115612aac57612aab611f0f565b5b612ab8848285016126f6565b91505092915050565b5f81905092915050565b5f612ad5826120d9565b612adf8185612ac1565b9350612aef8185602086016120f3565b80840191505092915050565b5f612b068285612acb565b9150612b128284612acb565b91508190509392505050565b7f207c204578656375746f723a2000000000000000000000000000000000000000815250565b5f612b4f8284612acb565b9150612b5a82612b1e565b600d8201915081905092915050565b5f60208284031215612b7e57612b7d611f0b565b5b5f82015167ffffffffffffffff811115612b9b57612b9a611f0f565b5b612ba7848285016125ed565b91505092915050565b7f4e487b71000000000000000000000000000000000000000000000000000000005f52602260045260245ffd5b5f6002820490506001821680612bf457607f821691505b602082108103612c0757612c06612bb0565b5b50919050565b5f819050815f5260205f209050919050565b5f6020601f8301049050919050565b5f82821b905092915050565b5f60088302612c697fffffffffffffffffffffffffffffffffffffffffffffffffffffffffffffffff82612c2e565b612c738683612c2e565b95508019841693508086168417925050509392505050565b5f819050919050565b5f612cae612ca9612ca484611f6d565b612c8b565b611f6d565b9050919050565b5f819050919050565b612cc783612c94565b612cdb612cd382612cb5565b848454612c3a565b825550505050565b5f90565b612cef612ce3565b612cfa818484612cbe565b505050565b5b81811015612d1d57612d125f82612ce7565b600181019050612d00565b5050565b601f821115612d6257612d3381612c0d565b612d3c84612c1f565b81016020851015612d4b578190505b612d5f612d5785612c1f565b830182612cff565b50505b505050565b5f82821c905092915050565b5f612d825f1984600802612d67565b1980831691505092915050565b5f612d9a8383612d73565b9150826002028217905092915050565b612db3826120d9565b67ffffffffffffffff811115612dcc57612dcb6124e4565b5b612dd68254612bdd565b612de1828285612d21565b5f60209050601f831160018114612e12575f8415612e00578287015190505b612e0a8582612d8f565b865550612e71565b601f198416612e2086612c0d565b5f5b82811015612e4757848901518255600182019150602085019450602081019050612e22565b86831015612e645784890151612e60601f891682612d73565b8355505b6001600288020188555050505b505050505050565b5f612e8382611f6d565b9150612e8e83611f6d565b9250828203905081811115612ea657612ea56123c8565b5b92915050565b5f608082019050612ebf5f830187612436565b612ecc60208301866122dc565b612ed960408301856122dc565b612ee660608301846122dc565b95945050505050565b7f536f6d656e7465206f7320726573706f73c3a1766569732070656c6f20636f6e5f8201527f747261746f20646120436f6e7461204c617374726f20706f64656d207265616c60208201527f697a61722065737361206f70657261c3a7c3a36f2e0000000000000000000000604082015250565b5f612f6f605583612304565b9150612f7a82612eef565b606082019050919050565b5f6020820190508181035f830152612f9c81612f63565b9050919050565b5f60208284031215612fb857612fb7611f0b565b5b5f82015167ffffffffffffffff811115612fd557612fd4611f0f565b5b612fe184828501612651565b91505092915050565b7f4f20656e64657265c3a76f20696e666f726d61646f206465766520736572206f5f8201527f20646520756d6120736563726574617269612e00000000000000000000000000602082015250565b5f613044603383612304565b915061304f82612fea565b604082019050919050565b5f6020820190508181035f83015261307181613038565b9050919050565b5f60a0828403121561308d5761308c6124e0565b5b61309760a0612542565b90505f6130a684828501612560565b5f83015250602082015167ffffffffffffffff8111156130c9576130c861255c565b5b6130d5848285016125ed565b602083015250604082015167ffffffffffffffff8111156130f9576130f861255c565b5b613105848285016125ed565b60408301525060606131198482850161261a565b606083015250608061312d8482850161247a565b60808301525092915050565b5f6020828403121561314e5761314d611f0b565b5b5f82015167ffffffffffffffff81111561316b5761316a611f0f565b5b61317784828501613078565b91505092915050565b7f202d200000000000000000000000000000000000000000000000000000000000815250565b5f6131b18284612acb565b91506131bc82613180565b60038201915081905092915050565b5f60e083015f8301516131e05f8601826120ca565b50602083015184820360208601526131f88282612111565b915050604083015161320d60408601826120ca565b50606083015184820360608601526132258282612111565b915050608083015161323a6080860182612149565b5060a083015161324d60a0860182612149565b5060c083015184820360c08601526132658282612111565b9150508091505092915050565b5f6040820190506132855f830185612436565b818103602083015261329781846131cb565b90509392505050565b5f6080820190506132b35f830187612436565b6132c06020830186612436565b6132cd60408301856122dc565b6132da60608301846122dc565b95945050505050565b5f6132ed82611f6d565b91506132f883611f6d565b92508282019050808211156133105761330f6123c8565b5b92915050565b5f6060820190506133295f830186612436565b61333660208301856122dc565b61334360408301846122dc565b94935050505056fe5265636562696d656e746f206465205665726261202d20436f6e7461204c617374726f20646120556e69c3a36f536f6c6963697461c3a7c3a36f2064652052657061737365206465205365727669c3a76f207c205365727669c3a76f3a20517565696d6120646520546f6b656e2070617261205265616c697a61c3a7c3a36f2064652052657061737365207c205365727669c3a76f3a20446570c3b37369746f206e6120436f6e7461204c617374726f202d204d696e7420546f6b656ea2646970667358221220dad90631836bdc8d627483a5a0cfbfc8789f3e3c3a4a14166a1438e2d655b8db64736f6c634300081a0033",
  "immutableReferences": {},
  "source": "// SPDX-License-Identifier: MIT\npragma solidity ^0.8.0;\n\nimport \"./GovToken.sol\";\nimport \"./AgenteFederado.sol\";\nimport \"./PainelServico.sol\";\nimport \"./TiposComuns.sol\";\n\ncontract ContaLastro {\n    //Propriedades\n    mapping(address => bool) private _owners;\n\n    GovToken private _govToken;\n    AgenteFederado private _agenteFederado;\n    PainelServico private _painelServico;\n    Fornecedor private _fornecedor;\n\n    ExtratoInfo[] private _extrato;\n    uint256 private _saldo;\n\n    //Construtores\n    constructor(\n        GovToken govToken,\n        AgenteFederado agenteFederado,\n        PainelServico painelServico,\n        Fornecedor fornecedor\n    ) {\n        _owners[msg.sender] = true;\n        _govToken = govToken;\n        _agenteFederado = agenteFederado;\n        _painelServico = painelServico;\n        _fornecedor = fornecedor;\n        _saldo = 0;\n    }\n\n    //Modificadores\n    modifier onlyOwner() {\n        require(\n            _owners[msg.sender],\n            unicode\"Somente os resposveis pelo contrato da Conta Lastro podem realizar essa operao.\"\n        );\n        _;\n    }\n\n    modifier onlyServicePanel() {\n        require(\n            msg.sender == address(_painelServico),\n            unicode\"Somente o contrato do painel de servio pode realizar essa operao.\"\n        );\n        _;\n    }\n\n    //Eventos\n    event depositoRealizado(address sender, uint256 data, uint256 valor);\n    event transferenciaRealizada(\n        address sender,\n        address enderecoAgenteFederado,\n        uint256 data,\n        uint256 valor\n    );\n    event solicitacaoRepasseRealizada(\n        address fornecedor,\n        uint256 data,\n        uint256 valor,\n        uint256 idServico\n    );\n\n    //Funes\n    function setOwner(address owner, bool isOwner) public onlyOwner {\n        _owners[owner] = isOwner;\n    }\n\n    function consultarExtrato() public view returns (ExtratoInfo[] memory) {\n        return _extrato;\n    }\n\n    function consultarSaldo() public view returns (uint256) {\n        return _saldo;\n    }\n\n    function realizarDeposito(uint256 valor) public onlyOwner {\n        uint256 data = block.timestamp * 1000;\n\n        _govToken.mint(address(this), valor);\n\n        _extrato.push(\n            ExtratoInfo(\n                data,\n                unicode\"Depsito na Conta Lastro\",\n                valor,\n                \"C\",\n                address(0),\n                address(this),\n                \"R$\"\n            )\n        );\n\n        _extrato.push(\n            ExtratoInfo(\n                data,\n                unicode\"Depsito na Conta Lastro - Mint Token\",\n                valor,\n                \"C\",\n                address(0),\n                address(this),\n                _govToken.symbol()\n            )\n        );\n\n        _saldo += valor;\n\n        emit depositoRealizado(msg.sender, data, valor);\n    }\n\n    function transferirToken(\n        address enderecoSecretaria,\n        uint256 valor\n    ) public onlyOwner {\n        SecretariaInfo memory secretaria = _agenteFederado.obterSecretaria(\n            enderecoSecretaria\n        );\n\n        require(\n            secretaria.cadastrado,\n            unicode\"O endereo informado deve ser o de uma secretaria.\"\n        );\n\n        AgenteFederadoInfo memory agenteFederado = _agenteFederado\n            .obterAgenteFederado(secretaria.enderecoAgenteFederado);\n\n        uint256 data = block.timestamp * 1000;\n\n        _govToken.approve(address(this), valor);\n        _govToken.transfer(enderecoSecretaria, valor);\n\n        string memory descricaoExtrato = unicode\"Transferncia - \";\n        descricaoExtrato = string.concat(\n            descricaoExtrato,\n            agenteFederado.descricao\n        );\n        descricaoExtrato = string.concat(descricaoExtrato, \" - \");\n        descricaoExtrato = string.concat(\n            descricaoExtrato,\n            secretaria.descricao\n        );\n\n        _extrato.push(\n            ExtratoInfo(\n                data,\n                descricaoExtrato,\n                valor,\n                \"D\",\n                address(this),\n                enderecoSecretaria,\n                _govToken.symbol()\n            )\n        );\n\n        _agenteFederado.incluirLinhaExtrato(\n            enderecoSecretaria,\n            ExtratoInfo(\n                data,\n                unicode\"Recebimento de Verba - Conta Lastro da Unio\",\n                valor,\n                \"C\",\n                address(this),\n                enderecoSecretaria,\n                _govToken.symbol()\n            )\n        );\n\n        emit transferenciaRealizada(\n            msg.sender,\n            enderecoSecretaria,\n            data,\n            valor\n        );\n    }\n\n    function solicitarRepasse(\n        address enderecoFornecedor,\n        uint256 idServico,\n        uint256 valor\n    ) public onlyServicePanel {\n        uint256 data = block.timestamp * 1000;\n\n        _govToken.transferFrom(address(_painelServico), address(this), valor);\n\n        _govToken.approve(address(this), valor);\n        _govToken.burnFrom(address(this), valor);\n\n        ServicoInfo memory servico = _painelServico.obterServico(idServico);\n        FornecedorInfo memory fornecedor = _fornecedor.obterFornecedor(\n            servico.executor\n        );\n\n        string\n            memory descricaoExtrato = unicode\"Solicitao de Repasse de Servio | Servio: \";\n        descricaoExtrato = string.concat(\n            descricaoExtrato,\n            servico.descricaoResumida\n        );\n        descricaoExtrato = string.concat(descricaoExtrato, \" | Executor: \");\n        descricaoExtrato = string.concat(descricaoExtrato, fornecedor.nome);\n\n        _extrato.push(\n            ExtratoInfo(\n                data,\n                descricaoExtrato,\n                valor,\n                \"C\",\n                address(_painelServico),\n                address(this),\n                _govToken.symbol()\n            )\n        );\n\n        string\n            memory descricaoExtrato2 = unicode\"Queima de Token para Realizao de Repasse | Servio: \";\n        descricaoExtrato2 = string.concat(\n            descricaoExtrato2,\n            servico.descricaoResumida\n        );\n        descricaoExtrato2 = string.concat(descricaoExtrato2, \" | Executor: \");\n        descricaoExtrato2 = string.concat(descricaoExtrato2, fornecedor.nome);\n\n        _extrato.push(\n            ExtratoInfo(\n                data,\n                descricaoExtrato2,\n                valor,\n                \"D\",\n                address(this),\n                address(0),\n                _govToken.symbol()\n            )\n        );\n\n        string memory descricaoExtrato3 = unicode\"Repasse | Servio: \";\n        descricaoExtrato3 = string.concat(\n            descricaoExtrato3,\n            servico.descricaoResumida\n        );\n        descricaoExtrato3 = string.concat(descricaoExtrato3, \" | Executor: \");\n        descricaoExtrato3 = string.concat(descricaoExtrato3, fornecedor.nome);\n\n        _extrato.push(\n            ExtratoInfo(\n                data,\n                descricaoExtrato3,\n                valor,\n                \"D\",\n                address(this),\n                enderecoFornecedor,\n                \"R$\"\n            )\n        );\n\n        _saldo -= valor;\n\n        emit solicitacaoRepasseRealizada(\n            enderecoFornecedor,\n            data,\n            valor,\n            idServico\n        );\n    }\n}\n",
  "sourcePath": "/home/marlacabral/GovToken/Web.UI/Contratos/ContaLastro.sol",
  "compiler": {
    "name": "solc",
    "version": "0.8.26+commit.8a97fa7a.Emscripten.clang"
  },
  "schemaVersion": "3.4.8",
  "updatedAt": "2024-08-07T20:59:39.848Z",
  "networkType": "ethereum",
  "devdoc": {
    "kind": "dev",
    "methods": {},
    "version": 1
  },
  "userdoc": {
    "kind": "user",
    "methods": {},
    "version": 1
  }
}