{
  "contractName": "Fornecedor",
  "abi": [
    {
      "inputs": [],
      "stateMutability": "nonpayable",
      "type": "constructor"
    },
    {
      "inputs": [
        {
          "internalType": "address",
          "name": "owner",
          "type": "address"
        },
        {
          "internalType": "bool",
          "name": "isOwner",
          "type": "bool"
        }
      ],
      "name": "setOwner",
      "outputs": [],
      "stateMutability": "nonpayable",
      "type": "function"
    },
    {
      "inputs": [
        {
          "components": [
            {
              "internalType": "uint256",
              "name": "dataCadastro",
              "type": "uint256"
            },
            {
              "internalType": "string",
              "name": "uf",
              "type": "string"
            },
            {
              "internalType": "string",
              "name": "nome",
              "type": "string"
            },
            {
              "internalType": "address",
              "name": "enderecoCarteira",
              "type": "address"
            },
            {
              "internalType": "bool",
              "name": "cadastrado",
              "type": "bool"
            },
            {
              "internalType": "bool",
              "name": "aprovado",
              "type": "bool"
            },
            {
              "internalType": "uint256",
              "name": "dataAprovacao",
              "type": "uint256"
            }
          ],
          "internalType": "struct FornecedorInfo",
          "name": "fornecedor",
          "type": "tuple"
        }
      ],
      "name": "cadastrarFornecedor",
      "outputs": [],
      "stateMutability": "nonpayable",
      "type": "function"
    },
    {
      "inputs": [],
      "name": "listarFornecedores",
      "outputs": [
        {
          "components": [
            {
              "internalType": "uint256",
              "name": "dataCadastro",
              "type": "uint256"
            },
            {
              "internalType": "string",
              "name": "uf",
              "type": "string"
            },
            {
              "internalType": "string",
              "name": "nome",
              "type": "string"
            },
            {
              "internalType": "address",
              "name": "enderecoCarteira",
              "type": "address"
            },
            {
              "internalType": "bool",
              "name": "cadastrado",
              "type": "bool"
            },
            {
              "internalType": "bool",
              "name": "aprovado",
              "type": "bool"
            },
            {
              "internalType": "uint256",
              "name": "dataAprovacao",
              "type": "uint256"
            }
          ],
          "internalType": "struct FornecedorInfo[]",
          "name": "",
          "type": "tuple[]"
        }
      ],
      "stateMutability": "view",
      "type": "function",
      "constant": true
    },
    {
      "inputs": [
        {
          "internalType": "address",
          "name": "endereco",
          "type": "address"
        }
      ],
      "name": "obterFornecedor",
      "outputs": [
        {
          "components": [
            {
              "internalType": "uint256",
              "name": "dataCadastro",
              "type": "uint256"
            },
            {
              "internalType": "string",
              "name": "uf",
              "type": "string"
            },
            {
              "internalType": "string",
              "name": "nome",
              "type": "string"
            },
            {
              "internalType": "address",
              "name": "enderecoCarteira",
              "type": "address"
            },
            {
              "internalType": "bool",
              "name": "cadastrado",
              "type": "bool"
            },
            {
              "internalType": "bool",
              "name": "aprovado",
              "type": "bool"
            },
            {
              "internalType": "uint256",
              "name": "dataAprovacao",
              "type": "uint256"
            }
          ],
          "internalType": "struct FornecedorInfo",
          "name": "",
          "type": "tuple"
        }
      ],
      "stateMutability": "view",
      "type": "function",
      "constant": true
    },
    {
      "inputs": [
        {
          "internalType": "address",
          "name": "endereco",
          "type": "address"
        },
        {
          "components": [
            {
              "internalType": "uint256",
              "name": "data",
              "type": "uint256"
            },
            {
              "internalType": "string",
              "name": "descricao",
              "type": "string"
            },
            {
              "internalType": "uint256",
              "name": "valor",
              "type": "uint256"
            },
            {
              "internalType": "string",
              "name": "creditoDebito",
              "type": "string"
            },
            {
              "internalType": "address",
              "name": "origem",
              "type": "address"
            },
            {
              "internalType": "address",
              "name": "destino",
              "type": "address"
            },
            {
              "internalType": "string",
              "name": "simboloToken",
              "type": "string"
            }
          ],
          "internalType": "struct ExtratoInfo",
          "name": "extrato",
          "type": "tuple"
        }
      ],
      "name": "incluirLinhaExtrato",
      "outputs": [],
      "stateMutability": "nonpayable",
      "type": "function"
    },
    {
      "inputs": [
        {
          "internalType": "address",
          "name": "endereco",
          "type": "address"
        }
      ],
      "name": "consultarExtrato",
      "outputs": [
        {
          "components": [
            {
              "internalType": "uint256",
              "name": "data",
              "type": "uint256"
            },
            {
              "internalType": "string",
              "name": "descricao",
              "type": "string"
            },
            {
              "internalType": "uint256",
              "name": "valor",
              "type": "uint256"
            },
            {
              "internalType": "string",
              "name": "creditoDebito",
              "type": "string"
            },
            {
              "internalType": "address",
              "name": "origem",
              "type": "address"
            },
            {
              "internalType": "address",
              "name": "destino",
              "type": "address"
            },
            {
              "internalType": "string",
              "name": "simboloToken",
              "type": "string"
            }
          ],
          "internalType": "struct ExtratoInfo[]",
          "name": "",
          "type": "tuple[]"
        }
      ],
      "stateMutability": "view",
      "type": "function",
      "constant": true
    },
    {
      "inputs": [],
      "name": "listarFornecedoresAprovacaoPendente",
      "outputs": [
        {
          "components": [
            {
              "internalType": "uint256",
              "name": "dataCadastro",
              "type": "uint256"
            },
            {
              "internalType": "string",
              "name": "uf",
              "type": "string"
            },
            {
              "internalType": "string",
              "name": "nome",
              "type": "string"
            },
            {
              "internalType": "address",
              "name": "enderecoCarteira",
              "type": "address"
            },
            {
              "internalType": "bool",
              "name": "cadastrado",
              "type": "bool"
            },
            {
              "internalType": "bool",
              "name": "aprovado",
              "type": "bool"
            },
            {
              "internalType": "uint256",
              "name": "dataAprovacao",
              "type": "uint256"
            }
          ],
          "internalType": "struct FornecedorInfo[]",
          "name": "",
          "type": "tuple[]"
        }
      ],
      "stateMutability": "view",
      "type": "function",
      "constant": true
    },
    {
      "inputs": [
        {
          "internalType": "address",
          "name": "enderecoCarteira",
          "type": "address"
        }
      ],
      "name": "aprovarFornecedor",
      "outputs": [],
      "stateMutability": "nonpayable",
      "type": "function"
    }
  ],
  "bytecode": "0x6080604052348015600e575f80fd5b50600160045f3373ffffffffffffffffffffffffffffffffffffffff1673ffffffffffffffffffffffffffffffffffffffff1681526020019081526020015f205f6101000a81548160ff0219169083151502179055506124b6806100715f395ff3fe608060405234801561000f575f80fd5b5060043610610086575f3560e01c8063780409b311610059578063780409b31461011057806378905bc214610140578063a2254ad71461015c578063b58e22ee1461017857610086565b806312604c8c1461008a57806334803e3a146100a857806350dbaa2a146100d8578063516c731c146100f4575b5f80fd5b610092610196565b60405161009f9190611717565b60405180910390f35b6100c260048036038101906100bd9190611772565b610474565b6040516100cf919061183d565b60405180910390f35b6100f260048036038101906100ed9190611772565b610689565b005b61010e60048036038101906101099190611887565b610869565b005b61012a60048036038101906101259190611772565b610951565b6040516101379190611a27565b60405180910390f35b61015a60048036038101906101559190611caa565b610c57565b005b61017660048036038101906101719190611ded565b610ebe565b005b610180611147565b60405161018d9190611717565b60405180910390f35b60605f805467ffffffffffffffff8111156101b4576101b3611a4b565b5b6040519080825280602002602001820160405280156101ed57816020015b6101da611489565b8152602001906001900390816101d25790505b5090505f5b5f5481101561046c575f600282815481106102105761020f611e34565b5b905f5260205f20015f9054906101000a900473ffffffffffffffffffffffffffffffffffffffff16905060035f8273ffffffffffffffffffffffffffffffffffffffff1673ffffffffffffffffffffffffffffffffffffffff1681526020019081526020015f206040518060e00160405290815f820154815260200160018201805461029b90611e8e565b80601f01602080910402602001604051908101604052809291908181526020018280546102c790611e8e565b80156103125780601f106102e957610100808354040283529160200191610312565b820191905f5260205f20905b8154815290600101906020018083116102f557829003601f168201915b5050505050815260200160028201805461032b90611e8e565b80601f016020809104026020016040519081016040528092919081815260200182805461035790611e8e565b80156103a25780601f10610379576101008083540402835291602001916103a2565b820191905f5260205f20905b81548152906001019060200180831161038557829003601f168201915b50505050508152602001600382015f9054906101000a900473ffffffffffffffffffffffffffffffffffffffff1673ffffffffffffffffffffffffffffffffffffffff1673ffffffffffffffffffffffffffffffffffffffff1681526020016003820160149054906101000a900460ff161515151581526020016003820160159054906101000a900460ff1615151515815260200160048201548152505083838151811061045357610452611e34565b5b60200260200101819052505080806001019150506101f2565b508091505090565b61047c611489565b60035f8373ffffffffffffffffffffffffffffffffffffffff1673ffffffffffffffffffffffffffffffffffffffff1681526020019081526020015f206040518060e00160405290815f82015481526020016001820180546104dd90611e8e565b80601f016020809104026020016040519081016040528092919081815260200182805461050990611e8e565b80156105545780601f1061052b57610100808354040283529160200191610554565b820191905f5260205f20905b81548152906001019060200180831161053757829003601f168201915b5050505050815260200160028201805461056d90611e8e565b80601f016020809104026020016040519081016040528092919081815260200182805461059990611e8e565b80156105e45780601f106105bb576101008083540402835291602001916105e4565b820191905f5260205f20905b8154815290600101906020018083116105c757829003601f168201915b50505050508152602001600382015f9054906101000a900473ffffffffffffffffffffffffffffffffffffffff1673ffffffffffffffffffffffffffffffffffffffff1673ffffffffffffffffffffffffffffffffffffffff1681526020016003820160149054906101000a900460ff161515151581526020016003820160159054906101000a900460ff161515151581526020016004820154815250509050919050565b6001151560045f3373ffffffffffffffffffffffffffffffffffffffff1673ffffffffffffffffffffffffffffffffffffffff1681526020019081526020015f205f9054906101000a900460ff16151514610719576040517f08c379a000000000000000000000000000000000000000000000000000000000815260040161071090611f64565b60405180910390fd5b60035f3373ffffffffffffffffffffffffffffffffffffffff1673ffffffffffffffffffffffffffffffffffffffff1681526020019081526020015f2060030160159054906101000a900460ff16156107a7576040517f08c379a000000000000000000000000000000000000000000000000000000000815260040161079e90611ff2565b60405180910390fd5b6103e8426107b5919061203d565b60035f8373ffffffffffffffffffffffffffffffffffffffff1673ffffffffffffffffffffffffffffffffffffffff1681526020019081526020015f2060040181905550600160035f8373ffffffffffffffffffffffffffffffffffffffff1673ffffffffffffffffffffffffffffffffffffffff1681526020019081526020015f2060030160156101000a81548160ff02191690831515021790555060018054610860919061207e565b60018190555050565b6001151560045f3373ffffffffffffffffffffffffffffffffffffffff1673ffffffffffffffffffffffffffffffffffffffff1681526020019081526020015f205f9054906101000a900460ff161515146108f9576040517f08c379a00000000000000000000000000000000000000000000000000000000081526004016108f090611f64565b60405180910390fd5b8060045f8473ffffffffffffffffffffffffffffffffffffffff1673ffffffffffffffffffffffffffffffffffffffff1681526020019081526020015f205f6101000a81548160ff0219169083151502179055505050565b606060055f8373ffffffffffffffffffffffffffffffffffffffff1673ffffffffffffffffffffffffffffffffffffffff1681526020019081526020015f20805480602002602001604051908101604052809291908181526020015f905b82821015610c4c578382905f5260205f2090600702016040518060e00160405290815f82015481526020016001820180546109e990611e8e565b80601f0160208091040260200160405190810160405280929190818152602001828054610a1590611e8e565b8015610a605780601f10610a3757610100808354040283529160200191610a60565b820191905f5260205f20905b815481529060010190602001808311610a4357829003601f168201915b5050505050815260200160028201548152602001600382018054610a8390611e8e565b80601f0160208091040260200160405190810160405280929190818152602001828054610aaf90611e8e565b8015610afa5780601f10610ad157610100808354040283529160200191610afa565b820191905f5260205f20905b815481529060010190602001808311610add57829003601f168201915b50505050508152602001600482015f9054906101000a900473ffffffffffffffffffffffffffffffffffffffff1673ffffffffffffffffffffffffffffffffffffffff1673ffffffffffffffffffffffffffffffffffffffff168152602001600582015f9054906101000a900473ffffffffffffffffffffffffffffffffffffffff1673ffffffffffffffffffffffffffffffffffffffff1673ffffffffffffffffffffffffffffffffffffffff168152602001600682018054610bbd90611e8e565b80601f0160208091040260200160405190810160405280929190818152602001828054610be990611e8e565b8015610c345780601f10610c0b57610100808354040283529160200191610c34565b820191905f5260205f20905b815481529060010190602001808311610c1757829003601f168201915b505050505081525050815260200190600101906109af565b505050509050919050565b6001151560045f3373ffffffffffffffffffffffffffffffffffffffff1673ffffffffffffffffffffffffffffffffffffffff1681526020019081526020015f205f9054906101000a900460ff16151514610ce7576040517f08c379a0000000000000000000000000000000000000000000000000000000008152600401610cde90611f64565b60405180910390fd5b60035f8373ffffffffffffffffffffffffffffffffffffffff1673ffffffffffffffffffffffffffffffffffffffff1681526020019081526020015f2060030160149054906101000a900460ff16610d74576040517f08c379a0000000000000000000000000000000000000000000000000000000008152600401610d6b90612121565b60405180910390fd5b60055f8373ffffffffffffffffffffffffffffffffffffffff1673ffffffffffffffffffffffffffffffffffffffff1681526020019081526020015f2081908060018154018082558091505060019003905f5260205f2090600702015f909190919091505f820151815f01556020820151816001019081610df591906122dc565b50604082015181600201556060820151816003019081610e1591906122dc565b506080820151816004015f6101000a81548173ffffffffffffffffffffffffffffffffffffffff021916908373ffffffffffffffffffffffffffffffffffffffff16021790555060a0820151816005015f6101000a81548173ffffffffffffffffffffffffffffffffffffffff021916908373ffffffffffffffffffffffffffffffffffffffff16021790555060c0820151816006019081610eb791906122dc565b5050505050565b60035f3373ffffffffffffffffffffffffffffffffffffffff1673ffffffffffffffffffffffffffffffffffffffff1681526020019081526020015f2060030160149054906101000a900460ff1615610f4c576040517f08c379a0000000000000000000000000000000000000000000000000000000008152600401610f439061241b565b60405180910390fd5b6103e842610f5a919061203d565b815f01818152505033816060019073ffffffffffffffffffffffffffffffffffffffff16908173ffffffffffffffffffffffffffffffffffffffff168152505060018160800190151590811515815250505f8160c00181815250508060035f836060015173ffffffffffffffffffffffffffffffffffffffff1673ffffffffffffffffffffffffffffffffffffffff1681526020019081526020015f205f820151815f0155602082015181600101908161101491906122dc565b50604082015181600201908161102a91906122dc565b506060820151816003015f6101000a81548173ffffffffffffffffffffffffffffffffffffffff021916908373ffffffffffffffffffffffffffffffffffffffff16021790555060808201518160030160146101000a81548160ff02191690831515021790555060a08201518160030160156101000a81548160ff02191690831515021790555060c0820151816004015590505060028160600151908060018154018082558091505060019003905f5260205f20015f9091909190916101000a81548173ffffffffffffffffffffffffffffffffffffffff021916908373ffffffffffffffffffffffffffffffffffffffff1602179055506002805490505f8190555060015f81548092919061113f90612439565b919050555050565b60605f60015467ffffffffffffffff81111561116657611165611a4b565b5b60405190808252806020026020018201604052801561119f57816020015b61118c611489565b8152602001906001900390816111845790505b5090505f805b5f54811015611480575f600282815481106111c3576111c2611e34565b5b905f5260205f20015f9054906101000a900473ffffffffffffffffffffffffffffffffffffffff16905060035f8273ffffffffffffffffffffffffffffffffffffffff1673ffffffffffffffffffffffffffffffffffffffff1681526020019081526020015f2060030160159054906101000a900460ff166114725760035f8273ffffffffffffffffffffffffffffffffffffffff1673ffffffffffffffffffffffffffffffffffffffff1681526020019081526020015f206040518060e00160405290815f82015481526020016001820180546112a090611e8e565b80601f01602080910402602001604051908101604052809291908181526020018280546112cc90611e8e565b80156113175780601f106112ee57610100808354040283529160200191611317565b820191905f5260205f20905b8154815290600101906020018083116112fa57829003601f168201915b5050505050815260200160028201805461133090611e8e565b80601f016020809104026020016040519081016040528092919081815260200182805461135c90611e8e565b80156113a75780601f1061137e576101008083540402835291602001916113a7565b820191905f5260205f20905b81548152906001019060200180831161138a57829003601f168201915b50505050508152602001600382015f9054906101000a900473ffffffffffffffffffffffffffffffffffffffff1673ffffffffffffffffffffffffffffffffffffffff1673ffffffffffffffffffffffffffffffffffffffff1681526020016003820160149054906101000a900460ff161515151581526020016003820160159054906101000a900460ff1615151515815260200160048201548152505084848151811061145857611457611e34565b5b6020026020010181905250828061146e90612439565b9350505b5080806001019150506111a5565b50819250505090565b6040518060e001604052805f815260200160608152602001606081526020015f73ffffffffffffffffffffffffffffffffffffffff1681526020015f151581526020015f151581526020015f81525090565b5f81519050919050565b5f82825260208201905092915050565b5f819050602082019050919050565b5f819050919050565b61151681611504565b82525050565b5f81519050919050565b5f82825260208201905092915050565b8281835e5f83830152505050565b5f601f19601f8301169050919050565b5f61155e8261151c565b6115688185611526565b9350611578818560208601611536565b61158181611544565b840191505092915050565b5f73ffffffffffffffffffffffffffffffffffffffff82169050919050565b5f6115b58261158c565b9050919050565b6115c5816115ab565b82525050565b5f8115159050919050565b6115df816115cb565b82525050565b5f60e083015f8301516115fa5f86018261150d565b50602083015184820360208601526116128282611554565b9150506040830151848203604086015261162c8282611554565b915050606083015161164160608601826115bc565b50608083015161165460808601826115d6565b5060a083015161166760a08601826115d6565b5060c083015161167a60c086018261150d565b508091505092915050565b5f61169083836115e5565b905092915050565b5f602082019050919050565b5f6116ae826114db565b6116b881856114e5565b9350836020820285016116ca856114f5565b805f5b8581101561170557848403895281516116e68582611685565b94506116f183611698565b925060208a019950506001810190506116cd565b50829750879550505050505092915050565b5f6020820190508181035f83015261172f81846116a4565b905092915050565b5f604051905090565b5f80fd5b5f80fd5b611751816115ab565b811461175b575f80fd5b50565b5f8135905061176c81611748565b92915050565b5f6020828403121561178757611786611740565b5b5f6117948482850161175e565b91505092915050565b5f60e083015f8301516117b25f86018261150d565b50602083015184820360208601526117ca8282611554565b915050604083015184820360408601526117e48282611554565b91505060608301516117f960608601826115bc565b50608083015161180c60808601826115d6565b5060a083015161181f60a08601826115d6565b5060c083015161183260c086018261150d565b508091505092915050565b5f6020820190508181035f830152611855818461179d565b905092915050565b611866816115cb565b8114611870575f80fd5b50565b5f813590506118818161185d565b92915050565b5f806040838503121561189d5761189c611740565b5b5f6118aa8582860161175e565b92505060206118bb85828601611873565b9150509250929050565b5f81519050919050565b5f82825260208201905092915050565b5f819050602082019050919050565b5f60e083015f8301516119035f86018261150d565b506020830151848203602086015261191b8282611554565b9150506040830151611930604086018261150d565b50606083015184820360608601526119488282611554565b915050608083015161195d60808601826115bc565b5060a083015161197060a08601826115bc565b5060c083015184820360c08601526119888282611554565b9150508091505092915050565b5f6119a083836118ee565b905092915050565b5f602082019050919050565b5f6119be826118c5565b6119c881856118cf565b9350836020820285016119da856118df565b805f5b85811015611a1557848403895281516119f68582611995565b9450611a01836119a8565b925060208a019950506001810190506119dd565b50829750879550505050505092915050565b5f6020820190508181035f830152611a3f81846119b4565b905092915050565b5f80fd5b7f4e487b71000000000000000000000000000000000000000000000000000000005f52604160045260245ffd5b611a8182611544565b810181811067ffffffffffffffff82111715611aa057611a9f611a4b565b5b80604052505050565b5f611ab2611737565b9050611abe8282611a78565b919050565b5f80fd5b611ad081611504565b8114611ada575f80fd5b50565b5f81359050611aeb81611ac7565b92915050565b5f80fd5b5f80fd5b5f67ffffffffffffffff821115611b1357611b12611a4b565b5b611b1c82611544565b9050602081019050919050565b828183375f83830152505050565b5f611b49611b4484611af9565b611aa9565b905082815260208101848484011115611b6557611b64611af5565b5b611b70848285611b29565b509392505050565b5f82601f830112611b8c57611b8b611af1565b5b8135611b9c848260208601611b37565b91505092915050565b5f60e08284031215611bba57611bb9611a47565b5b611bc460e0611aa9565b90505f611bd384828501611add565b5f83015250602082013567ffffffffffffffff811115611bf657611bf5611ac3565b5b611c0284828501611b78565b6020830152506040611c1684828501611add565b604083015250606082013567ffffffffffffffff811115611c3a57611c39611ac3565b5b611c4684828501611b78565b6060830152506080611c5a8482850161175e565b60808301525060a0611c6e8482850161175e565b60a08301525060c082013567ffffffffffffffff811115611c9257611c91611ac3565b5b611c9e84828501611b78565b60c08301525092915050565b5f8060408385031215611cc057611cbf611740565b5b5f611ccd8582860161175e565b925050602083013567ffffffffffffffff811115611cee57611ced611744565b5b611cfa85828601611ba5565b9150509250929050565b5f60e08284031215611d1957611d18611a47565b5b611d2360e0611aa9565b90505f611d3284828501611add565b5f83015250602082013567ffffffffffffffff811115611d5557611d54611ac3565b5b611d6184828501611b78565b602083015250604082013567ffffffffffffffff811115611d8557611d84611ac3565b5b611d9184828501611b78565b6040830152506060611da58482850161175e565b6060830152506080611db984828501611873565b60808301525060a0611dcd84828501611873565b60a08301525060c0611de184828501611add565b60c08301525092915050565b5f60208284031215611e0257611e01611740565b5b5f82013567ffffffffffffffff811115611e1f57611e1e611744565b5b611e2b84828501611d04565b91505092915050565b7f4e487b71000000000000000000000000000000000000000000000000000000005f52603260045260245ffd5b7f4e487b71000000000000000000000000000000000000000000000000000000005f52602260045260245ffd5b5f6002820490506001821680611ea557607f821691505b602082108103611eb857611eb7611e61565b5b50919050565b5f82825260208201905092915050565b7f536f6d656e7465206f7320726573706f6e73c3a1766569732070656c6f20636f5f8201527f6e747261746f20646f20466f726e656365646f7220706f64656d207265616c6960208201527f7a61722065737361206f70657261c3a7c3a36f2e000000000000000000000000604082015250565b5f611f4e605483611ebe565b9150611f5982611ece565b606082019050919050565b5f6020820190508181035f830152611f7b81611f42565b9050919050565b7f4f20636164617374726f20646f20666f726e656365646f72206ac3a120666f695f8201527f206170726f7661646f20616e746572696f726d656e74652e0000000000000000602082015250565b5f611fdc603883611ebe565b9150611fe782611f82565b604082019050919050565b5f6020820190508181035f83015261200981611fd0565b9050919050565b7f4e487b71000000000000000000000000000000000000000000000000000000005f52601160045260245ffd5b5f61204782611504565b915061205283611504565b925082820261206081611504565b9150828204841483151761207757612076612010565b5b5092915050565b5f61208882611504565b915061209383611504565b92508282039050818111156120ab576120aa612010565b5b92915050565b7f4120636172746569726120646f206578747261746f20646576652073657220645f8201527f6520756d20666f726e656365646f722e00000000000000000000000000000000602082015250565b5f61210b603083611ebe565b9150612116826120b1565b604082019050919050565b5f6020820190508181035f830152612138816120ff565b9050919050565b5f819050815f5260205f209050919050565b5f6020601f8301049050919050565b5f82821b905092915050565b5f6008830261219b7fffffffffffffffffffffffffffffffffffffffffffffffffffffffffffffffff82612160565b6121a58683612160565b95508019841693508086168417925050509392505050565b5f819050919050565b5f6121e06121db6121d684611504565b6121bd565b611504565b9050919050565b5f819050919050565b6121f9836121c6565b61220d612205826121e7565b84845461216c565b825550505050565b5f90565b612221612215565b61222c8184846121f0565b505050565b5b8181101561224f576122445f82612219565b600181019050612232565b5050565b601f821115612294576122658161213f565b61226e84612151565b8101602085101561227d578190505b61229161228985612151565b830182612231565b50505b505050565b5f82821c905092915050565b5f6122b45f1984600802612299565b1980831691505092915050565b5f6122cc83836122a5565b9150826002028217905092915050565b6122e58261151c565b67ffffffffffffffff8111156122fe576122fd611a4b565b5b6123088254611e8e565b612313828285612253565b5f60209050601f831160018114612344575f8415612332578287015190505b61233c85826122c1565b8655506123a3565b601f1984166123528661213f565b5f5b8281101561237957848901518255600182019150602085019450602081019050612354565b868310156123965784890151612392601f8916826122a5565b8355505b6001600288020188555050505b505050505050565b7f4f20666f726e656365646f72206ac3a120736520656e636f6e747261206361645f8201527f6173747261646f2e000000000000000000000000000000000000000000000000602082015250565b5f612405602883611ebe565b9150612410826123ab565b604082019050919050565b5f6020820190508181035f830152612432816123f9565b9050919050565b5f61244382611504565b91507fffffffffffffffffffffffffffffffffffffffffffffffffffffffffffffffff820361247557612474612010565b5b60018201905091905056fea264697066735822122005ce00af8e010c2c416e075f900721598aecaa359895fbdff8737147b507a04d64736f6c634300081a0033",
  "immutableReferences": {},
  "source": "// SPDX-License-Identifier: MIT\npragma solidity ^0.8.0;\n\nimport \"./TiposComuns.sol\";\n\ncontract Fornecedor {\n    //Propriedades\n    uint256 private _qtdFornecedores;\n    uint256 private _qtdFornecedoresPendentesAprovacao;\n    address[] private _enderecosFornecedores;\n    mapping(address => FornecedorInfo) private _fornecedores;\n\n    mapping(address => bool) private _owners;\n    mapping(address => ExtratoInfo[]) private _extrato;\n\n    //Construtores\n    constructor() {\n        _owners[msg.sender] = true;\n    }\n\n    //Modificadores\n    modifier onlyOwner() {\n        require(\n            _owners[msg.sender] == true,\n            unicode\"Somente os responsveis pelo contrato do Fornecedor podem realizar essa operao.\"\n        );\n        _;\n    }\n\n    //Funes\n    function setOwner(address owner, bool isOwner) public onlyOwner {\n        _owners[owner] = isOwner;\n    }\n\n    function cadastrarFornecedor(FornecedorInfo memory fornecedor) public {\n        require(\n            !_fornecedores[msg.sender].cadastrado,\n            unicode\"O fornecedor j se encontra cadastrado.\"\n        );\n\n        fornecedor.dataCadastro = block.timestamp * 1000;\n        fornecedor.enderecoCarteira = msg.sender;\n        fornecedor.cadastrado = true;\n        fornecedor.dataAprovacao = 0;\n\n        _fornecedores[fornecedor.enderecoCarteira] = fornecedor;\n        _enderecosFornecedores.push(fornecedor.enderecoCarteira);\n        _qtdFornecedores = _enderecosFornecedores.length;\n\n        _qtdFornecedoresPendentesAprovacao++;\n    }\n\n    function listarFornecedores()\n        public\n        view\n        returns (FornecedorInfo[] memory)\n    {\n        FornecedorInfo[] memory fornecedores = new FornecedorInfo[](\n            _qtdFornecedores\n        );\n\n        for (uint256 i = 0; i < _qtdFornecedores; i++) {\n            address endereco = _enderecosFornecedores[i];\n            fornecedores[i] = _fornecedores[endereco];\n        }\n\n        return fornecedores;\n    }\n\n    function obterFornecedor(\n        address endereco\n    ) public view returns (FornecedorInfo memory) {\n        return _fornecedores[endereco];\n    }\n\n    function incluirLinhaExtrato(\n        address endereco,\n        ExtratoInfo memory extrato\n    ) public onlyOwner {\n        require(\n            _fornecedores[endereco].cadastrado,\n            \"A carteira do extrato deve ser de um fornecedor.\"\n        );\n        _extrato[endereco].push(extrato);\n    }\n\n    function consultarExtrato(\n        address endereco\n    ) public view returns (ExtratoInfo[] memory) {\n        return _extrato[endereco];\n    }\n\n    function listarFornecedoresAprovacaoPendente()\n        public\n        view\n        returns (FornecedorInfo[] memory)\n    {\n        FornecedorInfo[] memory fornecedores = new FornecedorInfo[](\n            _qtdFornecedoresPendentesAprovacao\n        );\n\n        uint256 j = 0;\n        for (uint256 i = 0; i < _qtdFornecedores; i++) {\n            address endereco = _enderecosFornecedores[i];\n\n            if (!_fornecedores[endereco].aprovado) {\n                fornecedores[j] = _fornecedores[endereco];\n                j++;\n            }\n        }\n\n        return fornecedores;\n    }\n\n    function aprovarFornecedor(address enderecoCarteira) public onlyOwner {\n        require(\n            !_fornecedores[msg.sender].aprovado,\n            unicode\"O cadastro do fornecedor j foi aprovado anteriormente.\"\n        );\n\n        _fornecedores[enderecoCarteira].dataAprovacao = block.timestamp * 1000;\n        _fornecedores[enderecoCarteira].aprovado = true;\n\n        _qtdFornecedoresPendentesAprovacao =\n            _qtdFornecedoresPendentesAprovacao -\n            1;\n    }\n}\n",
  "sourcePath": "/home/marlacabral/GovToken/Web.UI/Contratos/Fornecedor.sol",
  "compiler": {
    "name": "solc",
    "version": "0.8.26+commit.8a97fa7a.Emscripten.clang"
  },
  "schemaVersion": "3.4.8",
  "updatedAt": "2024-08-07T20:59:39.834Z",
  "networkType": "ethereum",
  "devdoc": {
    "kind": "dev",
    "methods": {},
    "version": 1
  },
  "userdoc": {
    "kind": "user",
    "methods": {},
    "version": 1
  }
}