{
  "contractName": "GovToken",
  "abi": [
    {
      "inputs": [],
      "stateMutability": "nonpayable",
      "type": "constructor"
    },
    {
      "anonymous": false,
      "inputs": [
        {
          "indexed": true,
          "internalType": "address",
          "name": "owner",
          "type": "address"
        },
        {
          "indexed": true,
          "internalType": "address",
          "name": "spender",
          "type": "address"
        },
        {
          "indexed": false,
          "internalType": "uint256",
          "name": "value",
          "type": "uint256"
        }
      ],
      "name": "Approval",
      "type": "event"
    },
    {
      "anonymous": false,
      "inputs": [
        {
          "indexed": true,
          "internalType": "address",
          "name": "from",
          "type": "address"
        },
        {
          "indexed": true,
          "internalType": "address",
          "name": "to",
          "type": "address"
        },
        {
          "indexed": false,
          "internalType": "uint256",
          "name": "value",
          "type": "uint256"
        }
      ],
      "name": "Transfer",
      "type": "event"
    },
    {
      "inputs": [],
      "name": "_mintOwner",
      "outputs": [
        {
          "internalType": "address",
          "name": "",
          "type": "address"
        }
      ],
      "stateMutability": "view",
      "type": "function",
      "constant": true
    },
    {
      "inputs": [],
      "name": "_owner",
      "outputs": [
        {
          "internalType": "address",
          "name": "",
          "type": "address"
        }
      ],
      "stateMutability": "view",
      "type": "function",
      "constant": true
    },
    {
      "inputs": [
        {
          "internalType": "address",
          "name": "owner",
          "type": "address"
        },
        {
          "internalType": "address",
          "name": "spender",
          "type": "address"
        }
      ],
      "name": "allowance",
      "outputs": [
        {
          "internalType": "uint256",
          "name": "",
          "type": "uint256"
        }
      ],
      "stateMutability": "view",
      "type": "function",
      "constant": true
    },
    {
      "inputs": [
        {
          "internalType": "address",
          "name": "spender",
          "type": "address"
        },
        {
          "internalType": "uint256",
          "name": "amount",
          "type": "uint256"
        }
      ],
      "name": "approve",
      "outputs": [
        {
          "internalType": "bool",
          "name": "",
          "type": "bool"
        }
      ],
      "stateMutability": "nonpayable",
      "type": "function"
    },
    {
      "inputs": [
        {
          "internalType": "address",
          "name": "account",
          "type": "address"
        }
      ],
      "name": "balanceOf",
      "outputs": [
        {
          "internalType": "uint256",
          "name": "",
          "type": "uint256"
        }
      ],
      "stateMutability": "view",
      "type": "function",
      "constant": true
    },
    {
      "inputs": [
        {
          "internalType": "uint256",
          "name": "amount",
          "type": "uint256"
        }
      ],
      "name": "burn",
      "outputs": [],
      "stateMutability": "nonpayable",
      "type": "function"
    },
    {
      "inputs": [
        {
          "internalType": "address",
          "name": "account",
          "type": "address"
        },
        {
          "internalType": "uint256",
          "name": "amount",
          "type": "uint256"
        }
      ],
      "name": "burnFrom",
      "outputs": [],
      "stateMutability": "nonpayable",
      "type": "function"
    },
    {
      "inputs": [
        {
          "internalType": "address",
          "name": "spender",
          "type": "address"
        },
        {
          "internalType": "uint256",
          "name": "subtractedValue",
          "type": "uint256"
        }
      ],
      "name": "decreaseAllowance",
      "outputs": [
        {
          "internalType": "bool",
          "name": "",
          "type": "bool"
        }
      ],
      "stateMutability": "nonpayable",
      "type": "function"
    },
    {
      "inputs": [
        {
          "internalType": "address",
          "name": "spender",
          "type": "address"
        },
        {
          "internalType": "uint256",
          "name": "addedValue",
          "type": "uint256"
        }
      ],
      "name": "increaseAllowance",
      "outputs": [
        {
          "internalType": "bool",
          "name": "",
          "type": "bool"
        }
      ],
      "stateMutability": "nonpayable",
      "type": "function"
    },
    {
      "inputs": [],
      "name": "name",
      "outputs": [
        {
          "internalType": "string",
          "name": "",
          "type": "string"
        }
      ],
      "stateMutability": "view",
      "type": "function",
      "constant": true
    },
    {
      "inputs": [],
      "name": "symbol",
      "outputs": [
        {
          "internalType": "string",
          "name": "",
          "type": "string"
        }
      ],
      "stateMutability": "view",
      "type": "function",
      "constant": true
    },
    {
      "inputs": [],
      "name": "totalSupply",
      "outputs": [
        {
          "internalType": "uint256",
          "name": "",
          "type": "uint256"
        }
      ],
      "stateMutability": "view",
      "type": "function",
      "constant": true
    },
    {
      "inputs": [
        {
          "internalType": "address",
          "name": "to",
          "type": "address"
        },
        {
          "internalType": "uint256",
          "name": "amount",
          "type": "uint256"
        }
      ],
      "name": "transfer",
      "outputs": [
        {
          "internalType": "bool",
          "name": "",
          "type": "bool"
        }
      ],
      "stateMutability": "nonpayable",
      "type": "function"
    },
    {
      "inputs": [
        {
          "internalType": "address",
          "name": "from",
          "type": "address"
        },
        {
          "internalType": "address",
          "name": "to",
          "type": "address"
        },
        {
          "internalType": "uint256",
          "name": "amount",
          "type": "uint256"
        }
      ],
      "name": "transferFrom",
      "outputs": [
        {
          "internalType": "bool",
          "name": "",
          "type": "bool"
        }
      ],
      "stateMutability": "nonpayable",
      "type": "function"
    },
    {
      "inputs": [
        {
          "internalType": "address",
          "name": "mintOwner",
          "type": "address"
        }
      ],
      "name": "setMintOwner",
      "outputs": [],
      "stateMutability": "nonpayable",
      "type": "function"
    },
    {
      "inputs": [
        {
          "internalType": "address",
          "name": "to",
          "type": "address"
        },
        {
          "internalType": "uint256",
          "name": "amount",
          "type": "uint256"
        }
      ],
      "name": "mint",
      "outputs": [],
      "stateMutability": "nonpayable",
      "type": "function"
    },
    {
      "inputs": [],
      "name": "decimals",
      "outputs": [
        {
          "internalType": "uint8",
          "name": "",
          "type": "uint8"
        }
      ],
      "stateMutability": "view",
      "type": "function",
      "constant": true
    }
  ],
  "bytecode": "0x608060405234801561000f575f80fd5b506040518060400160405280600881526020017f476f76546f6b656e0000000000000000000000000000000000000000000000008152506040518060400160405280600381526020017f4776540000000000000000000000000000000000000000000000000000000000815250816003908161008b919061035d565b50806004908161009b919061035d565b5050503360055f6101000a81548173ffffffffffffffffffffffffffffffffffffffff021916908373ffffffffffffffffffffffffffffffffffffffff1602179055503360065f6101000a81548173ffffffffffffffffffffffffffffffffffffffff021916908373ffffffffffffffffffffffffffffffffffffffff16021790555061042c565b5f81519050919050565b7f4e487b71000000000000000000000000000000000000000000000000000000005f52604160045260245ffd5b7f4e487b71000000000000000000000000000000000000000000000000000000005f52602260045260245ffd5b5f600282049050600182168061019e57607f821691505b6020821081036101b1576101b061015a565b5b50919050565b5f819050815f5260205f209050919050565b5f6020601f8301049050919050565b5f82821b905092915050565b5f600883026102137fffffffffffffffffffffffffffffffffffffffffffffffffffffffffffffffff826101d8565b61021d86836101d8565b95508019841693508086168417925050509392505050565b5f819050919050565b5f819050919050565b5f61026161025c61025784610235565b61023e565b610235565b9050919050565b5f819050919050565b61027a83610247565b61028e61028682610268565b8484546101e4565b825550505050565b5f90565b6102a2610296565b6102ad818484610271565b505050565b5b818110156102d0576102c55f8261029a565b6001810190506102b3565b5050565b601f821115610315576102e6816101b7565b6102ef846101c9565b810160208510156102fe578190505b61031261030a856101c9565b8301826102b2565b50505b505050565b5f82821c905092915050565b5f6103355f198460080261031a565b1980831691505092915050565b5f61034d8383610326565b9150826002028217905092915050565b61036682610123565b67ffffffffffffffff81111561037f5761037e61012d565b5b6103898254610187565b6103948282856102d4565b5f60209050601f8311600181146103c5575f84156103b3578287015190505b6103bd8582610342565b865550610424565b601f1984166103d3866101b7565b5f5b828110156103fa578489015182556001820191506020850194506020810190506103d5565b868310156104175784890151610413601f891682610326565b8355505b6001600288020188555050505b505050505050565b61191e806104395f395ff3fe608060405234801561000f575f80fd5b5060043610610109575f3560e01c806370a08231116100a0578063a457c2d71161006f578063a457c2d7146102b7578063a9059cbb146102e7578063b042d63114610317578063b2bdfa7b14610333578063dd62ed3e1461035157610109565b806370a082311461022f57806379cc67901461025f5780638f4ddb501461027b57806395d89b411461029957610109565b8063313ce567116100dc578063313ce567146101a957806339509351146101c757806340c10f19146101f757806342966c681461021357610109565b806306fdde031461010d578063095ea7b31461012b57806318160ddd1461015b57806323b872dd14610179575b5f80fd5b610115610381565b6040516101229190611061565b60405180910390f35b61014560048036038101906101409190611112565b610411565b604051610152919061116a565b60405180910390f35b610163610433565b6040516101709190611192565b60405180910390f35b610193600480360381019061018e91906111ab565b61043c565b6040516101a0919061116a565b60405180910390f35b6101b161046a565b6040516101be9190611216565b60405180910390f35b6101e160048036038101906101dc9190611112565b610472565b6040516101ee919061116a565b60405180910390f35b610211600480360381019061020c9190611112565b6104a8565b005b61022d6004803603810190610228919061122f565b61050e565b005b6102496004803603810190610244919061125a565b610522565b6040516102569190611192565b60405180910390f35b61027960048036038101906102749190611112565b610567565b005b610283610587565b6040516102909190611294565b60405180910390f35b6102a16105ac565b6040516102ae9190611061565b60405180910390f35b6102d160048036038101906102cc9190611112565b61063c565b6040516102de919061116a565b60405180910390f35b61030160048036038101906102fc9190611112565b6106b1565b60405161030e919061116a565b60405180910390f35b610331600480360381019061032c919061125a565b6106d3565b005b61033b61076e565b6040516103489190611294565b60405180910390f35b61036b600480360381019061036691906112ad565b610793565b6040516103789190611192565b60405180910390f35b60606003805461039090611318565b80601f01602080910402602001604051908101604052809291908181526020018280546103bc90611318565b80156104075780601f106103de57610100808354040283529160200191610407565b820191905f5260205f20905b8154815290600101906020018083116103ea57829003601f168201915b5050505050905090565b5f8061041b610815565b905061042881858561081c565b600191505092915050565b5f600254905090565b5f80610446610815565b90506104538582856109df565b61045e858585610a6a565b60019150509392505050565b5f6002905090565b5f8061047c610815565b905061049d81858561048e8589610793565b6104989190611375565b61081c565b600191505092915050565b60065f9054906101000a900473ffffffffffffffffffffffffffffffffffffffff1673ffffffffffffffffffffffffffffffffffffffff163373ffffffffffffffffffffffffffffffffffffffff1614610500575f80fd5b61050a8282610cd6565b5050565b61051f610519610815565b82610e24565b50565b5f805f8373ffffffffffffffffffffffffffffffffffffffff1673ffffffffffffffffffffffffffffffffffffffff1681526020019081526020015f20549050919050565b61057982610573610815565b836109df565b6105838282610e24565b5050565b60065f9054906101000a900473ffffffffffffffffffffffffffffffffffffffff1681565b6060600480546105bb90611318565b80601f01602080910402602001604051908101604052809291908181526020018280546105e790611318565b80156106325780601f1061060957610100808354040283529160200191610632565b820191905f5260205f20905b81548152906001019060200180831161061557829003601f168201915b5050505050905090565b5f80610646610815565b90505f6106538286610793565b905083811015610698576040517f08c379a000000000000000000000000000000000000000000000000000000000815260040161068f90611418565b60405180910390fd5b6106a5828686840361081c565b60019250505092915050565b5f806106bb610815565b90506106c8818585610a6a565b600191505092915050565b60055f9054906101000a900473ffffffffffffffffffffffffffffffffffffffff1673ffffffffffffffffffffffffffffffffffffffff163373ffffffffffffffffffffffffffffffffffffffff161461072b575f80fd5b8060065f6101000a81548173ffffffffffffffffffffffffffffffffffffffff021916908373ffffffffffffffffffffffffffffffffffffffff16021790555050565b60055f9054906101000a900473ffffffffffffffffffffffffffffffffffffffff1681565b5f60015f8473ffffffffffffffffffffffffffffffffffffffff1673ffffffffffffffffffffffffffffffffffffffff1681526020019081526020015f205f8373ffffffffffffffffffffffffffffffffffffffff1673ffffffffffffffffffffffffffffffffffffffff1681526020019081526020015f2054905092915050565b5f33905090565b5f73ffffffffffffffffffffffffffffffffffffffff168373ffffffffffffffffffffffffffffffffffffffff160361088a576040517f08c379a0000000000000000000000000000000000000000000000000000000008152600401610881906114a6565b60405180910390fd5b5f73ffffffffffffffffffffffffffffffffffffffff168273ffffffffffffffffffffffffffffffffffffffff16036108f8576040517f08c379a00000000000000000000000000000000000000000000000000000000081526004016108ef90611534565b60405180910390fd5b8060015f8573ffffffffffffffffffffffffffffffffffffffff1673ffffffffffffffffffffffffffffffffffffffff1681526020019081526020015f205f8473ffffffffffffffffffffffffffffffffffffffff1673ffffffffffffffffffffffffffffffffffffffff1681526020019081526020015f20819055508173ffffffffffffffffffffffffffffffffffffffff168373ffffffffffffffffffffffffffffffffffffffff167f8c5be1e5ebec7d5bd14f71427d1e84f3dd0314c0f7b2291e5b200ac8c7c3b925836040516109d29190611192565b60405180910390a3505050565b5f6109ea8484610793565b90507fffffffffffffffffffffffffffffffffffffffffffffffffffffffffffffffff8114610a645781811015610a56576040517f08c379a0000000000000000000000000000000000000000000000000000000008152600401610a4d9061159c565b60405180910390fd5b610a63848484840361081c565b5b50505050565b5f73ffffffffffffffffffffffffffffffffffffffff168373ffffffffffffffffffffffffffffffffffffffff1603610ad8576040517f08c379a0000000000000000000000000000000000000000000000000000000008152600401610acf9061162a565b60405180910390fd5b5f73ffffffffffffffffffffffffffffffffffffffff168273ffffffffffffffffffffffffffffffffffffffff1603610b46576040517f08c379a0000000000000000000000000000000000000000000000000000000008152600401610b3d906116b8565b60405180910390fd5b610b51838383610fe7565b5f805f8573ffffffffffffffffffffffffffffffffffffffff1673ffffffffffffffffffffffffffffffffffffffff1681526020019081526020015f2054905081811015610bd4576040517f08c379a0000000000000000000000000000000000000000000000000000000008152600401610bcb90611746565b60405180910390fd5b8181035f808673ffffffffffffffffffffffffffffffffffffffff1673ffffffffffffffffffffffffffffffffffffffff1681526020019081526020015f2081905550815f808573ffffffffffffffffffffffffffffffffffffffff1673ffffffffffffffffffffffffffffffffffffffff1681526020019081526020015f205f82825401925050819055508273ffffffffffffffffffffffffffffffffffffffff168473ffffffffffffffffffffffffffffffffffffffff167fddf252ad1be2c89b69c2b068fc378daa952ba7f163c4a11628f55a4df523b3ef84604051610cbd9190611192565b60405180910390a3610cd0848484610fec565b50505050565b5f73ffffffffffffffffffffffffffffffffffffffff168273ffffffffffffffffffffffffffffffffffffffff1603610d44576040517f08c379a0000000000000000000000000000000000000000000000000000000008152600401610d3b906117ae565b60405180910390fd5b610d4f5f8383610fe7565b8060025f828254610d609190611375565b92505081905550805f808473ffffffffffffffffffffffffffffffffffffffff1673ffffffffffffffffffffffffffffffffffffffff1681526020019081526020015f205f82825401925050819055508173ffffffffffffffffffffffffffffffffffffffff165f73ffffffffffffffffffffffffffffffffffffffff167fddf252ad1be2c89b69c2b068fc378daa952ba7f163c4a11628f55a4df523b3ef83604051610e0d9190611192565b60405180910390a3610e205f8383610fec565b5050565b5f73ffffffffffffffffffffffffffffffffffffffff168273ffffffffffffffffffffffffffffffffffffffff1603610e92576040517f08c379a0000000000000000000000000000000000000000000000000000000008152600401610e899061183c565b60405180910390fd5b610e9d825f83610fe7565b5f805f8473ffffffffffffffffffffffffffffffffffffffff1673ffffffffffffffffffffffffffffffffffffffff1681526020019081526020015f2054905081811015610f20576040517f08c379a0000000000000000000000000000000000000000000000000000000008152600401610f17906118ca565b60405180910390fd5b8181035f808573ffffffffffffffffffffffffffffffffffffffff1673ffffffffffffffffffffffffffffffffffffffff1681526020019081526020015f20819055508160025f82825403925050819055505f73ffffffffffffffffffffffffffffffffffffffff168373ffffffffffffffffffffffffffffffffffffffff167fddf252ad1be2c89b69c2b068fc378daa952ba7f163c4a11628f55a4df523b3ef84604051610fcf9190611192565b60405180910390a3610fe2835f84610fec565b505050565b505050565b505050565b5f81519050919050565b5f82825260208201905092915050565b8281835e5f83830152505050565b5f601f19601f8301169050919050565b5f61103382610ff1565b61103d8185610ffb565b935061104d81856020860161100b565b61105681611019565b840191505092915050565b5f6020820190508181035f8301526110798184611029565b905092915050565b5f80fd5b5f73ffffffffffffffffffffffffffffffffffffffff82169050919050565b5f6110ae82611085565b9050919050565b6110be816110a4565b81146110c8575f80fd5b50565b5f813590506110d9816110b5565b92915050565b5f819050919050565b6110f1816110df565b81146110fb575f80fd5b50565b5f8135905061110c816110e8565b92915050565b5f806040838503121561112857611127611081565b5b5f611135858286016110cb565b9250506020611146858286016110fe565b9150509250929050565b5f8115159050919050565b61116481611150565b82525050565b5f60208201905061117d5f83018461115b565b92915050565b61118c816110df565b82525050565b5f6020820190506111a55f830184611183565b92915050565b5f805f606084860312156111c2576111c1611081565b5b5f6111cf868287016110cb565b93505060206111e0868287016110cb565b92505060406111f1868287016110fe565b9150509250925092565b5f60ff82169050919050565b611210816111fb565b82525050565b5f6020820190506112295f830184611207565b92915050565b5f6020828403121561124457611243611081565b5b5f611251848285016110fe565b91505092915050565b5f6020828403121561126f5761126e611081565b5b5f61127c848285016110cb565b91505092915050565b61128e816110a4565b82525050565b5f6020820190506112a75f830184611285565b92915050565b5f80604083850312156112c3576112c2611081565b5b5f6112d0858286016110cb565b92505060206112e1858286016110cb565b9150509250929050565b7f4e487b71000000000000000000000000000000000000000000000000000000005f52602260045260245ffd5b5f600282049050600182168061132f57607f821691505b602082108103611342576113416112eb565b5b50919050565b7f4e487b71000000000000000000000000000000000000000000000000000000005f52601160045260245ffd5b5f61137f826110df565b915061138a836110df565b92508282019050808211156113a2576113a1611348565b5b92915050565b7f45524332303a2064656372656173656420616c6c6f77616e63652062656c6f775f8201527f207a65726f000000000000000000000000000000000000000000000000000000602082015250565b5f611402602583610ffb565b915061140d826113a8565b604082019050919050565b5f6020820190508181035f83015261142f816113f6565b9050919050565b7f45524332303a20617070726f76652066726f6d20746865207a65726f206164645f8201527f7265737300000000000000000000000000000000000000000000000000000000602082015250565b5f611490602483610ffb565b915061149b82611436565b604082019050919050565b5f6020820190508181035f8301526114bd81611484565b9050919050565b7f45524332303a20617070726f766520746f20746865207a65726f2061646472655f8201527f7373000000000000000000000000000000000000000000000000000000000000602082015250565b5f61151e602283610ffb565b9150611529826114c4565b604082019050919050565b5f6020820190508181035f83015261154b81611512565b9050919050565b7f45524332303a20696e73756666696369656e7420616c6c6f77616e63650000005f82015250565b5f611586601d83610ffb565b915061159182611552565b602082019050919050565b5f6020820190508181035f8301526115b38161157a565b9050919050565b7f45524332303a207472616e736665722066726f6d20746865207a65726f2061645f8201527f6472657373000000000000000000000000000000000000000000000000000000602082015250565b5f611614602583610ffb565b915061161f826115ba565b604082019050919050565b5f6020820190508181035f83015261164181611608565b9050919050565b7f45524332303a207472616e7366657220746f20746865207a65726f20616464725f8201527f6573730000000000000000000000000000000000000000000000000000000000602082015250565b5f6116a2602383610ffb565b91506116ad82611648565b604082019050919050565b5f6020820190508181035f8301526116cf81611696565b9050919050565b7f45524332303a207472616e7366657220616d6f756e74206578636565647320625f8201527f616c616e63650000000000000000000000000000000000000000000000000000602082015250565b5f611730602683610ffb565b915061173b826116d6565b604082019050919050565b5f6020820190508181035f83015261175d81611724565b9050919050565b7f45524332303a206d696e7420746f20746865207a65726f2061646472657373005f82015250565b5f611798601f83610ffb565b91506117a382611764565b602082019050919050565b5f6020820190508181035f8301526117c58161178c565b9050919050565b7f45524332303a206275726e2066726f6d20746865207a65726f206164647265735f8201527f7300000000000000000000000000000000000000000000000000000000000000602082015250565b5f611826602183610ffb565b9150611831826117cc565b604082019050919050565b5f6020820190508181035f8301526118538161181a565b9050919050565b7f45524332303a206275726e20616d6f756e7420657863656564732062616c616e5f8201527f6365000000000000000000000000000000000000000000000000000000000000602082015250565b5f6118b4602283610ffb565b91506118bf8261185a565b604082019050919050565b5f6020820190508181035f8301526118e1816118a8565b905091905056fea264697066735822122020c45fe162c408352c22285aa935a9655e4e642e705ce6c52600feb05762834764736f6c634300081a0033",
  "immutableReferences": {},
  "source": "// SPDX-License-Identifier: MIT\npragma solidity ^0.8.0;\n\nimport \"@openzeppelin/contracts/token/ERC20/ERC20.sol\";\nimport \"@openzeppelin/contracts/token/ERC20/extensions/ERC20Burnable.sol\";\n\ncontract GovToken is ERC20, ERC20Burnable {\n    address public _owner;\n    address public _mintOwner;\n\n    modifier onlyOwner() {\n        require(msg.sender == _owner);\n        _;\n    }\n\n    modifier onlyMintOwner() {\n        require(msg.sender == _mintOwner);\n        _;\n    }\n\n    constructor() ERC20(\"GovToken\", \"GvT\") {\n        _owner = msg.sender;\n        _mintOwner = msg.sender;\n    }\n\n    function setMintOwner(address mintOwner) public onlyOwner {\n        _mintOwner = mintOwner;\n    }\n\n    function mint(address to, uint256 amount) public onlyMintOwner {\n        _mint(to, amount);\n    }\n\n    function decimals() public view virtual override returns (uint8) {\n        return 2;\n    }\n}\n",
  "sourcePath": "/home/marlacabral/GovToken/Web.UI/Contratos/GovToken.sol",
  "compiler": {
    "name": "solc",
    "version": "0.8.26+commit.8a97fa7a.Emscripten.clang"
  },
  "schemaVersion": "3.4.8",
  "updatedAt": "2024-08-07T20:59:39.785Z",
  "networkType": "ethereum",
  "devdoc": {
    "events": {
      "Approval(address,address,uint256)": {
        "details": "Emitted when the allowance of a `spender` for an `owner` is set by a call to {approve}. `value` is the new allowance."
      },
      "Transfer(address,address,uint256)": {
        "details": "Emitted when `value` tokens are moved from one account (`from`) to another (`to`). Note that `value` may be zero."
      }
    },
    "kind": "dev",
    "methods": {
      "allowance(address,address)": {
        "details": "See {IERC20-allowance}."
      },
      "approve(address,uint256)": {
        "details": "See {IERC20-approve}. NOTE: If `amount` is the maximum `uint256`, the allowance is not updated on `transferFrom`. This is semantically equivalent to an infinite approval. Requirements: - `spender` cannot be the zero address."
      },
      "balanceOf(address)": {
        "details": "See {IERC20-balanceOf}."
      },
      "burn(uint256)": {
        "details": "Destroys `amount` tokens from the caller. See {ERC20-_burn}."
      },
      "burnFrom(address,uint256)": {
        "details": "Destroys `amount` tokens from `account`, deducting from the caller's allowance. See {ERC20-_burn} and {ERC20-allowance}. Requirements: - the caller must have allowance for ``accounts``'s tokens of at least `amount`."
      },
      "decimals()": {
        "details": "Returns the number of decimals used to get its user representation. For example, if `decimals` equals `2`, a balance of `505` tokens should be displayed to a user as `5.05` (`505 / 10 ** 2`). Tokens usually opt for a value of 18, imitating the relationship between Ether and Wei. This is the default value returned by this function, unless it's overridden. NOTE: This information is only used for _display_ purposes: it in no way affects any of the arithmetic of the contract, including {IERC20-balanceOf} and {IERC20-transfer}."
      },
      "decreaseAllowance(address,uint256)": {
        "details": "Atomically decreases the allowance granted to `spender` by the caller. This is an alternative to {approve} that can be used as a mitigation for problems described in {IERC20-approve}. Emits an {Approval} event indicating the updated allowance. Requirements: - `spender` cannot be the zero address. - `spender` must have allowance for the caller of at least `subtractedValue`."
      },
      "increaseAllowance(address,uint256)": {
        "details": "Atomically increases the allowance granted to `spender` by the caller. This is an alternative to {approve} that can be used as a mitigation for problems described in {IERC20-approve}. Emits an {Approval} event indicating the updated allowance. Requirements: - `spender` cannot be the zero address."
      },
      "name()": {
        "details": "Returns the name of the token."
      },
      "symbol()": {
        "details": "Returns the symbol of the token, usually a shorter version of the name."
      },
      "totalSupply()": {
        "details": "See {IERC20-totalSupply}."
      },
      "transfer(address,uint256)": {
        "details": "See {IERC20-transfer}. Requirements: - `to` cannot be the zero address. - the caller must have a balance of at least `amount`."
      },
      "transferFrom(address,address,uint256)": {
        "details": "See {IERC20-transferFrom}. Emits an {Approval} event indicating the updated allowance. This is not required by the EIP. See the note at the beginning of {ERC20}. NOTE: Does not update the allowance if the current allowance is the maximum `uint256`. Requirements: - `from` and `to` cannot be the zero address. - `from` must have a balance of at least `amount`. - the caller must have allowance for ``from``'s tokens of at least `amount`."
      }
    },
    "version": 1
  },
  "userdoc": {
    "kind": "user",
    "methods": {},
    "version": 1
  }
}