{
  "contractName": "PainelServico",
  "abi": [
    {
      "inputs": [
        {
          "internalType": "contract AgenteFederado",
          "name": "agenteFederado",
          "type": "address"
        },
        {
          "internalType": "contract Fornecedor",
          "name": "fornecedor",
          "type": "address"
        },
        {
          "internalType": "contract GovToken",
          "name": "govToken",
          "type": "address"
        }
      ],
      "stateMutability": "nonpayable",
      "type": "constructor"
    },
    {
      "anonymous": false,
      "inputs": [
        {
          "components": [
            {
              "internalType": "uint256",
              "name": "id",
              "type": "uint256"
            },
            {
              "internalType": "uint256",
              "name": "data",
              "type": "uint256"
            },
            {
              "internalType": "string",
              "name": "descricaoResumida",
              "type": "string"
            },
            {
              "internalType": "string",
              "name": "descricao",
              "type": "string"
            },
            {
              "internalType": "uint256",
              "name": "valor",
              "type": "uint256"
            },
            {
              "internalType": "address",
              "name": "solicitante",
              "type": "address"
            },
            {
              "internalType": "address",
              "name": "executor",
              "type": "address"
            },
            {
              "internalType": "string",
              "name": "uf",
              "type": "string"
            },
            {
              "internalType": "string",
              "name": "nomeToken",
              "type": "string"
            },
            {
              "internalType": "string",
              "name": "simboloToken",
              "type": "string"
            },
            {
              "internalType": "bool",
              "name": "disponivel",
              "type": "bool"
            },
            {
              "internalType": "enum StatusServicoEnum",
              "name": "status",
              "type": "uint8"
            },
            {
              "components": [
                {
                  "internalType": "uint256",
                  "name": "dataCadastro",
                  "type": "uint256"
                },
                {
                  "internalType": "address",
                  "name": "enderecoAgenteFederado",
                  "type": "address"
                },
                {
                  "internalType": "string",
                  "name": "descricao",
                  "type": "string"
                },
                {
                  "internalType": "address",
                  "name": "enderecoCarteira",
                  "type": "address"
                },
                {
                  "internalType": "bool",
                  "name": "cadastrado",
                  "type": "bool"
                }
              ],
              "internalType": "struct SecretariaInfo",
              "name": "secretaria",
              "type": "tuple"
            },
            {
              "components": [
                {
                  "internalType": "uint256",
                  "name": "dataCadastro",
                  "type": "uint256"
                },
                {
                  "internalType": "string",
                  "name": "uf",
                  "type": "string"
                },
                {
                  "internalType": "string",
                  "name": "nome",
                  "type": "string"
                },
                {
                  "internalType": "address",
                  "name": "enderecoCarteira",
                  "type": "address"
                },
                {
                  "internalType": "bool",
                  "name": "cadastrado",
                  "type": "bool"
                },
                {
                  "internalType": "bool",
                  "name": "aprovado",
                  "type": "bool"
                },
                {
                  "internalType": "uint256",
                  "name": "dataAprovacao",
                  "type": "uint256"
                }
              ],
              "internalType": "struct FornecedorInfo",
              "name": "fornecedor",
              "type": "tuple"
            },
            {
              "internalType": "bool",
              "name": "visaoFornecedor",
              "type": "bool"
            },
            {
              "internalType": "bool",
              "name": "visaoAgenteFederado",
              "type": "bool"
            }
          ],
          "indexed": false,
          "internalType": "struct ServicoInfo",
          "name": "servico",
          "type": "tuple"
        }
      ],
      "name": "servicoAdicionado",
      "type": "event"
    },
    {
      "inputs": [
        {
          "internalType": "contract ContaLastro",
          "name": "contaLastro",
          "type": "address"
        }
      ],
      "name": "setContaLastro",
      "outputs": [],
      "stateMutability": "nonpayable",
      "type": "function"
    },
    {
      "inputs": [
        {
          "internalType": "address",
          "name": "owner",
          "type": "address"
        },
        {
          "internalType": "bool",
          "name": "isOwner",
          "type": "bool"
        }
      ],
      "name": "setOwner",
      "outputs": [],
      "stateMutability": "nonpayable",
      "type": "function"
    },
    {
      "inputs": [],
      "name": "listarServicos2",
      "outputs": [
        {
          "components": [
            {
              "internalType": "uint256",
              "name": "id",
              "type": "uint256"
            },
            {
              "internalType": "uint256",
              "name": "data",
              "type": "uint256"
            },
            {
              "internalType": "string",
              "name": "descricaoResumida",
              "type": "string"
            },
            {
              "internalType": "string",
              "name": "descricao",
              "type": "string"
            },
            {
              "internalType": "uint256",
              "name": "valor",
              "type": "uint256"
            },
            {
              "internalType": "address",
              "name": "solicitante",
              "type": "address"
            },
            {
              "internalType": "address",
              "name": "executor",
              "type": "address"
            },
            {
              "internalType": "string",
              "name": "uf",
              "type": "string"
            },
            {
              "internalType": "string",
              "name": "nomeToken",
              "type": "string"
            },
            {
              "internalType": "string",
              "name": "simboloToken",
              "type": "string"
            },
            {
              "internalType": "bool",
              "name": "disponivel",
              "type": "bool"
            },
            {
              "internalType": "enum StatusServicoEnum",
              "name": "status",
              "type": "uint8"
            },
            {
              "components": [
                {
                  "internalType": "uint256",
                  "name": "dataCadastro",
                  "type": "uint256"
                },
                {
                  "internalType": "address",
                  "name": "enderecoAgenteFederado",
                  "type": "address"
                },
                {
                  "internalType": "string",
                  "name": "descricao",
                  "type": "string"
                },
                {
                  "internalType": "address",
                  "name": "enderecoCarteira",
                  "type": "address"
                },
                {
                  "internalType": "bool",
                  "name": "cadastrado",
                  "type": "bool"
                }
              ],
              "internalType": "struct SecretariaInfo",
              "name": "secretaria",
              "type": "tuple"
            },
            {
              "components": [
                {
                  "internalType": "uint256",
                  "name": "dataCadastro",
                  "type": "uint256"
                },
                {
                  "internalType": "string",
                  "name": "uf",
                  "type": "string"
                },
                {
                  "internalType": "string",
                  "name": "nome",
                  "type": "string"
                },
                {
                  "internalType": "address",
                  "name": "enderecoCarteira",
                  "type": "address"
                },
                {
                  "internalType": "bool",
                  "name": "cadastrado",
                  "type": "bool"
                },
                {
                  "internalType": "bool",
                  "name": "aprovado",
                  "type": "bool"
                },
                {
                  "internalType": "uint256",
                  "name": "dataAprovacao",
                  "type": "uint256"
                }
              ],
              "internalType": "struct FornecedorInfo",
              "name": "fornecedor",
              "type": "tuple"
            },
            {
              "internalType": "bool",
              "name": "visaoFornecedor",
              "type": "bool"
            },
            {
              "internalType": "bool",
              "name": "visaoAgenteFederado",
              "type": "bool"
            }
          ],
          "internalType": "struct ServicoInfo[]",
          "name": "",
          "type": "tuple[]"
        }
      ],
      "stateMutability": "view",
      "type": "function",
      "constant": true
    },
    {
      "inputs": [],
      "name": "listarServicos",
      "outputs": [
        {
          "components": [
            {
              "internalType": "uint256",
              "name": "id",
              "type": "uint256"
            },
            {
              "internalType": "uint256",
              "name": "data",
              "type": "uint256"
            },
            {
              "internalType": "string",
              "name": "descricaoResumida",
              "type": "string"
            },
            {
              "internalType": "string",
              "name": "descricao",
              "type": "string"
            },
            {
              "internalType": "uint256",
              "name": "valor",
              "type": "uint256"
            },
            {
              "internalType": "address",
              "name": "solicitante",
              "type": "address"
            },
            {
              "internalType": "address",
              "name": "executor",
              "type": "address"
            },
            {
              "internalType": "string",
              "name": "uf",
              "type": "string"
            },
            {
              "internalType": "string",
              "name": "nomeToken",
              "type": "string"
            },
            {
              "internalType": "string",
              "name": "simboloToken",
              "type": "string"
            },
            {
              "internalType": "bool",
              "name": "disponivel",
              "type": "bool"
            },
            {
              "internalType": "enum StatusServicoEnum",
              "name": "status",
              "type": "uint8"
            },
            {
              "components": [
                {
                  "internalType": "uint256",
                  "name": "dataCadastro",
                  "type": "uint256"
                },
                {
                  "internalType": "address",
                  "name": "enderecoAgenteFederado",
                  "type": "address"
                },
                {
                  "internalType": "string",
                  "name": "descricao",
                  "type": "string"
                },
                {
                  "internalType": "address",
                  "name": "enderecoCarteira",
                  "type": "address"
                },
                {
                  "internalType": "bool",
                  "name": "cadastrado",
                  "type": "bool"
                }
              ],
              "internalType": "struct SecretariaInfo",
              "name": "secretaria",
              "type": "tuple"
            },
            {
              "components": [
                {
                  "internalType": "uint256",
                  "name": "dataCadastro",
                  "type": "uint256"
                },
                {
                  "internalType": "string",
                  "name": "uf",
                  "type": "string"
                },
                {
                  "internalType": "string",
                  "name": "nome",
                  "type": "string"
                },
                {
                  "internalType": "address",
                  "name": "enderecoCarteira",
                  "type": "address"
                },
                {
                  "internalType": "bool",
                  "name": "cadastrado",
                  "type": "bool"
                },
                {
                  "internalType": "bool",
                  "name": "aprovado",
                  "type": "bool"
                },
                {
                  "internalType": "uint256",
                  "name": "dataAprovacao",
                  "type": "uint256"
                }
              ],
              "internalType": "struct FornecedorInfo",
              "name": "fornecedor",
              "type": "tuple"
            },
            {
              "internalType": "bool",
              "name": "visaoFornecedor",
              "type": "bool"
            },
            {
              "internalType": "bool",
              "name": "visaoAgenteFederado",
              "type": "bool"
            }
          ],
          "internalType": "struct ServicoInfo[]",
          "name": "listaServicos",
          "type": "tuple[]"
        }
      ],
      "stateMutability": "view",
      "type": "function",
      "constant": true
    },
    {
      "inputs": [
        {
          "internalType": "string",
          "name": "descricaoResumida",
          "type": "string"
        },
        {
          "internalType": "string",
          "name": "descricao",
          "type": "string"
        },
        {
          "internalType": "uint256",
          "name": "valor",
          "type": "uint256"
        }
      ],
      "name": "adicionarServico",
      "outputs": [],
      "stateMutability": "nonpayable",
      "type": "function"
    },
    {
      "inputs": [
        {
          "internalType": "uint256",
          "name": "id",
          "type": "uint256"
        }
      ],
      "name": "executarServico",
      "outputs": [],
      "stateMutability": "nonpayable",
      "type": "function"
    },
    {
      "inputs": [
        {
          "internalType": "uint256",
          "name": "id",
          "type": "uint256"
        }
      ],
      "name": "concluirSolicitarPagamentoServico",
      "outputs": [],
      "stateMutability": "nonpayable",
      "type": "function"
    },
    {
      "inputs": [
        {
          "internalType": "uint256",
          "name": "id",
          "type": "uint256"
        }
      ],
      "name": "liberarPagamentoServico",
      "outputs": [],
      "stateMutability": "nonpayable",
      "type": "function"
    },
    {
      "inputs": [
        {
          "internalType": "uint256",
          "name": "id",
          "type": "uint256"
        }
      ],
      "name": "obterServico",
      "outputs": [
        {
          "components": [
            {
              "internalType": "uint256",
              "name": "id",
              "type": "uint256"
            },
            {
              "internalType": "uint256",
              "name": "data",
              "type": "uint256"
            },
            {
              "internalType": "string",
              "name": "descricaoResumida",
              "type": "string"
            },
            {
              "internalType": "string",
              "name": "descricao",
              "type": "string"
            },
            {
              "internalType": "uint256",
              "name": "valor",
              "type": "uint256"
            },
            {
              "internalType": "address",
              "name": "solicitante",
              "type": "address"
            },
            {
              "internalType": "address",
              "name": "executor",
              "type": "address"
            },
            {
              "internalType": "string",
              "name": "uf",
              "type": "string"
            },
            {
              "internalType": "string",
              "name": "nomeToken",
              "type": "string"
            },
            {
              "internalType": "string",
              "name": "simboloToken",
              "type": "string"
            },
            {
              "internalType": "bool",
              "name": "disponivel",
              "type": "bool"
            },
            {
              "internalType": "enum StatusServicoEnum",
              "name": "status",
              "type": "uint8"
            },
            {
              "components": [
                {
                  "internalType": "uint256",
                  "name": "dataCadastro",
                  "type": "uint256"
                },
                {
                  "internalType": "address",
                  "name": "enderecoAgenteFederado",
                  "type": "address"
                },
                {
                  "internalType": "string",
                  "name": "descricao",
                  "type": "string"
                },
                {
                  "internalType": "address",
                  "name": "enderecoCarteira",
                  "type": "address"
                },
                {
                  "internalType": "bool",
                  "name": "cadastrado",
                  "type": "bool"
                }
              ],
              "internalType": "struct SecretariaInfo",
              "name": "secretaria",
              "type": "tuple"
            },
            {
              "components": [
                {
                  "internalType": "uint256",
                  "name": "dataCadastro",
                  "type": "uint256"
                },
                {
                  "internalType": "string",
                  "name": "uf",
                  "type": "string"
                },
                {
                  "internalType": "string",
                  "name": "nome",
                  "type": "string"
                },
                {
                  "internalType": "address",
                  "name": "enderecoCarteira",
                  "type": "address"
                },
                {
                  "internalType": "bool",
                  "name": "cadastrado",
                  "type": "bool"
                },
                {
                  "internalType": "bool",
                  "name": "aprovado",
                  "type": "bool"
                },
                {
                  "internalType": "uint256",
                  "name": "dataAprovacao",
                  "type": "uint256"
                }
              ],
              "internalType": "struct FornecedorInfo",
              "name": "fornecedor",
              "type": "tuple"
            },
            {
              "internalType": "bool",
              "name": "visaoFornecedor",
              "type": "bool"
            },
            {
              "internalType": "bool",
              "name": "visaoAgenteFederado",
              "type": "bool"
            }
          ],
          "internalType": "struct ServicoInfo",
          "name": "",
          "type": "tuple"
        }
      ],
      "stateMutability": "view",
      "type": "function",
      "constant": true
    }
  ],
  "bytecode": "0x60806040525f600155348015610013575f80fd5b50604051615bd4380380615bd483398181016040528101906100359190610254565b8260025f6101000a81548173ffffffffffffffffffffffffffffffffffffffff021916908373ffffffffffffffffffffffffffffffffffffffff1602179055508160045f6101000a81548173ffffffffffffffffffffffffffffffffffffffff021916908373ffffffffffffffffffffffffffffffffffffffff1602179055508060065f6101000a81548173ffffffffffffffffffffffffffffffffffffffff021916908373ffffffffffffffffffffffffffffffffffffffff16021790555060405161010190610162565b604051809103905ff08015801561011a573d5f803e3d5ffd5b5060055f6101000a81548173ffffffffffffffffffffffffffffffffffffffff021916908373ffffffffffffffffffffffffffffffffffffffff1602179055505050506102a4565b6103778061585d83390190565b5f80fd5b5f73ffffffffffffffffffffffffffffffffffffffff82169050919050565b5f61019c82610173565b9050919050565b5f6101ad82610192565b9050919050565b6101bd816101a3565b81146101c7575f80fd5b50565b5f815190506101d8816101b4565b92915050565b5f6101e882610192565b9050919050565b6101f8816101de565b8114610202575f80fd5b50565b5f81519050610213816101ef565b92915050565b5f61022382610192565b9050919050565b61023381610219565b811461023d575f80fd5b50565b5f8151905061024e8161022a565b92915050565b5f805f6060848603121561026b5761026a61016f565b5b5f610278868287016101ca565b935050602061028986828701610205565b925050604061029a86828701610240565b9150509250925092565b6155ac806102b15f395ff3fe608060405234801561000f575f80fd5b5060043610610091575f3560e01c8063516c731c11610064578063516c731c1461010957806364b633e0146101255780636d29974f146101415780639d92b1e31461015d578063d6f8aa3c1461017957610091565b806314fcf06214610095578063273f6b23146100b357806331b1ef4a146100d15780634b12b609146100ed575b5f80fd5b61009d6101a9565b6040516100aa9190614157565b60405180910390f35b6100bb611520565b6040516100c89190614157565b60405180910390f35b6100eb60048036038101906100e691906141b2565b611ce1565b005b610107600480360381019061010291906141b2565b612007565b005b610123600480360381019061011e9190614231565b612519565b005b61013f600480360381019061013a91906142aa565b61251d565b005b61015b60048036038101906101569190614401565b6125ef565b005b610177600480360381019061017291906141b2565b612f50565b005b610193600480360381019061018e91906141b2565b613386565b6040516101a09190614608565b60405180910390f35b60605f60045f9054906101000a900473ffffffffffffffffffffffffffffffffffffffff1673ffffffffffffffffffffffffffffffffffffffff166334803e3a336040518263ffffffff1660e01b81526004016102069190614637565b5f60405180830381865afa158015610220573d5f803e3d5ffd5b505050506040513d5f823e3d601f19601f8201168201806040525081019061024891906147eb565b90505f8160800151801561025d57508160a001515b90505f60025f9054906101000a900473ffffffffffffffffffffffffffffffffffffffff1673ffffffffffffffffffffffffffffffffffffffff166308944790336040518263ffffffff1660e01b81526004016102ba9190614637565b5f60405180830381865afa1580156102d4573d5f803e3d5ffd5b505050506040513d5f823e3d601f19601f820116820180604052508101906102fc91906148d7565b6080015190505f808054905090505f805b82811015610bbb575f8082815481106103295761032861491e565b5b905f5260205f209060150201604051806102000160405290815f82015481526020016001820154815260200160028201805461036490614978565b80601f016020809104026020016040519081016040528092919081815260200182805461039090614978565b80156103db5780601f106103b2576101008083540402835291602001916103db565b820191905f5260205f20905b8154815290600101906020018083116103be57829003601f168201915b505050505081526020016003820180546103f490614978565b80601f016020809104026020016040519081016040528092919081815260200182805461042090614978565b801561046b5780601f106104425761010080835404028352916020019161046b565b820191905f5260205f20905b81548152906001019060200180831161044e57829003601f168201915b5050505050815260200160048201548152602001600582015f9054906101000a900473ffffffffffffffffffffffffffffffffffffffff1673ffffffffffffffffffffffffffffffffffffffff1673ffffffffffffffffffffffffffffffffffffffff168152602001600682015f9054906101000a900473ffffffffffffffffffffffffffffffffffffffff1673ffffffffffffffffffffffffffffffffffffffff1673ffffffffffffffffffffffffffffffffffffffff16815260200160078201805461053890614978565b80601f016020809104026020016040519081016040528092919081815260200182805461056490614978565b80156105af5780601f10610586576101008083540402835291602001916105af565b820191905f5260205f20905b81548152906001019060200180831161059257829003601f168201915b505050505081526020016008820180546105c890614978565b80601f01602080910402602001604051908101604052809291908181526020018280546105f490614978565b801561063f5780601f106106165761010080835404028352916020019161063f565b820191905f5260205f20905b81548152906001019060200180831161062257829003601f168201915b5050505050815260200160098201805461065890614978565b80601f016020809104026020016040519081016040528092919081815260200182805461068490614978565b80156106cf5780601f106106a6576101008083540402835291602001916106cf565b820191905f5260205f20905b8154815290600101906020018083116106b257829003601f168201915b50505050508152602001600a82015f9054906101000a900460ff16151515158152602001600a820160019054906101000a900460ff16600381111561071757610716613dc0565b5b600381111561072957610728613dc0565b5b8152602001600b82016040518060a00160405290815f8201548152602001600182015f9054906101000a900473ffffffffffffffffffffffffffffffffffffffff1673ffffffffffffffffffffffffffffffffffffffff1673ffffffffffffffffffffffffffffffffffffffff1681526020016002820180546107ab90614978565b80601f01602080910402602001604051908101604052809291908181526020018280546107d790614978565b80156108225780601f106107f957610100808354040283529160200191610822565b820191905f5260205f20905b81548152906001019060200180831161080557829003601f168201915b50505050508152602001600382015f9054906101000a900473ffffffffffffffffffffffffffffffffffffffff1673ffffffffffffffffffffffffffffffffffffffff1673ffffffffffffffffffffffffffffffffffffffff1681526020016003820160149054906101000a900460ff1615151515815250508152602001600f82016040518060e00160405290815f82015481526020016001820180546108c890614978565b80601f01602080910402602001604051908101604052809291908181526020018280546108f490614978565b801561093f5780601f106109165761010080835404028352916020019161093f565b820191905f5260205f20905b81548152906001019060200180831161092257829003601f168201915b5050505050815260200160028201805461095890614978565b80601f016020809104026020016040519081016040528092919081815260200182805461098490614978565b80156109cf5780601f106109a6576101008083540402835291602001916109cf565b820191905f5260205f20905b8154815290600101906020018083116109b257829003601f168201915b50505050508152602001600382015f9054906101000a900473ffffffffffffffffffffffffffffffffffffffff1673ffffffffffffffffffffffffffffffffffffffff1673ffffffffffffffffffffffffffffffffffffffff1681526020016003820160149054906101000a900460ff161515151581526020016003820160159054906101000a900460ff161515151581526020016004820154815250508152602001601482015f9054906101000a900460ff161515151581526020016014820160019054906101000a900460ff16151515158152505090505f868015610b1857503373ffffffffffffffffffffffffffffffffffffffff168260c0015173ffffffffffffffffffffffffffffffffffffffff161480610b1757505f6003811115610afd57610afc613dc0565b5b8261016001516003811115610b1557610b14613dc0565b5b145b5b90505f868015610b5757503373ffffffffffffffffffffffffffffffffffffffff168360a0015173ffffffffffffffffffffffffffffffffffffffff16145b9050600380811115610b6c57610b6b613dc0565b5b8361016001516003811115610b8457610b83613dc0565b5b14158015610b9757508180610b965750805b5b15610bab578480610ba7906149d5565b9550505b505050808060010191505061030d565b505f8103610bcd57505050505061151d565b8067ffffffffffffffff811115610be757610be66142dd565b5b604051908082528060200260200182016040528015610c2057816020015b610c0d613b47565b815260200190600190039081610c055790505b5095505f805b83811015611515575f808281548110610c4257610c4161491e565b5b905f5260205f209060150201604051806102000160405290815f820154815260200160018201548152602001600282018054610c7d90614978565b80601f0160208091040260200160405190810160405280929190818152602001828054610ca990614978565b8015610cf45780601f10610ccb57610100808354040283529160200191610cf4565b820191905f5260205f20905b815481529060010190602001808311610cd757829003601f168201915b50505050508152602001600382018054610d0d90614978565b80601f0160208091040260200160405190810160405280929190818152602001828054610d3990614978565b8015610d845780601f10610d5b57610100808354040283529160200191610d84565b820191905f5260205f20905b815481529060010190602001808311610d6757829003601f168201915b5050505050815260200160048201548152602001600582015f9054906101000a900473ffffffffffffffffffffffffffffffffffffffff1673ffffffffffffffffffffffffffffffffffffffff1673ffffffffffffffffffffffffffffffffffffffff168152602001600682015f9054906101000a900473ffffffffffffffffffffffffffffffffffffffff1673ffffffffffffffffffffffffffffffffffffffff1673ffffffffffffffffffffffffffffffffffffffff168152602001600782018054610e5190614978565b80601f0160208091040260200160405190810160405280929190818152602001828054610e7d90614978565b8015610ec85780601f10610e9f57610100808354040283529160200191610ec8565b820191905f5260205f20905b815481529060010190602001808311610eab57829003601f168201915b50505050508152602001600882018054610ee190614978565b80601f0160208091040260200160405190810160405280929190818152602001828054610f0d90614978565b8015610f585780601f10610f2f57610100808354040283529160200191610f58565b820191905f5260205f20905b815481529060010190602001808311610f3b57829003601f168201915b50505050508152602001600982018054610f7190614978565b80601f0160208091040260200160405190810160405280929190818152602001828054610f9d90614978565b8015610fe85780601f10610fbf57610100808354040283529160200191610fe8565b820191905f5260205f20905b815481529060010190602001808311610fcb57829003601f168201915b50505050508152602001600a82015f9054906101000a900460ff16151515158152602001600a820160019054906101000a900460ff1660038111156110305761102f613dc0565b5b600381111561104257611041613dc0565b5b8152602001600b82016040518060a00160405290815f8201548152602001600182015f9054906101000a900473ffffffffffffffffffffffffffffffffffffffff1673ffffffffffffffffffffffffffffffffffffffff1673ffffffffffffffffffffffffffffffffffffffff1681526020016002820180546110c490614978565b80601f01602080910402602001604051908101604052809291908181526020018280546110f090614978565b801561113b5780601f106111125761010080835404028352916020019161113b565b820191905f5260205f20905b81548152906001019060200180831161111e57829003601f168201915b50505050508152602001600382015f9054906101000a900473ffffffffffffffffffffffffffffffffffffffff1673ffffffffffffffffffffffffffffffffffffffff1673ffffffffffffffffffffffffffffffffffffffff1681526020016003820160149054906101000a900460ff1615151515815250508152602001600f82016040518060e00160405290815f82015481526020016001820180546111e190614978565b80601f016020809104026020016040519081016040528092919081815260200182805461120d90614978565b80156112585780601f1061122f57610100808354040283529160200191611258565b820191905f5260205f20905b81548152906001019060200180831161123b57829003601f168201915b5050505050815260200160028201805461127190614978565b80601f016020809104026020016040519081016040528092919081815260200182805461129d90614978565b80156112e85780601f106112bf576101008083540402835291602001916112e8565b820191905f5260205f20905b8154815290600101906020018083116112cb57829003601f168201915b50505050508152602001600382015f9054906101000a900473ffffffffffffffffffffffffffffffffffffffff1673ffffffffffffffffffffffffffffffffffffffff1673ffffffffffffffffffffffffffffffffffffffff1681526020016003820160149054906101000a900460ff161515151581526020016003820160159054906101000a900460ff161515151581526020016004820154815250508152602001601482015f9054906101000a900460ff161515151581526020016014820160019054906101000a900460ff16151515158152505090505f87801561143157503373ffffffffffffffffffffffffffffffffffffffff168260c0015173ffffffffffffffffffffffffffffffffffffffff16148061143057505f600381111561141657611415613dc0565b5b826101600151600381111561142e5761142d613dc0565b5b145b5b90505f87801561147057503373ffffffffffffffffffffffffffffffffffffffff168360a0015173ffffffffffffffffffffffffffffffffffffffff16145b905060038081111561148557611484613dc0565b5b836101600151600381111561149d5761149c613dc0565b5b141580156114b0575081806114af5750805b5b156115055781836101c001901515908115158152505080836101e0019015159081151581525050828b86815181106114eb576114ea61491e565b5b60200260200101819052508480611501906149d5565b9550505b5050508080600101915050610c26565b505050505050505b90565b60605f805480602002602001604051908101604052809291908181526020015f905b82821015611cd8578382905f5260205f209060150201604051806102000160405290815f82015481526020016001820154815260200160028201805461158790614978565b80601f01602080910402602001604051908101604052809291908181526020018280546115b390614978565b80156115fe5780601f106115d5576101008083540402835291602001916115fe565b820191905f5260205f20905b8154815290600101906020018083116115e157829003601f168201915b5050505050815260200160038201805461161790614978565b80601f016020809104026020016040519081016040528092919081815260200182805461164390614978565b801561168e5780601f106116655761010080835404028352916020019161168e565b820191905f5260205f20905b81548152906001019060200180831161167157829003601f168201915b5050505050815260200160048201548152602001600582015f9054906101000a900473ffffffffffffffffffffffffffffffffffffffff1673ffffffffffffffffffffffffffffffffffffffff1673ffffffffffffffffffffffffffffffffffffffff168152602001600682015f9054906101000a900473ffffffffffffffffffffffffffffffffffffffff1673ffffffffffffffffffffffffffffffffffffffff1673ffffffffffffffffffffffffffffffffffffffff16815260200160078201805461175b90614978565b80601f016020809104026020016040519081016040528092919081815260200182805461178790614978565b80156117d25780601f106117a9576101008083540402835291602001916117d2565b820191905f5260205f20905b8154815290600101906020018083116117b557829003601f168201915b505050505081526020016008820180546117eb90614978565b80601f016020809104026020016040519081016040528092919081815260200182805461181790614978565b80156118625780601f1061183957610100808354040283529160200191611862565b820191905f5260205f20905b81548152906001019060200180831161184557829003601f168201915b5050505050815260200160098201805461187b90614978565b80601f01602080910402602001604051908101604052809291908181526020018280546118a790614978565b80156118f25780601f106118c9576101008083540402835291602001916118f2565b820191905f5260205f20905b8154815290600101906020018083116118d557829003601f168201915b50505050508152602001600a82015f9054906101000a900460ff16151515158152602001600a820160019054906101000a900460ff16600381111561193a57611939613dc0565b5b600381111561194c5761194b613dc0565b5b8152602001600b82016040518060a00160405290815f8201548152602001600182015f9054906101000a900473ffffffffffffffffffffffffffffffffffffffff1673ffffffffffffffffffffffffffffffffffffffff1673ffffffffffffffffffffffffffffffffffffffff1681526020016002820180546119ce90614978565b80601f01602080910402602001604051908101604052809291908181526020018280546119fa90614978565b8015611a455780601f10611a1c57610100808354040283529160200191611a45565b820191905f5260205f20905b815481529060010190602001808311611a2857829003601f168201915b50505050508152602001600382015f9054906101000a900473ffffffffffffffffffffffffffffffffffffffff1673ffffffffffffffffffffffffffffffffffffffff1673ffffffffffffffffffffffffffffffffffffffff1681526020016003820160149054906101000a900460ff1615151515815250508152602001600f82016040518060e00160405290815f8201548152602001600182018054611aeb90614978565b80601f0160208091040260200160405190810160405280929190818152602001828054611b1790614978565b8015611b625780601f10611b3957610100808354040283529160200191611b62565b820191905f5260205f20905b815481529060010190602001808311611b4557829003601f168201915b50505050508152602001600282018054611b7b90614978565b80601f0160208091040260200160405190810160405280929190818152602001828054611ba790614978565b8015611bf25780601f10611bc957610100808354040283529160200191611bf2565b820191905f5260205f20905b815481529060010190602001808311611bd557829003601f168201915b50505050508152602001600382015f9054906101000a900473ffffffffffffffffffffffffffffffffffffffff1673ffffffffffffffffffffffffffffffffffffffff1673ffffffffffffffffffffffffffffffffffffffff1681526020016003820160149054906101000a900460ff161515151581526020016003820160159054906101000a900460ff161515151581526020016004820154815250508152602001601482015f9054906101000a900460ff161515151581526020016014820160019054906101000a900460ff16151515158152505081526020019060010190611542565b50505050905090565b60045f9054906101000a900473ffffffffffffffffffffffffffffffffffffffff1673ffffffffffffffffffffffffffffffffffffffff166334803e3a336040518263ffffffff1660e01b8152600401611d3b9190614637565b5f60405180830381865afa158015611d55573d5f803e3d5ffd5b505050506040513d5f823e3d601f19601f82011682018060405250810190611d7d91906147eb565b60800151611dc0576040517f08c379a0000000000000000000000000000000000000000000000000000000008152600401611db790614a9c565b60405180910390fd5b5f611dca82613b2d565b905060016003811115611de057611ddf613dc0565b5b5f8281548110611df357611df261491e565b5b905f5260205f209060150201600a0160019054906101000a900460ff166003811115611e2257611e21613dc0565b5b14611e62576040517f08c379a0000000000000000000000000000000000000000000000000000000008152600401611e5990614b50565b60405180910390fd5b5f60045f9054906101000a900473ffffffffffffffffffffffffffffffffffffffff1673ffffffffffffffffffffffffffffffffffffffff166334803e3a336040518263ffffffff1660e01b8152600401611ebd9190614637565b5f60405180830381865afa158015611ed7573d5f803e3d5ffd5b505050506040513d5f823e3d601f19601f82011682018060405250810190611eff91906147eb565b90505f8281548110611f1457611f1361491e565b5b905f5260205f209060150201600f016003015f9054906101000a900473ffffffffffffffffffffffffffffffffffffffff1673ffffffffffffffffffffffffffffffffffffffff16816060015173ffffffffffffffffffffffffffffffffffffffff1614611fb7576040517f08c379a0000000000000000000000000000000000000000000000000000000008152600401611fae90614c2a565b60405180910390fd5b60025f8381548110611fcc57611fcb61491e565b5b905f5260205f209060150201600a0160016101000a81548160ff02191690836003811115611ffd57611ffc613dc0565b5b0217905550505050565b60025f9054906101000a900473ffffffffffffffffffffffffffffffffffffffff1673ffffffffffffffffffffffffffffffffffffffff166308944790336040518263ffffffff1660e01b81526004016120619190614637565b5f60405180830381865afa15801561207b573d5f803e3d5ffd5b505050506040513d5f823e3d601f19601f820116820180604052508101906120a391906148d7565b608001516120e6576040517f08c379a00000000000000000000000000000000000000000000000000000000081526004016120dd90614cb8565b60405180910390fd5b5f6120f082613b2d565b90506002600381111561210657612105613dc0565b5b5f82815481106121195761211861491e565b5b905f5260205f209060150201600a0160019054906101000a900460ff16600381111561214857612147613dc0565b5b14612188576040517f08c379a000000000000000000000000000000000000000000000000000000000815260040161217f90614d46565b60405180910390fd5b5f60025f9054906101000a900473ffffffffffffffffffffffffffffffffffffffff1673ffffffffffffffffffffffffffffffffffffffff166308944790336040518263ffffffff1660e01b81526004016121e39190614637565b5f60405180830381865afa1580156121fd573d5f803e3d5ffd5b505050506040513d5f823e3d601f19601f8201168201806040525081019061222591906148d7565b90505f828154811061223a5761223961491e565b5b905f5260205f2090601502016005015f9054906101000a900473ffffffffffffffffffffffffffffffffffffffff1673ffffffffffffffffffffffffffffffffffffffff16816060015173ffffffffffffffffffffffffffffffffffffffff16146122da576040517f08c379a00000000000000000000000000000000000000000000000000000000081526004016122d190614dd4565b60405180910390fd5b60035f83815481106122ef576122ee61491e565b5b905f5260205f209060150201600a0160016101000a81548160ff021916908360038111156123205761231f613dc0565b5b021790555060065f9054906101000a900473ffffffffffffffffffffffffffffffffffffffff1673ffffffffffffffffffffffffffffffffffffffff1663095ea7b360035f9054906101000a900473ffffffffffffffffffffffffffffffffffffffff165f85815481106123975761239661491e565b5b905f5260205f209060150201600401546040518363ffffffff1660e01b81526004016123c4929190614e01565b6020604051808303815f875af11580156123e0573d5f803e3d5ffd5b505050506040513d601f19601f820116820180604052508101906124049190614e28565b5060035f9054906101000a900473ffffffffffffffffffffffffffffffffffffffff1673ffffffffffffffffffffffffffffffffffffffff16630de586c15f84815481106124555761245461491e565b5b905f5260205f2090601502016006015f9054906101000a900473ffffffffffffffffffffffffffffffffffffffff165f85815481106124975761249661491e565b5b905f5260205f2090601502015f01545f86815481106124b9576124b861491e565b5b905f5260205f209060150201600401546040518463ffffffff1660e01b81526004016124e793929190614e53565b5f604051808303815f87803b1580156124fe575f80fd5b505af1158015612510573d5f803e3d5ffd5b50505050505050565b5050565b5f73ffffffffffffffffffffffffffffffffffffffff1660035f9054906101000a900473ffffffffffffffffffffffffffffffffffffffff1673ffffffffffffffffffffffffffffffffffffffff16146125ac576040517f08c379a00000000000000000000000000000000000000000000000000000000081526004016125a390614ed2565b60405180910390fd5b8060035f6101000a81548173ffffffffffffffffffffffffffffffffffffffff021916908373ffffffffffffffffffffffffffffffffffffffff16021790555050565b5f60025f9054906101000a900473ffffffffffffffffffffffffffffffffffffffff1673ffffffffffffffffffffffffffffffffffffffff166308944790336040518263ffffffff1660e01b815260040161264a9190614637565b5f60405180830381865afa158015612664573d5f803e3d5ffd5b505050506040513d5f823e3d601f19601f8201168201806040525081019061268c91906148d7565b905080608001516126d2576040517f08c379a00000000000000000000000000000000000000000000000000000000081526004016126c990614f60565b60405180910390fd5b6126da613b47565b60015f81546126e8906149d5565b919050819055815f018181525050848160400181905250838160600181905250828160800181815250506001816101400190151590811515815250505f816101600190600381111561273d5761273c613dc0565b5b9081600381111561275157612750613dc0565b5b81525050338160a0019073ffffffffffffffffffffffffffffffffffffffff16908173ffffffffffffffffffffffffffffffffffffffff16815250505f8160c0019073ffffffffffffffffffffffffffffffffffffffff16908173ffffffffffffffffffffffffffffffffffffffff16815250506103e8426127d39190614f7e565b8160200181815250508181610180018190525060065f9054906101000a900473ffffffffffffffffffffffffffffffffffffffff1673ffffffffffffffffffffffffffffffffffffffff166306fdde036040518163ffffffff1660e01b81526004015f60405180830381865afa15801561284f573d5f803e3d5ffd5b505050506040513d5f823e3d601f19601f820116820180604052508101906128779190614fbf565b81610100018190525060065f9054906101000a900473ffffffffffffffffffffffffffffffffffffffff1673ffffffffffffffffffffffffffffffffffffffff166395d89b416040518163ffffffff1660e01b81526004015f60405180830381865afa1580156128e9573d5f803e3d5ffd5b505050506040513d5f823e3d601f19601f820116820180604052508101906129119190614fbf565b8161012001819052505f81908060018154018082558091505060019003905f5260205f2090601502015f909190919091505f820151815f015560208201518160010155604082015181600201908161296991906151a3565b50606082015181600301908161297f91906151a3565b506080820151816004015560a0820151816005015f6101000a81548173ffffffffffffffffffffffffffffffffffffffff021916908373ffffffffffffffffffffffffffffffffffffffff16021790555060c0820151816006015f6101000a81548173ffffffffffffffffffffffffffffffffffffffff021916908373ffffffffffffffffffffffffffffffffffffffff16021790555060e0820151816007019081612a2b91906151a3565b50610100820151816008019081612a4291906151a3565b50610120820151816009019081612a5991906151a3565b5061014082015181600a015f6101000a81548160ff02191690831515021790555061016082015181600a0160016101000a81548160ff02191690836003811115612aa657612aa5613dc0565b5b021790555061018082015181600b015f820151815f01556020820151816001015f6101000a81548173ffffffffffffffffffffffffffffffffffffffff021916908373ffffffffffffffffffffffffffffffffffffffff1602179055506040820151816002019081612b1891906151a3565b506060820151816003015f6101000a81548173ffffffffffffffffffffffffffffffffffffffff021916908373ffffffffffffffffffffffffffffffffffffffff16021790555060808201518160030160146101000a81548160ff02191690831515021790555050506101a082015181600f015f820151815f01556020820151816001019081612ba891906151a3565b506040820151816002019081612bbe91906151a3565b506060820151816003015f6101000a81548173ffffffffffffffffffffffffffffffffffffffff021916908373ffffffffffffffffffffffffffffffffffffffff16021790555060808201518160030160146101000a81548160ff02191690831515021790555060a08201518160030160156101000a81548160ff02191690831515021790555060c0820151816004015550506101c0820151816014015f6101000a81548160ff0219169083151502179055506101e08201518160140160016101000a81548160ff021916908315150217905550505060065f9054906101000a900473ffffffffffffffffffffffffffffffffffffffff1673ffffffffffffffffffffffffffffffffffffffff166323b872dd836060015130866040518463ffffffff1660e01b8152600401612cf693929190615272565b6020604051808303815f875af1158015612d12573d5f803e3d5ffd5b505050506040513d601f19601f82011682018060405250810190612d369190614e28565b5060025f9054906101000a900473ffffffffffffffffffffffffffffffffffffffff1673ffffffffffffffffffffffffffffffffffffffff166378905bc283606001516040518060e00160405280856020015181526020018560400151604051602001612da39190615307565b60405160208183030381529060405281526020018781526020016040518060400160405280600181526020017f440000000000000000000000000000000000000000000000000000000000000081525081526020013073ffffffffffffffffffffffffffffffffffffffff168152602001866060015173ffffffffffffffffffffffffffffffffffffffff16815260200160065f9054906101000a900473ffffffffffffffffffffffffffffffffffffffff1673ffffffffffffffffffffffffffffffffffffffff166395d89b416040518163ffffffff1660e01b81526004015f60405180830381865afa158015612e9d573d5f803e3d5ffd5b505050506040513d5f823e3d601f19601f82011682018060405250810190612ec59190614fbf565b8152506040518363ffffffff1660e01b8152600401612ee59291906153d3565b5f604051808303815f87803b158015612efc575f80fd5b505af1158015612f0e573d5f803e3d5ffd5b505050507ff8134b00e257b1d9ca255818af3b091d768249fa1d016ace0f7b9e2fc0235f4281604051612f419190614608565b60405180910390a15050505050565b60045f9054906101000a900473ffffffffffffffffffffffffffffffffffffffff1673ffffffffffffffffffffffffffffffffffffffff166334803e3a336040518263ffffffff1660e01b8152600401612faa9190614637565b5f60405180830381865afa158015612fc4573d5f803e3d5ffd5b505050506040513d5f823e3d601f19601f82011682018060405250810190612fec91906147eb565b6080015161302f576040517f08c379a000000000000000000000000000000000000000000000000000000000815260040161302690614a9c565b60405180910390fd5b5f61303982613b2d565b90505f600381111561304e5761304d613dc0565b5b5f82815481106130615761306061491e565b5b905f5260205f209060150201600a0160019054906101000a900460ff1660038111156130905761308f613dc0565b5b146130d0576040517f08c379a00000000000000000000000000000000000000000000000000000000081526004016130c790615471565b60405180910390fd5b5f60045f9054906101000a900473ffffffffffffffffffffffffffffffffffffffff1673ffffffffffffffffffffffffffffffffffffffff166334803e3a336040518263ffffffff1660e01b815260040161312b9190614637565b5f60405180830381865afa158015613145573d5f803e3d5ffd5b505050506040513d5f823e3d601f19601f8201168201806040525081019061316d91906147eb565b90508060a001516131b3576040517f08c379a00000000000000000000000000000000000000000000000000000000081526004016131aa90615525565b60405180910390fd5b805f83815481106131c7576131c661491e565b5b905f5260205f209060150201600f015f820151815f015560208201518160010190816131f391906151a3565b50604082015181600201908161320991906151a3565b506060820151816003015f6101000a81548173ffffffffffffffffffffffffffffffffffffffff021916908373ffffffffffffffffffffffffffffffffffffffff16021790555060808201518160030160146101000a81548160ff02191690831515021790555060a08201518160030160156101000a81548160ff02191690831515021790555060c08201518160040155905050335f83815481106132b1576132b061491e565b5b905f5260205f2090601502016006015f6101000a81548173ffffffffffffffffffffffffffffffffffffffff021916908373ffffffffffffffffffffffffffffffffffffffff1602179055505f8083815481106133115761331061491e565b5b905f5260205f209060150201600a015f6101000a81548160ff02191690831515021790555060015f838154811061334b5761334a61491e565b5b905f5260205f209060150201600a0160016101000a81548160ff0219169083600381111561337c5761337b613dc0565b5b0217905550505050565b61338e613b47565b5f61339883613b2d565b815481106133a9576133a861491e565b5b905f5260205f209060150201604051806102000160405290815f8201548152602001600182015481526020016002820180546133e490614978565b80601f016020809104026020016040519081016040528092919081815260200182805461341090614978565b801561345b5780601f106134325761010080835404028352916020019161345b565b820191905f5260205f20905b81548152906001019060200180831161343e57829003601f168201915b5050505050815260200160038201805461347490614978565b80601f01602080910402602001604051908101604052809291908181526020018280546134a090614978565b80156134eb5780601f106134c2576101008083540402835291602001916134eb565b820191905f5260205f20905b8154815290600101906020018083116134ce57829003601f168201915b5050505050815260200160048201548152602001600582015f9054906101000a900473ffffffffffffffffffffffffffffffffffffffff1673ffffffffffffffffffffffffffffffffffffffff1673ffffffffffffffffffffffffffffffffffffffff168152602001600682015f9054906101000a900473ffffffffffffffffffffffffffffffffffffffff1673ffffffffffffffffffffffffffffffffffffffff1673ffffffffffffffffffffffffffffffffffffffff1681526020016007820180546135b890614978565b80601f01602080910402602001604051908101604052809291908181526020018280546135e490614978565b801561362f5780601f106136065761010080835404028352916020019161362f565b820191905f5260205f20905b81548152906001019060200180831161361257829003601f168201915b5050505050815260200160088201805461364890614978565b80601f016020809104026020016040519081016040528092919081815260200182805461367490614978565b80156136bf5780601f10613696576101008083540402835291602001916136bf565b820191905f5260205f20905b8154815290600101906020018083116136a257829003601f168201915b505050505081526020016009820180546136d890614978565b80601f016020809104026020016040519081016040528092919081815260200182805461370490614978565b801561374f5780601f106137265761010080835404028352916020019161374f565b820191905f5260205f20905b81548152906001019060200180831161373257829003601f168201915b50505050508152602001600a82015f9054906101000a900460ff16151515158152602001600a820160019054906101000a900460ff16600381111561379757613796613dc0565b5b60038111156137a9576137a8613dc0565b5b8152602001600b82016040518060a00160405290815f8201548152602001600182015f9054906101000a900473ffffffffffffffffffffffffffffffffffffffff1673ffffffffffffffffffffffffffffffffffffffff1673ffffffffffffffffffffffffffffffffffffffff16815260200160028201805461382b90614978565b80601f016020809104026020016040519081016040528092919081815260200182805461385790614978565b80156138a25780601f10613879576101008083540402835291602001916138a2565b820191905f5260205f20905b81548152906001019060200180831161388557829003601f168201915b50505050508152602001600382015f9054906101000a900473ffffffffffffffffffffffffffffffffffffffff1673ffffffffffffffffffffffffffffffffffffffff1673ffffffffffffffffffffffffffffffffffffffff1681526020016003820160149054906101000a900460ff1615151515815250508152602001600f82016040518060e00160405290815f820154815260200160018201805461394890614978565b80601f016020809104026020016040519081016040528092919081815260200182805461397490614978565b80156139bf5780601f10613996576101008083540402835291602001916139bf565b820191905f5260205f20905b8154815290600101906020018083116139a257829003601f168201915b505050505081526020016002820180546139d890614978565b80601f0160208091040260200160405190810160405280929190818152602001828054613a0490614978565b8015613a4f5780601f10613a2657610100808354040283529160200191613a4f565b820191905f5260205f20905b815481529060010190602001808311613a3257829003601f168201915b50505050508152602001600382015f9054906101000a900473ffffffffffffffffffffffffffffffffffffffff1673ffffffffffffffffffffffffffffffffffffffff1673ffffffffffffffffffffffffffffffffffffffff1681526020016003820160149054906101000a900460ff161515151581526020016003820160159054906101000a900460ff161515151581526020016004820154815250508152602001601482015f9054906101000a900460ff161515151581526020016014820160019054906101000a900460ff1615151515815250509050919050565b5f80600183613b3c9190615543565b905080915050919050565b6040518061020001604052805f81526020015f815260200160608152602001606081526020015f81526020015f73ffffffffffffffffffffffffffffffffffffffff1681526020015f73ffffffffffffffffffffffffffffffffffffffff1681526020016060815260200160608152602001606081526020015f151581526020015f6003811115613bdb57613bda613dc0565b5b8152602001613be8613c0b565b8152602001613bf5613c64565b81526020015f151581526020015f151581525090565b6040518060a001604052805f81526020015f73ffffffffffffffffffffffffffffffffffffffff168152602001606081526020015f73ffffffffffffffffffffffffffffffffffffffff1681526020015f151581525090565b6040518060e001604052805f815260200160608152602001606081526020015f73ffffffffffffffffffffffffffffffffffffffff1681526020015f151581526020015f151581526020015f81525090565b5f81519050919050565b5f82825260208201905092915050565b5f819050602082019050919050565b5f819050919050565b613cf181613cdf565b82525050565b5f81519050919050565b5f82825260208201905092915050565b8281835e5f83830152505050565b5f601f19601f8301169050919050565b5f613d3982613cf7565b613d438185613d01565b9350613d53818560208601613d11565b613d5c81613d1f565b840191505092915050565b5f73ffffffffffffffffffffffffffffffffffffffff82169050919050565b5f613d9082613d67565b9050919050565b613da081613d86565b82525050565b5f8115159050919050565b613dba81613da6565b82525050565b7f4e487b71000000000000000000000000000000000000000000000000000000005f52602160045260245ffd5b60048110613dfe57613dfd613dc0565b5b50565b5f819050613e0e82613ded565b919050565b5f613e1d82613e01565b9050919050565b613e2d81613e13565b82525050565b5f60a083015f830151613e485f860182613ce8565b506020830151613e5b6020860182613d97565b5060408301518482036040860152613e738282613d2f565b9150506060830151613e886060860182613d97565b506080830151613e9b6080860182613db1565b508091505092915050565b5f60e083015f830151613ebb5f860182613ce8565b5060208301518482036020860152613ed38282613d2f565b91505060408301518482036040860152613eed8282613d2f565b9150506060830151613f026060860182613d97565b506080830151613f156080860182613db1565b5060a0830151613f2860a0860182613db1565b5060c0830151613f3b60c0860182613ce8565b508091505092915050565b5f61020083015f830151613f5c5f860182613ce8565b506020830151613f6f6020860182613ce8565b5060408301518482036040860152613f878282613d2f565b91505060608301518482036060860152613fa18282613d2f565b9150506080830151613fb66080860182613ce8565b5060a0830151613fc960a0860182613d97565b5060c0830151613fdc60c0860182613d97565b5060e083015184820360e0860152613ff48282613d2f565b9150506101008301518482036101008601526140108282613d2f565b91505061012083015184820361012086015261402c8282613d2f565b915050610140830151614043610140860182613db1565b50610160830151614058610160860182613e24565b506101808301518482036101808601526140728282613e33565b9150506101a08301518482036101a086015261408e8282613ea6565b9150506101c08301516140a56101c0860182613db1565b506101e08301516140ba6101e0860182613db1565b508091505092915050565b5f6140d08383613f46565b905092915050565b5f602082019050919050565b5f6140ee82613cb6565b6140f88185613cc0565b93508360208202850161410a85613cd0565b805f5b85811015614145578484038952815161412685826140c5565b9450614131836140d8565b925060208a0199505060018101905061410d565b50829750879550505050505092915050565b5f6020820190508181035f83015261416f81846140e4565b905092915050565b5f604051905090565b5f80fd5b5f80fd5b61419181613cdf565b811461419b575f80fd5b50565b5f813590506141ac81614188565b92915050565b5f602082840312156141c7576141c6614180565b5b5f6141d48482850161419e565b91505092915050565b6141e681613d86565b81146141f0575f80fd5b50565b5f81359050614201816141dd565b92915050565b61421081613da6565b811461421a575f80fd5b50565b5f8135905061422b81614207565b92915050565b5f806040838503121561424757614246614180565b5b5f614254858286016141f3565b92505060206142658582860161421d565b9150509250929050565b5f61427982613d86565b9050919050565b6142898161426f565b8114614293575f80fd5b50565b5f813590506142a481614280565b92915050565b5f602082840312156142bf576142be614180565b5b5f6142cc84828501614296565b91505092915050565b5f80fd5b5f80fd5b7f4e487b71000000000000000000000000000000000000000000000000000000005f52604160045260245ffd5b61431382613d1f565b810181811067ffffffffffffffff82111715614332576143316142dd565b5b80604052505050565b5f614344614177565b9050614350828261430a565b919050565b5f67ffffffffffffffff82111561436f5761436e6142dd565b5b61437882613d1f565b9050602081019050919050565b828183375f83830152505050565b5f6143a56143a084614355565b61433b565b9050828152602081018484840111156143c1576143c06142d9565b5b6143cc848285614385565b509392505050565b5f82601f8301126143e8576143e76142d5565b5b81356143f8848260208601614393565b91505092915050565b5f805f6060848603121561441857614417614180565b5b5f84013567ffffffffffffffff81111561443557614434614184565b5b614441868287016143d4565b935050602084013567ffffffffffffffff81111561446257614461614184565b5b61446e868287016143d4565b925050604061447f8682870161419e565b9150509250925092565b5f61020083015f83015161449f5f860182613ce8565b5060208301516144b26020860182613ce8565b50604083015184820360408601526144ca8282613d2f565b915050606083015184820360608601526144e48282613d2f565b91505060808301516144f96080860182613ce8565b5060a083015161450c60a0860182613d97565b5060c083015161451f60c0860182613d97565b5060e083015184820360e08601526145378282613d2f565b9150506101008301518482036101008601526145538282613d2f565b91505061012083015184820361012086015261456f8282613d2f565b915050610140830151614586610140860182613db1565b5061016083015161459b610160860182613e24565b506101808301518482036101808601526145b58282613e33565b9150506101a08301518482036101a08601526145d18282613ea6565b9150506101c08301516145e86101c0860182613db1565b506101e08301516145fd6101e0860182613db1565b508091505092915050565b5f6020820190508181035f8301526146208184614489565b905092915050565b61463181613d86565b82525050565b5f60208201905061464a5f830184614628565b92915050565b5f80fd5b5f80fd5b5f8151905061466681614188565b92915050565b5f61467e61467984614355565b61433b565b90508281526020810184848401111561469a576146996142d9565b5b6146a5848285613d11565b509392505050565b5f82601f8301126146c1576146c06142d5565b5b81516146d184826020860161466c565b91505092915050565b5f815190506146e8816141dd565b92915050565b5f815190506146fc81614207565b92915050565b5f60e0828403121561471757614716614650565b5b61472160e061433b565b90505f61473084828501614658565b5f83015250602082015167ffffffffffffffff81111561475357614752614654565b5b61475f848285016146ad565b602083015250604082015167ffffffffffffffff81111561478357614782614654565b5b61478f848285016146ad565b60408301525060606147a3848285016146da565b60608301525060806147b7848285016146ee565b60808301525060a06147cb848285016146ee565b60a08301525060c06147df84828501614658565b60c08301525092915050565b5f60208284031215614800576147ff614180565b5b5f82015167ffffffffffffffff81111561481d5761481c614184565b5b61482984828501614702565b91505092915050565b5f60a0828403121561484757614846614650565b5b61485160a061433b565b90505f61486084828501614658565b5f830152506020614873848285016146da565b602083015250604082015167ffffffffffffffff81111561489757614896614654565b5b6148a3848285016146ad565b60408301525060606148b7848285016146da565b60608301525060806148cb848285016146ee565b60808301525092915050565b5f602082840312156148ec576148eb614180565b5b5f82015167ffffffffffffffff81111561490957614908614184565b5b61491584828501614832565b91505092915050565b7f4e487b71000000000000000000000000000000000000000000000000000000005f52603260045260245ffd5b7f4e487b71000000000000000000000000000000000000000000000000000000005f52602260045260245ffd5b5f600282049050600182168061498f57607f821691505b6020821081036149a2576149a161494b565b5b50919050565b7f4e487b71000000000000000000000000000000000000000000000000000000005f52601160045260245ffd5b5f6149df82613cdf565b91507fffffffffffffffffffffffffffffffffffffffffffffffffffffffffffffffff8203614a1157614a106149a8565b5b600182019050919050565b5f82825260208201905092915050565b7f4f70657261c3a7c3a36f207065726d6974696461206170656e617320706172615f8201527f20466f726e656365646f7265732e000000000000000000000000000000000000602082015250565b5f614a86602e83614a1c565b9150614a9182614a2c565b604082019050919050565b5f6020820190508181035f830152614ab381614a7a565b9050919050565b7f45737465207365727669c3a76f206ec3a36f20657374c3a120656d20657865635f8201527f75c3a7c3a36f20652073657520706167616d656e746f206ec3a36f20706f646560208201527f2073657220736f6c6963697461646f2e00000000000000000000000000000000604082015250565b5f614b3a605083614a1c565b9150614b4582614aba565b606082019050919050565b5f6020820190508181035f830152614b6781614b2e565b9050919050565b7f4120436f6e636c7573c3a36f20646f205365727669c3a76f2065206120536f6c5f8201527f6963697461c3a7c3a36f20646520506167616d656e746f2073c3b320706f646560208201527f6d20736572207265616c697a6164612070656c6f206578656375746f7220646f60408201527f207365727669c3a76f2e00000000000000000000000000000000000000000000606082015250565b5f614c14606a83614a1c565b9150614c1f82614b6e565b608082019050919050565b5f6020820190508181035f830152614c4181614c08565b9050919050565b7f4f70657261c3a7c3a36f207065726d6974696461206170656e617320706172615f8201527f20756d6120536563726574617269612e00000000000000000000000000000000602082015250565b5f614ca2603083614a1c565b9150614cad82614c48565b604082019050919050565b5f6020820190508181035f830152614ccf81614c96565b9050919050565b7f45737465207365727669c3a76f206ec3a36f20657374c3a120616775617264615f8201527f6e646f20706167616d656e746f2e000000000000000000000000000000000000602082015250565b5f614d30602e83614a1c565b9150614d3b82614cd6565b604082019050919050565b5f6020820190508181035f830152614d5d81614d24565b9050919050565b7f536f6d656e7465206f20736f6c69636974616e746520646f207365727669c3a75f8201527f6f20706f6465206c696265726172206f20706167616d656e746f2e0000000000602082015250565b5f614dbe603b83614a1c565b9150614dc982614d64565b604082019050919050565b5f6020820190508181035f830152614deb81614db2565b9050919050565b614dfb81613cdf565b82525050565b5f604082019050614e145f830185614628565b614e216020830184614df2565b9392505050565b5f60208284031215614e3d57614e3c614180565b5b5f614e4a848285016146ee565b91505092915050565b5f606082019050614e665f830186614628565b614e736020830185614df2565b614e806040830184614df2565b949350505050565b7f4120636f6e7461206c617374726f206ac3a120666f69207365746164612e00005f82015250565b5f614ebc601e83614a1c565b9150614ec782614e88565b602082019050919050565b5f6020820190508181035f830152614ee981614eb0565b9050919050565b7f536f6d656e746520756d61207365637265746172696120706f646520736f6c695f8201527f636974617220756d207365727669c3a76f2e0000000000000000000000000000602082015250565b5f614f4a603283614a1c565b9150614f5582614ef0565b604082019050919050565b5f6020820190508181035f830152614f7781614f3e565b9050919050565b5f614f8882613cdf565b9150614f9383613cdf565b9250828202614fa181613cdf565b91508282048414831517614fb857614fb76149a8565b5b5092915050565b5f60208284031215614fd457614fd3614180565b5b5f82015167ffffffffffffffff811115614ff157614ff0614184565b5b614ffd848285016146ad565b91505092915050565b5f819050815f5260205f209050919050565b5f6020601f8301049050919050565b5f82821b905092915050565b5f600883026150627fffffffffffffffffffffffffffffffffffffffffffffffffffffffffffffffff82615027565b61506c8683615027565b95508019841693508086168417925050509392505050565b5f819050919050565b5f6150a76150a261509d84613cdf565b615084565b613cdf565b9050919050565b5f819050919050565b6150c08361508d565b6150d46150cc826150ae565b848454615033565b825550505050565b5f90565b6150e86150dc565b6150f38184846150b7565b505050565b5b818110156151165761510b5f826150e0565b6001810190506150f9565b5050565b601f82111561515b5761512c81615006565b61513584615018565b81016020851015615144578190505b61515861515085615018565b8301826150f8565b50505b505050565b5f82821c905092915050565b5f61517b5f1984600802615160565b1980831691505092915050565b5f615193838361516c565b9150826002028217905092915050565b6151ac82613cf7565b67ffffffffffffffff8111156151c5576151c46142dd565b5b6151cf8254614978565b6151da82828561511a565b5f60209050601f83116001811461520b575f84156151f9578287015190505b6152038582615188565b86555061526a565b601f19841661521986615006565b5f5b828110156152405784890151825560018201915060208501945060208101905061521b565b8683101561525d5784890151615259601f89168261516c565b8355505b6001600288020188555050505b505050505050565b5f6060820190506152855f830186614628565b6152926020830185614628565b61529f6040830184614df2565b949350505050565b7f52657365727661206465205365727669c3a76f202d2000000000000000000000815250565b5f81905092915050565b5f6152e182613cf7565b6152eb81856152cd565b93506152fb818560208601613d11565b80840191505092915050565b5f615311826152a7565b60168201915061532182846152d7565b915081905092915050565b5f60e083015f8301516153415f860182613ce8565b50602083015184820360208601526153598282613d2f565b915050604083015161536e6040860182613ce8565b50606083015184820360608601526153868282613d2f565b915050608083015161539b6080860182613d97565b5060a08301516153ae60a0860182613d97565b5060c083015184820360c08601526153c68282613d2f565b9150508091505092915050565b5f6040820190506153e65f830185614628565b81810360208301526153f8818461532c565b90509392505050565b7f45737465207365727669c3a76f206ec3a36f20657374c3a1206d6169732064695f8201527f73706f6ec3ad76656c2070617261206578656375c3a7c3a36f2e000000000000602082015250565b5f61545b603a83614a1c565b915061546682615401565b604082019050919050565b5f6020820190508181035f8301526154888161544f565b9050919050565b7f4170656e617320466f726e656365646f72657320636f6d20636164617374726f5f8201527f206170726f7661646f20706f64656d20657865637574617220756d207365727660208201527f69c3a76f2e000000000000000000000000000000000000000000000000000000604082015250565b5f61550f604583614a1c565b915061551a8261548f565b606082019050919050565b5f6020820190508181035f83015261553c81615503565b9050919050565b5f61554d82613cdf565b915061555883613cdf565b92508282039050818111156155705761556f6149a8565b5b9291505056fea2646970667358221220e5ef7cb76be79ab3168f215c51360c6ad7aca9a60f09863631d940dd2e96272c64736f6c634300081a00336080604052348015600e575f80fd5b5061035b8061001c5f395ff3fe608060405234801561000f575f80fd5b5060043610610029575f3560e01c80633a96fdd71461002d575b5f80fd5b61004760048036038101906100429190610214565b61005d565b60405161005491906102a4565b60405180910390f35b5f815183511461006f575f90506100c1565b81604051602001610080919061030f565b60405160208183030381529060405280519060200120836040516020016100a7919061030f565b604051602081830303815290604052805190602001201490505b92915050565b5f604051905090565b5f80fd5b5f80fd5b5f80fd5b5f80fd5b5f601f19601f8301169050919050565b7f4e487b71000000000000000000000000000000000000000000000000000000005f52604160045260245ffd5b610126826100e0565b810181811067ffffffffffffffff82111715610145576101446100f0565b5b80604052505050565b5f6101576100c7565b9050610163828261011d565b919050565b5f67ffffffffffffffff821115610182576101816100f0565b5b61018b826100e0565b9050602081019050919050565b828183375f83830152505050565b5f6101b86101b384610168565b61014e565b9050828152602081018484840111156101d4576101d36100dc565b5b6101df848285610198565b509392505050565b5f82601f8301126101fb576101fa6100d8565b5b813561020b8482602086016101a6565b91505092915050565b5f806040838503121561022a576102296100d0565b5b5f83013567ffffffffffffffff811115610247576102466100d4565b5b610253858286016101e7565b925050602083013567ffffffffffffffff811115610274576102736100d4565b5b610280858286016101e7565b9150509250929050565b5f8115159050919050565b61029e8161028a565b82525050565b5f6020820190506102b75f830184610295565b92915050565b5f81519050919050565b5f81905092915050565b8281835e5f83830152505050565b5f6102e9826102bd565b6102f381856102c7565b93506103038185602086016102d1565b80840191505092915050565b5f61031a82846102df565b91508190509291505056fea26469706673582212203d7e9a38733ba9ff4663bc589e3b123b7178e45d055f1efe99c34fab688034f564736f6c634300081a0033",
  "immutableReferences": {},
  "source": "// SPDX-License-Identifier: MIT\npragma solidity ^0.8.0;\n\nimport \"./TiposComuns.sol\";\nimport \"./AgenteFederado.sol\";\nimport \"./Fornecedor.sol\";\nimport \"./ContaLastro.sol\";\nimport \"./GovToken.sol\";\nimport \"./StringUtils.sol\";\n\ncontract PainelServico {\n    //Propriedades\n    ServicoInfo[] private _listaServicos;\n    uint256 private _id = 0;\n\n    AgenteFederado private _agenteFederado;\n    ContaLastro private _contaLastro;\n    Fornecedor private _fornecedor;\n    StringUtils private _string;\n    GovToken private _govToken;\n\n    //Construtores\n    constructor(\n        AgenteFederado agenteFederado,\n        Fornecedor fornecedor,\n        GovToken govToken\n    ) {\n        _agenteFederado = agenteFederado;\n        _fornecedor = fornecedor;\n        _govToken = govToken;\n        _string = new StringUtils();\n    }\n\n    //Modificadores\n    modifier onlyOwner() {\n        //require(_owners[msg.sender] == true);\n        _;\n    }\n\n    modifier onlySupplier() {\n        require(\n            _fornecedor.obterFornecedor(msg.sender).cadastrado,\n            unicode\"Operao permitida apenas para Fornecedores.\"\n        );\n        _;\n    }\n\n    modifier onlySecretary() {\n        require(\n            _agenteFederado.obterSecretaria(msg.sender).cadastrado,\n            unicode\"Operao permitida apenas para uma Secretaria.\"\n        );\n        _;\n    }\n\n    //Eventos\n    event servicoAdicionado(ServicoInfo servico);\n\n    //Funes\n    function setContaLastro(ContaLastro contaLastro) public onlyOwner {\n        require(\n            address(_contaLastro) == address(0),\n            unicode\"A conta lastro j foi setada.\"\n        );\n        _contaLastro = contaLastro;\n    }\n\n    function setOwner(address owner, bool isOwner) public onlyOwner {\n        //_owners[owner] = isOwner;\n    }\n\n    function listarServicos2() public view returns (ServicoInfo[] memory) {\n        return _listaServicos;\n    }\n\n    function listarServicos()\n        public\n        view\n        returns (ServicoInfo[] memory listaServicos)\n    {\n        FornecedorInfo memory fornecedor = _fornecedor.obterFornecedor(\n            msg.sender\n        );\n\n        bool isFornecedor = fornecedor.cadastrado && fornecedor.aprovado;\n        bool isAgenteFederado = _agenteFederado\n            .obterSecretaria(msg.sender)\n            .cadastrado;\n\n        uint256 qtdServicos = _listaServicos.length;\n        uint256 qtdeServicosFiltrados = 0;\n\n        for (uint256 i = 0; i < qtdServicos; i++) {\n            ServicoInfo memory servico = _listaServicos[i];\n\n            bool exibirFornecedor = isFornecedor &&\n                (servico.executor == msg.sender ||\n                    servico.status == StatusServicoEnum.Disponivel);\n\n            bool exibirAgenteFederado = isAgenteFederado &&\n                servico.solicitante == msg.sender;\n\n            if (\n                servico.status != StatusServicoEnum.Finalizado &&\n                (exibirFornecedor || exibirAgenteFederado)\n            ) {\n                qtdeServicosFiltrados++;\n            }\n        }\n\n        if (qtdeServicosFiltrados == 0) return listaServicos;\n\n        listaServicos = new ServicoInfo[](qtdeServicosFiltrados);\n        uint256 j = 0;\n        for (uint256 i = 0; i < qtdServicos; i++) {\n            ServicoInfo memory servico = _listaServicos[i];\n\n            bool exibirFornecedor = isFornecedor &&\n                (servico.executor == msg.sender ||\n                    servico.status == StatusServicoEnum.Disponivel);\n\n            bool exibirAgenteFederado = isAgenteFederado &&\n                servico.solicitante == msg.sender;\n\n            if (\n                servico.status != StatusServicoEnum.Finalizado &&\n                (exibirFornecedor || exibirAgenteFederado)\n            ) {\n                servico.visaoFornecedor = exibirFornecedor;\n                servico.visaoAgenteFederado = exibirAgenteFederado;\n                listaServicos[j] = servico;\n                j++;\n            }\n        }\n\n        return listaServicos;\n    }\n\n    function adicionarServico(\n        string memory descricaoResumida,\n        string memory descricao,\n        uint256 valor\n    ) public {\n        SecretariaInfo memory secretaria = _agenteFederado.obterSecretaria(\n            msg.sender\n        );\n\n        require(\n            secretaria.cadastrado,\n            unicode\"Somente uma secretaria pode solicitar um servio.\"\n        );\n\n        ServicoInfo memory servico;\n\n        servico.id = ++_id;\n        servico.descricaoResumida = descricaoResumida;\n        servico.descricao = descricao;\n        servico.valor = valor;\n        servico.disponivel = true;\n        servico.status = StatusServicoEnum.Disponivel;\n        servico.solicitante = msg.sender;\n        servico.executor = address(0);\n        servico.data = block.timestamp * 1000;\n        servico.secretaria = secretaria;\n        servico.nomeToken = _govToken.name();\n        servico.simboloToken = _govToken.symbol();\n\n        _listaServicos.push(servico);\n\n        _govToken.transferFrom(\n            secretaria.enderecoCarteira,\n            address(this),\n            valor\n        );\n\n        _agenteFederado.incluirLinhaExtrato(\n            secretaria.enderecoCarteira,\n            ExtratoInfo(\n                servico.data,\n                string.concat(\n                    unicode\"Reserva de Servio - \",\n                    servico.descricaoResumida\n                ),\n                valor,\n                \"D\",\n                address(this),\n                secretaria.enderecoCarteira,\n                _govToken.symbol()\n            )\n        );\n\n        emit servicoAdicionado(servico);\n    }\n\n    function executarServico(uint256 id) public onlySupplier {\n        uint256 indice = obterIndiceServico(id);\n\n        require(\n            _listaServicos[indice].status == StatusServicoEnum.Disponivel,\n            unicode\"Este servio no est mais disponvel para execuo.\"\n        );\n\n        FornecedorInfo memory fornecedor = _fornecedor.obterFornecedor(\n            msg.sender\n        );\n\n        require(\n            fornecedor.aprovado,\n            unicode\"Apenas Fornecedores com cadastro aprovado podem executar um servio.\"\n        );\n\n        _listaServicos[indice].fornecedor = fornecedor;\n        _listaServicos[indice].executor = msg.sender;\n        _listaServicos[indice].disponivel = false;\n        _listaServicos[indice].status = StatusServicoEnum.EmExecucao;\n    }\n\n    function concluirSolicitarPagamentoServico(uint256 id) public onlySupplier {\n        uint256 indice = obterIndiceServico(id);\n\n        require(\n            _listaServicos[indice].status == StatusServicoEnum.EmExecucao,\n            unicode\"Este servio no est em execuo e seu pagamento no pode ser solicitado.\"\n        );\n\n        FornecedorInfo memory fornecedor = _fornecedor.obterFornecedor(\n            msg.sender\n        );\n\n        require(\n            fornecedor.enderecoCarteira ==\n                _listaServicos[indice].fornecedor.enderecoCarteira,\n            unicode\"A Concluso do Servio e a Solicitao de Pagamento s podem ser realizada pelo executor do servio.\"\n        );\n\n        _listaServicos[indice].status = StatusServicoEnum.AguardandoPagamento;\n    }\n\n    function liberarPagamentoServico(uint256 id) public onlySecretary {\n        uint256 indice = obterIndiceServico(id);\n\n        require(\n            _listaServicos[indice].status ==\n                StatusServicoEnum.AguardandoPagamento,\n            unicode\"Este servio no est aguardando pagamento.\"\n        );\n\n        SecretariaInfo memory secretaria = _agenteFederado.obterSecretaria(\n            msg.sender\n        );\n\n        require(\n            secretaria.enderecoCarteira == _listaServicos[indice].solicitante,\n            unicode\"Somente o solicitante do servio pode liberar o pagamento.\"\n        );\n\n        _listaServicos[indice].status = StatusServicoEnum.Finalizado;\n\n        _govToken.approve(address(_contaLastro), _listaServicos[indice].valor);\n\n        _contaLastro.solicitarRepasse(\n            _listaServicos[indice].executor,\n            _listaServicos[indice].id,\n            _listaServicos[indice].valor\n        );\n    }\n\n    function obterIndiceServico(uint256 id) private pure returns (uint256) {\n        uint256 indice = id - 1;\n        return indice;\n    }\n\n    function obterServico(uint256 id) public view returns (ServicoInfo memory) {\n        return _listaServicos[obterIndiceServico(id)];\n    }\n}\n",
  "sourcePath": "/home/marlacabral/GovToken/Web.UI/Contratos/PainelServico.sol",
  "compiler": {
    "name": "solc",
    "version": "0.8.26+commit.8a97fa7a.Emscripten.clang"
  },
  "schemaVersion": "3.4.8",
  "updatedAt": "2024-08-07T20:59:39.869Z",
  "networkType": "ethereum",
  "devdoc": {
    "kind": "dev",
    "methods": {},
    "version": 1
  },
  "userdoc": {
    "kind": "user",
    "methods": {},
    "version": 1
  }
}