{
  "contractName": "StringUtils",
  "abi": [
    {
      "inputs": [
        {
          "internalType": "string",
          "name": "str1",
          "type": "string"
        },
        {
          "internalType": "string",
          "name": "str2",
          "type": "string"
        }
      ],
      "name": "compare",
      "outputs": [
        {
          "internalType": "bool",
          "name": "",
          "type": "bool"
        }
      ],
      "stateMutability": "pure",
      "type": "function"
    }
  ],
  "bytecode": "0x6080604052348015600e575f80fd5b5061035b8061001c5f395ff3fe608060405234801561000f575f80fd5b5060043610610029575f3560e01c80633a96fdd71461002d575b5f80fd5b61004760048036038101906100429190610214565b61005d565b60405161005491906102a4565b60405180910390f35b5f815183511461006f575f90506100c1565b81604051602001610080919061030f565b60405160208183030381529060405280519060200120836040516020016100a7919061030f565b604051602081830303815290604052805190602001201490505b92915050565b5f604051905090565b5f80fd5b5f80fd5b5f80fd5b5f80fd5b5f601f19601f8301169050919050565b7f4e487b71000000000000000000000000000000000000000000000000000000005f52604160045260245ffd5b610126826100e0565b810181811067ffffffffffffffff82111715610145576101446100f0565b5b80604052505050565b5f6101576100c7565b9050610163828261011d565b919050565b5f67ffffffffffffffff821115610182576101816100f0565b5b61018b826100e0565b9050602081019050919050565b828183375f83830152505050565b5f6101b86101b384610168565b61014e565b9050828152602081018484840111156101d4576101d36100dc565b5b6101df848285610198565b509392505050565b5f82601f8301126101fb576101fa6100d8565b5b813561020b8482602086016101a6565b91505092915050565b5f806040838503121561022a576102296100d0565b5b5f83013567ffffffffffffffff811115610247576102466100d4565b5b610253858286016101e7565b925050602083013567ffffffffffffffff811115610274576102736100d4565b5b610280858286016101e7565b9150509250929050565b5f8115159050919050565b61029e8161028a565b82525050565b5f6020820190506102b75f830184610295565b92915050565b5f81519050919050565b5f81905092915050565b8281835e5f83830152505050565b5f6102e9826102bd565b6102f381856102c7565b93506103038185602086016102d1565b80840191505092915050565b5f61031a82846102df565b91508190509291505056fea26469706673582212203d7e9a38733ba9ff4663bc589e3b123b7178e45d055f1efe99c34fab688034f564736f6c634300081a0033",
  "immutableReferences": {},
  "source": "// SPDX-License-Identifier: MIT\npragma solidity ^0.8.0;\n\ncontract StringUtils {\n    function compare(string memory str1, string memory str2) public pure returns (bool) {\n        if (bytes(str1).length != bytes(str2).length) {\n            return false;\n        }\n        return keccak256(abi.encodePacked(str1)) == keccak256(abi.encodePacked(str2));\n    }\n}",
  "sourcePath": "/home/marlacabral/GovToken/Web.UI/Contratos/StringUtils.sol",
  "compiler": {
    "name": "solc",
    "version": "0.8.26+commit.8a97fa7a.Emscripten.clang"
  },
  "schemaVersion": "3.4.8",
  "updatedAt": "2024-08-07T18:53:32.494Z",
  "devdoc": {
    "kind": "dev",
    "methods": {},
    "version": 1
  },
  "userdoc": {
    "kind": "user",
    "methods": {},
    "version": 1
  }
}